{
  "contractName": "All",
  "abi": [
    {
      "inputs": [
        {
          "internalType": "string",
          "name": "name_",
          "type": "string"
        },
        {
          "internalType": "address",
          "name": "tokenAddress_",
          "type": "address"
        }
      ],
      "payable": false,
      "stateMutability": "nonpayable",
      "type": "constructor"
    },
    {
      "anonymous": false,
      "inputs": [
        {
          "indexed": true,
          "internalType": "address",
          "name": "token",
          "type": "address"
        },
        {
          "indexed": true,
          "internalType": "address",
          "name": "staker_",
          "type": "address"
        },
        {
          "indexed": false,
          "internalType": "uint256",
          "name": "amount_",
          "type": "uint256"
        },
        {
          "indexed": false,
          "internalType": "uint256",
          "name": "reward_",
          "type": "uint256"
        }
      ],
      "name": "PaidOut",
      "type": "event"
    },
    {
      "anonymous": false,
      "inputs": [
        {
          "indexed": true,
          "internalType": "address",
          "name": "token",
          "type": "address"
        },
        {
          "indexed": true,
          "internalType": "address",
          "name": "staker_",
          "type": "address"
        },
        {
          "indexed": false,
          "internalType": "uint256",
          "name": "stakedAmount_",
          "type": "uint256"
        }
      ],
      "name": "Staked",
      "type": "event"
    },
    {
      "constant": true,
      "inputs": [],
      "name": "ERC20Interface",
      "outputs": [
        {
          "internalType": "contract IERC20",
          "name": "",
          "type": "address"
        }
      ],
      "payable": false,
      "stateMutability": "view",
      "type": "function"
    },
    {
      "constant": true,
      "inputs": [],
      "name": "name",
      "outputs": [
        {
          "internalType": "string",
          "name": "",
          "type": "string"
        }
      ],
      "payable": false,
      "stateMutability": "view",
      "type": "function"
    },
    {
      "constant": true,
      "inputs": [],
      "name": "rewardBalance",
      "outputs": [
        {
          "internalType": "uint256",
          "name": "",
          "type": "uint256"
        }
      ],
      "payable": false,
      "stateMutability": "view",
      "type": "function"
    },
    {
      "constant": true,
      "inputs": [],
      "name": "stakedBalance",
      "outputs": [
        {
          "internalType": "uint256",
          "name": "",
          "type": "uint256"
        }
      ],
      "payable": false,
      "stateMutability": "view",
      "type": "function"
    },
    {
      "constant": true,
      "inputs": [],
      "name": "stakedTotal",
      "outputs": [
        {
          "internalType": "uint256",
          "name": "",
          "type": "uint256"
        }
      ],
      "payable": false,
      "stateMutability": "view",
      "type": "function"
    },
    {
      "constant": true,
      "inputs": [],
      "name": "tokenAddress",
      "outputs": [
        {
          "internalType": "address",
          "name": "",
          "type": "address"
        }
      ],
      "payable": false,
      "stateMutability": "view",
      "type": "function"
    },
    {
      "constant": true,
      "inputs": [],
      "name": "totalReward",
      "outputs": [
        {
          "internalType": "uint256",
          "name": "",
          "type": "uint256"
        }
      ],
      "payable": false,
      "stateMutability": "view",
      "type": "function"
    },
    {
      "constant": false,
      "inputs": [
        {
          "internalType": "uint256",
          "name": "rewardAmount",
          "type": "uint256"
        }
      ],
      "name": "addReward",
      "outputs": [
        {
          "internalType": "bool",
          "name": "",
          "type": "bool"
        }
      ],
      "payable": false,
      "stateMutability": "nonpayable",
      "type": "function"
    },
    {
      "constant": true,
      "inputs": [
        {
          "internalType": "uint8",
          "name": "_tier",
          "type": "uint8"
        }
      ],
      "name": "userDeposits",
      "outputs": [
        {
          "internalType": "uint256",
          "name": "",
          "type": "uint256"
        },
        {
          "internalType": "uint256",
          "name": "",
          "type": "uint256"
        },
        {
          "internalType": "enum All.tier",
          "name": "",
          "type": "uint8"
        },
        {
          "internalType": "bool",
          "name": "",
          "type": "bool"
        }
      ],
      "payable": false,
      "stateMutability": "view",
      "type": "function"
    },
    {
      "constant": false,
      "inputs": [
        {
          "internalType": "uint256",
          "name": "amount",
          "type": "uint256"
        },
        {
          "internalType": "enum All.tier",
          "name": "_tier",
          "type": "uint8"
        }
      ],
      "name": "stake",
      "outputs": [
        {
          "internalType": "bool",
          "name": "",
          "type": "bool"
        }
      ],
      "payable": false,
      "stateMutability": "nonpayable",
      "type": "function"
    },
    {
      "constant": false,
      "inputs": [
        {
          "internalType": "enum All.tier",
          "name": "_tier",
          "type": "uint8"
        }
      ],
      "name": "withdraw",
      "outputs": [
        {
          "internalType": "bool",
          "name": "",
          "type": "bool"
        }
      ],
      "payable": false,
      "stateMutability": "nonpayable",
      "type": "function"
    }
  ],
  "bytecode": "0x60806040523480156200001157600080fd5b5060405162001f1f38038062001f1f833981810160405260408110156200003757600080fd5b81019080805160405193929190846401000000008211156200005857600080fd5b838201915060208201858111156200006f57600080fd5b82518660018202830111640100000000821117156200008d57600080fd5b8083526020830192505050908051906020019080838360005b83811015620000c3578082015181840152602081019050620000a6565b50505050905090810190601f168015620000f15780820380516001836020036101000a031916815260200191505b506040526020018051906020019092919050505081600290805190602001906200011d9291906200020b565b50600073ffffffffffffffffffffffffffffffffffffffff168173ffffffffffffffffffffffffffffffffffffffff161415620001c2576040517f08c379a00000000000000000000000000000000000000000000000000000000081526004018080602001828103825260188152602001807f546f6b656e20616464726573733a20302061646472657373000000000000000081525060200191505060405180910390fd5b80600360006101000a81548173ffffffffffffffffffffffffffffffffffffffff021916908373ffffffffffffffffffffffffffffffffffffffff1602179055505050620002ba565b828054600181600116156101000203166002900490600052602060002090601f016020900481019282601f106200024e57805160ff19168380011785556200027f565b828001600101855582156200027f579182015b828111156200027e57825182559160200191906001019062000261565b5b5090506200028e919062000292565b5090565b620002b791905b80821115620002b357600081600090555060010162000299565b5090565b90565b611c5580620002ca6000396000f3fe608060405234801561001057600080fd5b50600436106100a95760003560e01c8063750142e611610071578063750142e6146102325780638176b52f146102505780639d76ea58146102bc578063aa5c3ab414610306578063c6ab5d9014610324578063d66692a71461036d576100a9565b806306fdde03146100ae57806310087fb1146101315780631bbc4b83146101845780635b9f0016146101ce57806374de4ec4146101ec575b600080fd5b6100b661038b565b6040518080602001828103825283818151815260200191508051906020019080838360005b838110156100f65780820151818401526020810190506100db565b50505050905090810190601f1680156101235780820380516001836020036101000a031916815260200191505b509250505060405180910390f35b61016a6004803603604081101561014757600080fd5b8101908080359060200190929190803560ff169060200190929190505050610429565b604051808215151515815260200191505060405180910390f35b61018c6107ee565b604051808273ffffffffffffffffffffffffffffffffffffffff1673ffffffffffffffffffffffffffffffffffffffff16815260200191505060405180910390f35b6101d6610814565b6040518082815260200191505060405180910390f35b6102186004803603602081101561020257600080fd5b810190808035906020019092919050505061081a565b604051808215151515815260200191505060405180910390f35b61023a6108ef565b6040518082815260200191505060405180910390f35b61027f6004803603602081101561026657600080fd5b81019080803560ff1690602001909291905050506108f5565b6040518085815260200184815260200183600281111561029b57fe5b60ff1681526020018215151515815260200194505050505060405180910390f35b6102c4610b72565b604051808273ffffffffffffffffffffffffffffffffffffffff1673ffffffffffffffffffffffffffffffffffffffff16815260200191505060405180910390f35b61030e610b98565b6040518082815260200191505060405180910390f35b6103536004803603602081101561033a57600080fd5b81019080803560ff169060200190929190505050610b9e565b604051808215151515815260200191505060405180910390f35b610375611130565b6040518082815260200191505060405180910390f35b60028054600181600116156101000203166002900480601f0160208091040260200160405190810160405280929190818152602001828054600181600116156101000203166002900480156104215780601f106103f657610100808354040283529160200191610421565b820191906000526020600020905b81548152906001019060200180831161040457829003601f168201915b505050505081565b60008260008110156104a3576040517f08c379a000000000000000000000000000000000000000000000000000000000815260040180806020018281038252600f8152602001807f4e6567617469766520616d6f756e74000000000000000000000000000000000081525060200191505060405180910390fd5b60008360028111156104b157fe5b90506000339050600060028111156104c557fe5b8560028111156104d157fe5b14156105c757600015156000808373ffffffffffffffffffffffffffffffffffffffff1673ffffffffffffffffffffffffffffffffffffffff16815260200190815260200160002060008460ff1660ff16815260200190815260200160002060009054906101000a900460ff161515146105b3576040517f08c379a000000000000000000000000000000000000000000000000000000000815260040180806020018281038252600e8152602001807f416c7265616479207374616b656400000000000000000000000000000000000081525060200191505060405180910390fd5b6105be818784611136565b935050506107e7565b600160028111156105d457fe5b8560028111156105e057fe5b14156106d657600015156000808373ffffffffffffffffffffffffffffffffffffffff1673ffffffffffffffffffffffffffffffffffffffff16815260200190815260200160002060008460ff1660ff16815260200190815260200160002060009054906101000a900460ff161515146106c2576040517f08c379a000000000000000000000000000000000000000000000000000000000815260040180806020018281038252600e8152602001807f416c7265616479207374616b656400000000000000000000000000000000000081525060200191505060405180910390fd5b6106cd818784611136565b935050506107e7565b6002808111156106e257fe5b8560028111156106ee57fe5b14156107e457600015156000808373ffffffffffffffffffffffffffffffffffffffff1673ffffffffffffffffffffffffffffffffffffffff16815260200190815260200160002060008460ff1660ff16815260200190815260200160002060009054906101000a900460ff161515146107d0576040517f08c379a000000000000000000000000000000000000000000000000000000000815260040180806020018281038252600e8152602001807f416c7265616479207374616b656400000000000000000000000000000000000081525060200191505060405180910390fd5b6107db818784611136565b935050506107e7565b50505b5092915050565b600860009054906101000a900473ffffffffffffffffffffffffffffffffffffffff1681565b60075481565b6000808211610891576040517f08c379a00000000000000000000000000000000000000000000000000000000081526004018080602001828103825260178152602001807f526577617264206d75737420626520706f73697469766500000000000000000081525060200191505060405180910390fd5b60003390506108a08184611455565b6108ae5760009150506108ea565b6108c38360055461146a90919063ffffffff16565b6005819055506108de8360065461146a90919063ffffffff16565b60068190555060019150505b919050565b60055481565b6000806000803385600115156000808473ffffffffffffffffffffffffffffffffffffffff1673ffffffffffffffffffffffffffffffffffffffff16815260200190815260200160002060008360ff1660ff16815260200190815260200160002060009054906101000a900460ff161515146109d9576040517f08c379a00000000000000000000000000000000000000000000000000000000081526004018080602001828103825260188152602001807f4e6f207374616b657320666f756e6420666f722075736572000000000000000081525060200191505060405180910390fd5b6000339050600160008273ffffffffffffffffffffffffffffffffffffffff1673ffffffffffffffffffffffffffffffffffffffff16815260200190815260200160002060008960ff1660ff16815260200190815260200160002060010154600160008373ffffffffffffffffffffffffffffffffffffffff1673ffffffffffffffffffffffffffffffffffffffff16815260200190815260200160002060008a60ff1660ff16815260200190815260200160002060020154600160008473ffffffffffffffffffffffffffffffffffffffff1673ffffffffffffffffffffffffffffffffffffffff16815260200190815260200160002060008b60ff1660ff16815260200190815260200160002060030160009054906101000a900460ff16600160008573ffffffffffffffffffffffffffffffffffffffff1673ffffffffffffffffffffffffffffffffffffffff16815260200190815260200160002060008c60ff1660ff16815260200190815260200160002060030160019054906101000a900460ff1696509650965096505050509193509193565b600360009054906101000a900473ffffffffffffffffffffffffffffffffffffffff1681565b60065481565b600033826002811115610bad57fe5b600115156000808473ffffffffffffffffffffffffffffffffffffffff1673ffffffffffffffffffffffffffffffffffffffff16815260200190815260200160002060008360ff1660ff16815260200190815260200160002060009054906101000a900460ff16151514610c89576040517f08c379a00000000000000000000000000000000000000000000000000000000081526004018080602001828103825260188152602001807f4e6f207374616b657320666f756e6420666f722075736572000000000000000081525060200191505060405180910390fd5b6000846002811115610c9757fe5b9050600033905060001515600160008373ffffffffffffffffffffffffffffffffffffffff1673ffffffffffffffffffffffffffffffffffffffff16815260200190815260200160002060008460ff1660ff16815260200190815260200160002060030160019054906101000a900460ff16151514610d7e576040517f08c379a00000000000000000000000000000000000000000000000000000000081526004018080602001828103825260108152602001807f416c72656164792070616964206f75740000000000000000000000000000000081525060200191505060405180910390fd5b6000600160008373ffffffffffffffffffffffffffffffffffffffff1673ffffffffffffffffffffffffffffffffffffffff16815260200190815260200160002060008460ff1660ff16815260200190815260200160002060010154905060006002811115610de957fe5b876002811115610df557fe5b1415610ef457610e68603c600160008573ffffffffffffffffffffffffffffffffffffffff1673ffffffffffffffffffffffffffffffffffffffff16815260200190815260200160002060008660ff1660ff1681526020019081526020016000206002015461146a90919063ffffffff16565b421015610edd576040517f08c379a000000000000000000000000000000000000000000000000000000000815260040180806020018281038252601b8152602001807f52657175657374696e67206265666f7265206c6f636b2074696d65000000000081525060200191505060405180910390fd5b610eea828285603a6114f2565b9550505050611129565b60016002811115610f0157fe5b876002811115610f0d57fe5b141561100d57610f80603c600160008573ffffffffffffffffffffffffffffffffffffffff1673ffffffffffffffffffffffffffffffffffffffff16815260200190815260200160002060008660ff1660ff1681526020019081526020016000206002015461146a90919063ffffffff16565b421015610ff5576040517f08c379a000000000000000000000000000000000000000000000000000000000815260040180806020018281038252601b8152602001807f52657175657374696e67206265666f7265206c6f636b2074696d65000000000081525060200191505060405180910390fd5b61100382828561010f6114f2565b9550505050611129565b60028081111561101957fe5b87600281111561102557fe5b141561112557611098603c600160008573ffffffffffffffffffffffffffffffffffffffff1673ffffffffffffffffffffffffffffffffffffffff16815260200190815260200160002060008660ff1660ff1681526020019081526020016000206002015461146a90919063ffffffff16565b42101561110d576040517f08c379a000000000000000000000000000000000000000000000000000000000815260040180806020018281038252601b8152602001807f52657175657374696e67206265666f7265206c6f636b2074696d65000000000081525060200191505060405180910390fd5b61111b8282856102b26114f2565b9550505050611129565b5050505b5050919050565b60045481565b60008260008110156111b0576040517f08c379a000000000000000000000000000000000000000000000000000000000815260040180806020018281038252600f8152602001807f4e6567617469766520616d6f756e74000000000000000000000000000000000081525060200191505060405180910390fd5b6111ba8585611455565b6111c7576000915061144d565b60016000808773ffffffffffffffffffffffffffffffffffffffff1673ffffffffffffffffffffffffffffffffffffffff16815260200190815260200160002060008560ff1660ff16815260200190815260200160002060006101000a81548160ff0219169083151502179055506040518060a001604052808673ffffffffffffffffffffffffffffffffffffffff1681526020018581526020014281526020018460ff16600281111561127757fe5b600281111561128257fe5b815260200160001515815250600160008773ffffffffffffffffffffffffffffffffffffffff1673ffffffffffffffffffffffffffffffffffffffff16815260200190815260200160002060008560ff1660ff16815260200190815260200160002060008201518160000160006101000a81548173ffffffffffffffffffffffffffffffffffffffff021916908373ffffffffffffffffffffffffffffffffffffffff160217905550602082015181600101556040820151816002015560608201518160030160006101000a81548160ff0219169083600281111561136357fe5b021790555060808201518160030160016101000a81548160ff0219169083151502179055509050508473ffffffffffffffffffffffffffffffffffffffff16600360009054906101000a900473ffffffffffffffffffffffffffffffffffffffff1673ffffffffffffffffffffffffffffffffffffffff167f5dac0c1b1112564a045ba943c9d50270893e8e826c49be8e7073adc713ab7bd7866040518082815260200191505060405180910390a36114278460075461146a90919063ffffffff16565b6007819055506114428460045461146a90919063ffffffff16565b600481905550600191505b509392505050565b6000611462833084611711565b905092915050565b6000808284019050838110156114e8576040517f08c379a000000000000000000000000000000000000000000000000000000000815260040180806020018281038252601b8152602001807f536166654d6174683a206164646974696f6e206f766572666c6f77000000000081525060200191505060405180910390fd5b8091505092915050565b600060018060008773ffffffffffffffffffffffffffffffffffffffff1673ffffffffffffffffffffffffffffffffffffffff16815260200190815260200160002060008560ff1660ff16815260200190815260200160002060030160016101000a81548160ff021916908315150217905550600061157a838661189790919063ffffffff16565b9050600061271090506000611598828461191d90919063ffffffff16565b905060006115af828961146a90919063ffffffff16565b90506115c6886007546119ac90919063ffffffff16565b6007819055506115e1826006546119ac90919063ffffffff16565b60068190555060008060008b73ffffffffffffffffffffffffffffffffffffffff1673ffffffffffffffffffffffffffffffffffffffff16815260200190815260200160002060008960ff1660ff16815260200190815260200160002060006101000a81548160ff02191690831515021790555061165f8982611a35565b15611700578873ffffffffffffffffffffffffffffffffffffffff16600360009054906101000a900473ffffffffffffffffffffffffffffffffffffffff1673ffffffffffffffffffffffffffffffffffffffff167f85ab59351da11b79336de7647172267c33bf533ee87d9d292441c2672177159b8a85604051808381526020018281526020019250505060405180910390a36001945050505050611709565b60009450505050505b949350505050565b6000600360009054906101000a900473ffffffffffffffffffffffffffffffffffffffff16600860006101000a81548173ffffffffffffffffffffffffffffffffffffffff021916908373ffffffffffffffffffffffffffffffffffffffff160217905550600860009054906101000a900473ffffffffffffffffffffffffffffffffffffffff1673ffffffffffffffffffffffffffffffffffffffff166323b872dd8585856040518463ffffffff1660e01b8152600401808473ffffffffffffffffffffffffffffffffffffffff1673ffffffffffffffffffffffffffffffffffffffff1681526020018373ffffffffffffffffffffffffffffffffffffffff1673ffffffffffffffffffffffffffffffffffffffff1681526020018281526020019350505050602060405180830381600087803b15801561185357600080fd5b505af1158015611867573d6000803e3d6000fd5b505050506040513d602081101561187d57600080fd5b810190808051906020019092919050505090509392505050565b6000808314156118aa5760009050611917565b60008284029050828482816118bb57fe5b0414611912576040517f08c379a0000000000000000000000000000000000000000000000000000000008152600401808060200182810382526021815260200180611c006021913960400191505060405180910390fd5b809150505b92915050565b6000808211611994576040517f08c379a000000000000000000000000000000000000000000000000000000000815260040180806020018281038252601a8152602001807f536166654d6174683a206469766973696f6e206279207a65726f00000000000081525060200191505060405180910390fd5b600082848161199f57fe5b0490508091505092915050565b600082821115611a24576040517f08c379a000000000000000000000000000000000000000000000000000000000815260040180806020018281038252601e8152602001807f536166654d6174683a207375627472616374696f6e206f766572666c6f77000081525060200191505060405180910390fd5b600082840390508091505092915050565b6000816000811015611aaf576040517f08c379a000000000000000000000000000000000000000000000000000000000815260040180806020018281038252600f8152602001807f4e6567617469766520616d6f756e74000000000000000000000000000000000081525060200191505060405180910390fd5b600360009054906101000a900473ffffffffffffffffffffffffffffffffffffffff16600860006101000a81548173ffffffffffffffffffffffffffffffffffffffff021916908373ffffffffffffffffffffffffffffffffffffffff160217905550600860009054906101000a900473ffffffffffffffffffffffffffffffffffffffff1673ffffffffffffffffffffffffffffffffffffffff1663a9059cbb85856040518363ffffffff1660e01b8152600401808373ffffffffffffffffffffffffffffffffffffffff1673ffffffffffffffffffffffffffffffffffffffff16815260200182815260200192505050602060405180830381600087803b158015611bbb57600080fd5b505af1158015611bcf573d6000803e3d6000fd5b505050506040513d6020811015611be557600080fd5b81019080805190602001909291905050509150509291505056fe536166654d6174683a206d756c7469706c69636174696f6e206f766572666c6f77a265627a7a72315820498ec7d981ee7f1fa79c392ce8ccc2e7e4bc6586b1a03958b4af1f1fc8641fbb64736f6c63430005100032",
  "source": "pragma solidity ^0.5.0;\r\n\r\n/**\r\n * @dev Interface of the ERC20 standard as defined in the EIP. Does not include\r\n * the optional functions; to access them see `ERC20Detailed`.\r\n */\r\ninterface IERC20 {\r\n    /**\r\n     * @dev Returns the amount of tokens in existence.\r\n     */\r\n    function totalSupply() external view returns (uint256);\r\n\r\n    /**\r\n     * @dev Returns the amount of tokens owned by `account`.\r\n     */\r\n    function balanceOf(address account) external view returns (uint256);\r\n\r\n    /**\r\n     * @dev Moves `amount` tokens from the caller's account to `recipient`.\r\n     *\r\n     * Returns a boolean value indicating whether the operation succeeded.\r\n     *\r\n     * Emits a `Transfer` event.\r\n     */\r\n    function transfer(address recipient, uint256 amount)\r\n        external\r\n        returns (bool);\r\n\r\n    /**\r\n     * @dev Returns the remaining number of tokens that `spender` will be\r\n     * allowed to spend on behalf of `owner` through `transferFrom`. This is\r\n     * zero by default.\r\n     *\r\n     * This value changes when `approve` or `transferFrom` are called.\r\n     */\r\n    function allowance(address owner, address spender)\r\n        external\r\n        view\r\n        returns (uint256);\r\n\r\n    /**\r\n     * @dev Sets `amount` as the allowance of `spender` over the caller's tokens.\r\n     *\r\n     * Returns a boolean value indicating whether the operation succeeded.\r\n     *\r\n     * > Beware that changing an allowance with this method brings the risk\r\n     * that someone may use both the old and the new allowance by unfortunate\r\n     * transaction ordering. One possible solution to mitigate this race\r\n     * condition is to first reduce the spender's allowance to 0 and set the\r\n     * desired value afterwards:\r\n     * https://github.com/ethereum/EIPs/issues/20#issuecomment-263524729\r\n     *\r\n     * Emits an `Approval` event.\r\n     */\r\n    function approve(address spender, uint256 amount) external returns (bool);\r\n\r\n    /**\r\n     * @dev Moves `amount` tokens from `sender` to `recipient` using the\r\n     * allowance mechanism. `amount` is then deducted from the caller's\r\n     * allowance.\r\n     *\r\n     * Returns a boolean value indicating whether the operation succeeded.\r\n     *\r\n     * Emits a `Transfer` event.\r\n     */\r\n    function transferFrom(\r\n        address sender,\r\n        address recipient,\r\n        uint256 amount\r\n    ) external returns (bool);\r\n\r\n    /**\r\n     * @dev Emitted when `value` tokens are moved from one account (`from`) to\r\n     * another (`to`).\r\n     *\r\n     * Note that `value` may be zero.\r\n     */\r\n    event Transfer(address indexed from, address indexed to, uint256 value);\r\n\r\n    /**\r\n     * @dev Emitted when the allowance of a `spender` for an `owner` is set by\r\n     * a call to `approve`. `value` is the new allowance.\r\n     */\r\n    event Approval(\r\n        address indexed owner,\r\n        address indexed spender,\r\n        uint256 value\r\n    );\r\n}\r\n\r\n// File: openzeppelin-solidity/contracts/math/SafeMath.sol\r\n\r\npragma solidity ^0.5.0;\r\n\r\n/**\r\n * @dev Wrappers over Solidity's arithmetic operations with added overflow\r\n * checks.\r\n *\r\n * Arithmetic operations in Solidity wrap on overflow. This can easily result\r\n * in bugs, because programmers usually assume that an overflow raises an\r\n * error, which is the standard behavior in high level programming languages.\r\n * `SafeMath` restores this intuition by reverting the transaction when an\r\n * operation overflows.\r\n *\r\n * Using this library instead of the unchecked operations eliminates an entire\r\n * class of bugs, so it's recommended to use it always.\r\n */\r\nlibrary SafeMath {\r\n    /**\r\n     * @dev Returns the addition of two unsigned integers, reverting on\r\n     * overflow.\r\n     *\r\n     * Counterpart to Solidity's `+` operator.\r\n     *\r\n     * Requirements:\r\n     * - Addition cannot overflow.\r\n     */\r\n    function add(uint256 a, uint256 b) internal pure returns (uint256) {\r\n        uint256 c = a + b;\r\n        require(c >= a, \"SafeMath: addition overflow\");\r\n\r\n        return c;\r\n    }\r\n\r\n    /**\r\n     * @dev Returns the subtraction of two unsigned integers, reverting on\r\n     * overflow (when the result is negative).\r\n     *\r\n     * Counterpart to Solidity's `-` operator.\r\n     *\r\n     * Requirements:\r\n     * - Subtraction cannot overflow.\r\n     */\r\n    function sub(uint256 a, uint256 b) internal pure returns (uint256) {\r\n        require(b <= a, \"SafeMath: subtraction overflow\");\r\n        uint256 c = a - b;\r\n\r\n        return c;\r\n    }\r\n\r\n    /**\r\n     * @dev Returns the multiplication of two unsigned integers, reverting on\r\n     * overflow.\r\n     *\r\n     * Counterpart to Solidity's `*` operator.\r\n     *\r\n     * Requirements:\r\n     * - Multiplication cannot overflow.\r\n     */\r\n    function mul(uint256 a, uint256 b) internal pure returns (uint256) {\r\n        // Gas optimization: this is cheaper than requiring 'a' not being zero, but the\r\n        // benefit is lost if 'b' is also tested.\r\n        // See: https://github.com/OpenZeppelin/openzeppelin-solidity/pull/522\r\n        if (a == 0) {\r\n            return 0;\r\n        }\r\n\r\n        uint256 c = a * b;\r\n        require(c / a == b, \"SafeMath: multiplication overflow\");\r\n\r\n        return c;\r\n    }\r\n\r\n    /**\r\n     * @dev Returns the integer division of two unsigned integers. Reverts on\r\n     * division by zero. The result is rounded towards zero.\r\n     *\r\n     * Counterpart to Solidity's `/` operator. Note: this function uses a\r\n     * `revert` opcode (which leaves remaining gas untouched) while Solidity\r\n     * uses an invalid opcode to revert (consuming all remaining gas).\r\n     *\r\n     * Requirements:\r\n     * - The divisor cannot be zero.\r\n     */\r\n    function div(uint256 a, uint256 b) internal pure returns (uint256) {\r\n        // Solidity only automatically asserts when dividing by 0\r\n        require(b > 0, \"SafeMath: division by zero\");\r\n        uint256 c = a / b;\r\n        // assert(a == b * c + a % b); // There is no case in which this doesn't hold\r\n\r\n        return c;\r\n    }\r\n\r\n    /**\r\n     * @dev Returns the remainder of dividing two unsigned integers. (unsigned integer modulo),\r\n     * Reverts when dividing by zero.\r\n     *\r\n     * Counterpart to Solidity's `%` operator. This function uses a `revert`\r\n     * opcode (which leaves remaining gas untouched) while Solidity uses an\r\n     * invalid opcode to revert (consuming all remaining gas).\r\n     *\r\n     * Requirements:\r\n     * - The divisor cannot be zero.\r\n     */\r\n    function mod(uint256 a, uint256 b) internal pure returns (uint256) {\r\n        require(b != 0, \"SafeMath: modulo by zero\");\r\n        return a % b;\r\n    }\r\n}\r\n\r\npragma solidity ^0.5.0;\r\n\r\ncontract All {\r\n    using SafeMath for uint256;\r\n\r\n    struct Deposits {\r\n        address depositor;\r\n        uint256 depositAmount;\r\n        uint256 depositTime;\r\n        tier depositTier;\r\n        bool paid;\r\n    }\r\n\r\n    enum tier {ROOKIE, PROFESSIONAL, LEGENDARY}\r\n\r\n    mapping(address => mapping(uint8 => bool)) private hasStaked;\r\n    mapping(address => mapping(uint8 => Deposits)) private deposits;\r\n\r\n    string public name;\r\n    address public tokenAddress;\r\n    uint256 public stakedTotal;\r\n    uint256 public totalReward;\r\n    uint256 public rewardBalance;\r\n    uint256 public stakedBalance;\r\n\r\n    IERC20 public ERC20Interface;\r\n    event Staked(\r\n        address indexed token,\r\n        address indexed staker_,\r\n        uint256 stakedAmount_\r\n    );\r\n    event PaidOut(\r\n        address indexed token,\r\n        address indexed staker_,\r\n        uint256 amount_,\r\n        uint256 reward_\r\n    );\r\n\r\n    constructor(string memory name_, address tokenAddress_) public {\r\n        name = name_;\r\n        require(tokenAddress_ != address(0), \"Token address: 0 address\");\r\n        tokenAddress = tokenAddress_;\r\n    }\r\n\r\n    function addReward(uint256 rewardAmount)\r\n        public\r\n        returns (\r\n            //_hasAllowance(msg.sender, rewardAmount)\r\n            bool\r\n        )\r\n    {\r\n        require(rewardAmount > 0, \"Reward must be positive\");\r\n        address from = msg.sender;\r\n        if (!_payMe(from, rewardAmount)) {\r\n            return false;\r\n        }\r\n        //Rewards added to staking contract\r\n        totalReward = totalReward.add(rewardAmount);\r\n        rewardBalance = rewardBalance.add(rewardAmount);\r\n        return true;\r\n    }\r\n\r\n    function userDeposits(uint8 _tier)\r\n        public\r\n        view\r\n        _staked(msg.sender, _tier)\r\n        returns (\r\n            uint256,\r\n            uint256,\r\n            tier,\r\n            bool\r\n        )\r\n    {\r\n        address user = msg.sender;\r\n        return (\r\n            deposits[user][_tier].depositAmount,\r\n            deposits[user][_tier].depositTime,\r\n            deposits[user][_tier].depositTier,\r\n            deposits[user][_tier].paid\r\n        );\r\n    }\r\n\r\n    /**\r\n     * Requirements:\r\n     * - `amount` Amount to be staked\r\n     */\r\n    function stake(uint256 amount, tier _tier)\r\n        public\r\n        _positive(amount)\r\n        returns (\r\n            //_realAddress(msg.sender)\r\n            bool\r\n        )\r\n    {\r\n        uint8 test = uint8(_tier);\r\n        address from = msg.sender;\r\n        if (_tier == tier.ROOKIE) {\r\n            require(hasStaked[from][test] == false, \"Already staked\");\r\n            return _stake(from, amount, test);\r\n        } else if (_tier == tier.PROFESSIONAL) {\r\n            require(hasStaked[from][test] == false, \"Already staked\");\r\n            return _stake(from, amount, test);\r\n        } else if (_tier == tier.LEGENDARY) {\r\n            require(hasStaked[from][test] == false, \"Already staked\");\r\n            return _stake(from, amount, test);\r\n        }\r\n        // require(hasStaked[from] == false, \"Already staked\");\r\n        // return _stake(from, amount, _tier);\r\n    }\r\n\r\n    function withdraw(tier _tier)\r\n        public\r\n        //_realAddress(msg.sender)\r\n        _staked(msg.sender, uint8(_tier))\r\n        returns (bool)\r\n    {\r\n        uint8 test = uint8(_tier);\r\n        address from = msg.sender;\r\n        // require(\r\n        //     block.timestamp >= (deposits[from].depositTime).add(60), //(30 * 24 * 3600),\r\n        //     \"Requesting before lock time\"\r\n        // );\r\n        require(deposits[from][test].paid == false, \"Already paid out\");\r\n        uint256 amount = deposits[from][test].depositAmount;\r\n\r\n        if (_tier == tier.ROOKIE) {\r\n            require(\r\n                block.timestamp >= (deposits[from][test].depositTime).add(60), //(30 * 24 * 3600),\r\n                \"Requesting before lock time\"\r\n            );\r\n            return _withdrawAfterClose(from, amount, test, 58);\r\n        } else if (_tier == tier.PROFESSIONAL) {\r\n            require(\r\n                block.timestamp >= (deposits[from][test].depositTime).add(60), //(90 * 24 * 3600),\r\n                \"Requesting before lock time\"\r\n            );\r\n            return _withdrawAfterClose(from, amount, test, 271);\r\n        } else if (_tier == tier.LEGENDARY) {\r\n            require(\r\n                block.timestamp >= (deposits[from][test].depositTime).add(60), //(180 * 24 * 3600),\r\n                \"Requesting before lock time\"\r\n            );\r\n            return _withdrawAfterClose(from, amount, test, 690);\r\n        }\r\n        //return _withdrawAfterClose(from, amount);\r\n    }\r\n\r\n    function _withdrawAfterClose(\r\n        address from,\r\n        uint256 amount,\r\n        uint8 _tier,\r\n        uint256 rate\r\n    )\r\n        private\r\n        returns (\r\n            //_realAddress(from)\r\n            bool\r\n        )\r\n    {\r\n        deposits[from][_tier].paid = true;\r\n\r\n        //uint256 noOfDecimals = 1000000000000000000;\r\n        uint256 num = amount.mul(rate);\r\n        uint256 denom = 10000;\r\n        uint256 reward = num.div(denom);\r\n\r\n        //uint256 reward = ((amount * 58) / (100 * 100 * (1000000000000000000)));\r\n\r\n        uint256 payOut = amount.add(reward);\r\n        stakedBalance = stakedBalance.sub(amount);\r\n        rewardBalance = rewardBalance.sub(reward);\r\n        hasStaked[from][_tier] = false;\r\n        if (_payDirect(from, payOut)) {\r\n            emit PaidOut(tokenAddress, from, amount, reward);\r\n            return true;\r\n        }\r\n        return false;\r\n    }\r\n\r\n    function _stake(\r\n        address staker,\r\n        uint256 amount,\r\n        uint8 tier_\r\n    )\r\n        private\r\n        _positive(amount)\r\n        returns (\r\n            //_hasAllowance(staker, amount)\r\n            bool\r\n        )\r\n    {\r\n        if (!_payMe(staker, amount)) {\r\n            return false;\r\n        }\r\n        //set the staking status to true\r\n        hasStaked[staker][tier_] = true;\r\n        deposits[staker][tier_] = Deposits(\r\n            staker,\r\n            amount,\r\n            block.timestamp,\r\n            tier(tier_),\r\n            false\r\n        );\r\n        emit Staked(tokenAddress, staker, amount);\r\n\r\n        // Transfer is completed\r\n        stakedBalance = stakedBalance.add(amount);\r\n        stakedTotal = stakedTotal.add(amount);\r\n        return true;\r\n    }\r\n\r\n    function _payMe(address payer, uint256 amount) private returns (bool) {\r\n        return _payTo(payer, address(this), amount);\r\n    }\r\n\r\n    function _payTo(\r\n        address allower,\r\n        address receiver,\r\n        uint256 amount\r\n    )\r\n        private\r\n        returns (\r\n            //_hasAllowance(allower, amount)\r\n            bool\r\n        )\r\n    {\r\n        // Request to transfer amount from the contract to receiver.\r\n        // contract does not own the funds, so the allower must have added allowance to the contract\r\n        // Allower is the original owner.\r\n        ERC20Interface = IERC20(tokenAddress);\r\n        return ERC20Interface.transferFrom(allower, receiver, amount);\r\n    }\r\n\r\n    function _payDirect(address to, uint256 amount)\r\n        private\r\n        _positive(amount)\r\n        returns (bool)\r\n    {\r\n        ERC20Interface = IERC20(tokenAddress);\r\n        return ERC20Interface.transfer(to, amount);\r\n    }\r\n\r\n    // modifier _realAddress(address addr) {\r\n    //     require(addr != address(0), \"Zero address\");\r\n    //     _;\r\n    // }\r\n\r\n    modifier _positive(uint256 amount) {\r\n        require(amount >= 0, \"Negative amount\");\r\n        _;\r\n    }\r\n\r\n    // modifier _hasAllowance(address allower, uint256 amount) {\r\n    //     // Make sure the allower has provided the right allowance.\r\n    //     ERC20Interface = IERC20(tokenAddress);\r\n    //     uint256 ourAllowance = ERC20Interface.allowance(allower, address(this));\r\n    //     require(amount <= ourAllowance, \"Make sure to add enough allowance\");\r\n    //     _;\r\n    // }\r\n\r\n    modifier _staked(address from, uint8 _tier) {\r\n        //to check the user status\r\n        require(hasStaked[from][_tier] == true, \"No stakes found for user\");\r\n        _;\r\n    }\r\n}\r\n",
  "sourcePath": "C:\\Users\\chait\\OneDrive\\Desktop\\Minddeft\\Projects\\Bonfi\\Testing\\Aragon\\Version1\\contracts\\Staking_v2.sol",
  "compiler": {
    "name": "solc",
    "version": "0.5.16+commit.9c3226ce.Emscripten.clang"
  },
  "schemaVersion": "3.1.0",
  "updatedAt": "2021-01-20T07:10:13.590Z",
  "devdoc": {
    "methods": {}
  },
  "userdoc": {
    "methods": {
      "stake(uint256,uint8)": {
        "notice": "Requirements: - `amount` Amount to be staked"
      }
    }
  }
}