{
  "contractName": "Legendary_v8",
  "abi": [
    {
      "inputs": [
        {
          "internalType": "string",
          "name": "name_",
          "type": "string"
        },
        {
          "internalType": "address",
          "name": "tokenAddress_",
          "type": "address"
        },
        {
          "internalType": "uint64",
          "name": "rate_",
          "type": "uint64"
        },
        {
          "internalType": "uint256",
          "name": "lockDuration_",
          "type": "uint256"
        },
        {
          "internalType": "address",
          "name": "rookieAddress_",
          "type": "address"
        },
        {
          "internalType": "address",
          "name": "professionalAddress_",
          "type": "address"
        }
      ],
      "payable": false,
      "stateMutability": "nonpayable",
      "type": "constructor"
    },
    {
      "anonymous": false,
      "inputs": [
        {
          "indexed": true,
          "internalType": "address",
          "name": "previousOwner",
          "type": "address"
        },
        {
          "indexed": true,
          "internalType": "address",
          "name": "newOwner",
          "type": "address"
        }
      ],
      "name": "OwnershipTransferred",
      "type": "event"
    },
    {
      "anonymous": false,
      "inputs": [
        {
          "indexed": true,
          "internalType": "address",
          "name": "token",
          "type": "address"
        },
        {
          "indexed": true,
          "internalType": "address",
          "name": "staker_",
          "type": "address"
        },
        {
          "indexed": false,
          "internalType": "uint256",
          "name": "amount_",
          "type": "uint256"
        },
        {
          "indexed": false,
          "internalType": "uint256",
          "name": "reward_",
          "type": "uint256"
        }
      ],
      "name": "PaidOut",
      "type": "event"
    },
    {
      "anonymous": false,
      "inputs": [
        {
          "indexed": true,
          "internalType": "address",
          "name": "token",
          "type": "address"
        },
        {
          "indexed": true,
          "internalType": "address",
          "name": "staker_",
          "type": "address"
        },
        {
          "indexed": false,
          "internalType": "uint256",
          "name": "stakedAmount_",
          "type": "uint256"
        }
      ],
      "name": "Staked",
      "type": "event"
    },
    {
      "constant": true,
      "inputs": [],
      "name": "ERC20Interface",
      "outputs": [
        {
          "internalType": "contract IERC20",
          "name": "",
          "type": "address"
        }
      ],
      "payable": false,
      "stateMutability": "view",
      "type": "function"
    },
    {
      "constant": true,
      "inputs": [],
      "name": "ProfessionalInstance",
      "outputs": [
        {
          "internalType": "contract IRookieProfessionalCheck",
          "name": "",
          "type": "address"
        }
      ],
      "payable": false,
      "stateMutability": "view",
      "type": "function"
    },
    {
      "constant": true,
      "inputs": [],
      "name": "RookieInstance",
      "outputs": [
        {
          "internalType": "contract IRookieProfessionalCheck",
          "name": "",
          "type": "address"
        }
      ],
      "payable": false,
      "stateMutability": "view",
      "type": "function"
    },
    {
      "constant": true,
      "inputs": [],
      "name": "eligibilityAmount",
      "outputs": [
        {
          "internalType": "uint256",
          "name": "",
          "type": "uint256"
        }
      ],
      "payable": false,
      "stateMutability": "view",
      "type": "function"
    },
    {
      "constant": true,
      "inputs": [],
      "name": "index",
      "outputs": [
        {
          "internalType": "uint64",
          "name": "",
          "type": "uint64"
        }
      ],
      "payable": false,
      "stateMutability": "view",
      "type": "function"
    },
    {
      "constant": true,
      "inputs": [],
      "name": "isOwner",
      "outputs": [
        {
          "internalType": "bool",
          "name": "",
          "type": "bool"
        }
      ],
      "payable": false,
      "stateMutability": "view",
      "type": "function"
    },
    {
      "constant": true,
      "inputs": [],
      "name": "lockDuration",
      "outputs": [
        {
          "internalType": "uint256",
          "name": "",
          "type": "uint256"
        }
      ],
      "payable": false,
      "stateMutability": "view",
      "type": "function"
    },
    {
      "constant": true,
      "inputs": [],
      "name": "name",
      "outputs": [
        {
          "internalType": "string",
          "name": "",
          "type": "string"
        }
      ],
      "payable": false,
      "stateMutability": "view",
      "type": "function"
    },
    {
      "constant": true,
      "inputs": [],
      "name": "owner",
      "outputs": [
        {
          "internalType": "address",
          "name": "",
          "type": "address"
        }
      ],
      "payable": false,
      "stateMutability": "view",
      "type": "function"
    },
    {
      "constant": true,
      "inputs": [],
      "name": "professionalAddress",
      "outputs": [
        {
          "internalType": "address",
          "name": "",
          "type": "address"
        }
      ],
      "payable": false,
      "stateMutability": "view",
      "type": "function"
    },
    {
      "constant": true,
      "inputs": [],
      "name": "rate",
      "outputs": [
        {
          "internalType": "uint64",
          "name": "",
          "type": "uint64"
        }
      ],
      "payable": false,
      "stateMutability": "view",
      "type": "function"
    },
    {
      "constant": true,
      "inputs": [
        {
          "internalType": "uint64",
          "name": "",
          "type": "uint64"
        }
      ],
      "name": "rates",
      "outputs": [
        {
          "internalType": "uint64",
          "name": "newInterestRate",
          "type": "uint64"
        },
        {
          "internalType": "uint256",
          "name": "timeStamp",
          "type": "uint256"
        }
      ],
      "payable": false,
      "stateMutability": "view",
      "type": "function"
    },
    {
      "constant": false,
      "inputs": [],
      "name": "renounceOwnership",
      "outputs": [],
      "payable": false,
      "stateMutability": "nonpayable",
      "type": "function"
    },
    {
      "constant": true,
      "inputs": [],
      "name": "rewardBalance",
      "outputs": [
        {
          "internalType": "uint256",
          "name": "",
          "type": "uint256"
        }
      ],
      "payable": false,
      "stateMutability": "view",
      "type": "function"
    },
    {
      "constant": true,
      "inputs": [],
      "name": "rookieAddress",
      "outputs": [
        {
          "internalType": "address",
          "name": "",
          "type": "address"
        }
      ],
      "payable": false,
      "stateMutability": "view",
      "type": "function"
    },
    {
      "constant": true,
      "inputs": [],
      "name": "stakedBalance",
      "outputs": [
        {
          "internalType": "uint256",
          "name": "",
          "type": "uint256"
        }
      ],
      "payable": false,
      "stateMutability": "view",
      "type": "function"
    },
    {
      "constant": true,
      "inputs": [],
      "name": "stakedTotal",
      "outputs": [
        {
          "internalType": "uint256",
          "name": "",
          "type": "uint256"
        }
      ],
      "payable": false,
      "stateMutability": "view",
      "type": "function"
    },
    {
      "constant": true,
      "inputs": [],
      "name": "tokenAddress",
      "outputs": [
        {
          "internalType": "address",
          "name": "",
          "type": "address"
        }
      ],
      "payable": false,
      "stateMutability": "view",
      "type": "function"
    },
    {
      "constant": true,
      "inputs": [],
      "name": "totalReward",
      "outputs": [
        {
          "internalType": "uint256",
          "name": "",
          "type": "uint256"
        }
      ],
      "payable": false,
      "stateMutability": "view",
      "type": "function"
    },
    {
      "constant": false,
      "inputs": [
        {
          "internalType": "address",
          "name": "newOwner",
          "type": "address"
        }
      ],
      "name": "transferOwnership",
      "outputs": [],
      "payable": false,
      "stateMutability": "nonpayable",
      "type": "function"
    },
    {
      "constant": false,
      "inputs": [
        {
          "internalType": "uint64",
          "name": "rate_",
          "type": "uint64"
        }
      ],
      "name": "setRate",
      "outputs": [],
      "payable": false,
      "stateMutability": "nonpayable",
      "type": "function"
    },
    {
      "constant": false,
      "inputs": [
        {
          "internalType": "uint256",
          "name": "lockduration_",
          "type": "uint256"
        }
      ],
      "name": "changeLockDuration",
      "outputs": [],
      "payable": false,
      "stateMutability": "nonpayable",
      "type": "function"
    },
    {
      "constant": true,
      "inputs": [
        {
          "internalType": "address",
          "name": "user_",
          "type": "address"
        }
      ],
      "name": "eligibility",
      "outputs": [
        {
          "internalType": "bool",
          "name": "",
          "type": "bool"
        }
      ],
      "payable": false,
      "stateMutability": "view",
      "type": "function"
    },
    {
      "constant": false,
      "inputs": [
        {
          "internalType": "uint256",
          "name": "eligibilityAmount_",
          "type": "uint256"
        }
      ],
      "name": "setEligibilityAmount",
      "outputs": [],
      "payable": false,
      "stateMutability": "nonpayable",
      "type": "function"
    },
    {
      "constant": false,
      "inputs": [
        {
          "internalType": "uint256",
          "name": "rewardAmount",
          "type": "uint256"
        }
      ],
      "name": "addReward",
      "outputs": [
        {
          "internalType": "bool",
          "name": "",
          "type": "bool"
        }
      ],
      "payable": false,
      "stateMutability": "nonpayable",
      "type": "function"
    },
    {
      "constant": true,
      "inputs": [
        {
          "internalType": "address",
          "name": "user",
          "type": "address"
        }
      ],
      "name": "userDeposits",
      "outputs": [
        {
          "internalType": "uint256",
          "name": "",
          "type": "uint256"
        },
        {
          "internalType": "uint256",
          "name": "",
          "type": "uint256"
        },
        {
          "internalType": "uint256",
          "name": "",
          "type": "uint256"
        },
        {
          "internalType": "uint256",
          "name": "",
          "type": "uint256"
        },
        {
          "internalType": "bool",
          "name": "",
          "type": "bool"
        }
      ],
      "payable": false,
      "stateMutability": "view",
      "type": "function"
    },
    {
      "constant": false,
      "inputs": [
        {
          "internalType": "uint256",
          "name": "amount",
          "type": "uint256"
        }
      ],
      "name": "stake",
      "outputs": [
        {
          "internalType": "bool",
          "name": "",
          "type": "bool"
        }
      ],
      "payable": false,
      "stateMutability": "nonpayable",
      "type": "function"
    },
    {
      "constant": false,
      "inputs": [],
      "name": "withdraw",
      "outputs": [
        {
          "internalType": "bool",
          "name": "",
          "type": "bool"
        }
      ],
      "payable": false,
      "stateMutability": "nonpayable",
      "type": "function"
    },
    {
      "constant": false,
      "inputs": [],
      "name": "emergencyWithdraw",
      "outputs": [
        {
          "internalType": "bool",
          "name": "",
          "type": "bool"
        }
      ],
      "payable": false,
      "stateMutability": "nonpayable",
      "type": "function"
    },
    {
      "constant": true,
      "inputs": [
        {
          "internalType": "address",
          "name": "from",
          "type": "address"
        }
      ],
      "name": "calculate",
      "outputs": [
        {
          "internalType": "uint256",
          "name": "",
          "type": "uint256"
        }
      ],
      "payable": false,
      "stateMutability": "view",
      "type": "function"
    }
  ],
  "bytecode": "0x60806040523480156200001157600080fd5b5060405162003bf738038062003bf7833981810160405260c08110156200003757600080fd5b81019080805160405193929190846401000000008211156200005857600080fd5b838201915060208201858111156200006f57600080fd5b82518660018202830111640100000000821117156200008d57600080fd5b8083526020830192505050908051906020019080838360005b83811015620000c3578082015181840152602081019050620000a6565b50505050905090810190601f168015620000f15780820380516001836020036101000a031916815260200191505b5060405260200180519060200190929190805190602001909291908051906020019092919080519060200190929190805190602001909291905050506200013d6200062c60201b60201c565b6000806101000a81548173ffffffffffffffffffffffffffffffffffffffff021916908373ffffffffffffffffffffffffffffffffffffffff1602179055506000809054906101000a900473ffffffffffffffffffffffffffffffffffffffff1673ffffffffffffffffffffffffffffffffffffffff16600073ffffffffffffffffffffffffffffffffffffffff167f8be0079c531659141344cd1fd0a4f28419497f9722a3daafe3b4186f6b6457e060405160405180910390a385600c90805190602001906200021092919062000634565b50600073ffffffffffffffffffffffffffffffffffffffff168573ffffffffffffffffffffffffffffffffffffffff161415620002b5576040517f08c379a00000000000000000000000000000000000000000000000000000000081526004018080602001828103825260128152602001807f5a65726f20746f6b656e2061646472657373000000000000000000000000000081525060200191505060405180910390fd5b84600460006101000a81548173ffffffffffffffffffffffffffffffffffffffff021916908373ffffffffffffffffffffffffffffffffffffffff16021790555082600a8190555060008467ffffffffffffffff1614156200037f576040517f08c379a00000000000000000000000000000000000000000000000000000000081526004018080602001828103825260128152602001807f5a65726f20696e7465726573742072617465000000000000000000000000000081525060200191505060405180910390fd5b83600960086101000a81548167ffffffffffffffff021916908367ffffffffffffffff1602179055506040518060400160405280600960089054906101000a900467ffffffffffffffff1667ffffffffffffffff1681526020014281525060026000600960009054906101000a900467ffffffffffffffff1667ffffffffffffffff1667ffffffffffffffff16815260200190815260200160002060008201518160000160006101000a81548167ffffffffffffffff021916908367ffffffffffffffff16021790555060208201518160010155905050600073ffffffffffffffffffffffffffffffffffffffff168273ffffffffffffffffffffffffffffffffffffffff161415620004fa576040517f08c379a00000000000000000000000000000000000000000000000000000000081526004018080602001828103825260138152602001807f5a65726f20526f6f6b696520416464726573730000000000000000000000000081525060200191505060405180910390fd5b81600d60006101000a81548173ffffffffffffffffffffffffffffffffffffffff021916908373ffffffffffffffffffffffffffffffffffffffff160217905550600073ffffffffffffffffffffffffffffffffffffffff168173ffffffffffffffffffffffffffffffffffffffff161415620005df576040517f08c379a00000000000000000000000000000000000000000000000000000000081526004018080602001828103825260198152602001807f5a65726f2050726f66657373696f6e616c20416464726573730000000000000081525060200191505060405180910390fd5b80600e60006101000a81548173ffffffffffffffffffffffffffffffffffffffff021916908373ffffffffffffffffffffffffffffffffffffffff160217905550505050505050620006e3565b600033905090565b828054600181600116156101000203166002900490600052602060002090601f016020900481019282601f106200067757805160ff1916838001178555620006a8565b82800160010185558215620006a8579182015b82811115620006a75782518255916020019190600101906200068a565b5b509050620006b79190620006bb565b5090565b620006e091905b80821115620006dc576000816000905550600101620006c2565b5090565b90565b61350480620006f36000396000f3fe608060405234801561001057600080fd5b50600436106101da5760003560e01c806363c36dec116101045780638da5cb5b116100a2578063aa5c3ab411610071578063aa5c3ab414610845578063d66692a714610863578063db2e21bc14610881578063f2fde38b146108a3576101da565b80638da5cb5b146107495780638f32d59b146107935780639d76ea58146107b5578063a694fc3a146107ff576101da565b8063715d9402116100de578063715d94021461067d57806374de4ec41461069b578063750142e6146106e157806379a5ae4d146106ff576101da565b806363c36dec146105cd5780636ed1d41e14610629578063715018a614610673576101da565b80632986c0e51161017c5780633ccfd60b1161014b5780633ccfd60b146105075780633e4134831461052957806350003ca6146105575780635b9f0016146105af576101da565b80632986c0e5146104215780632c4e722e14610453578063398327e6146104855780633bb616c3146104bd576101da565b80630ba36dcd116101b85780630ba36dcd146102ca5780630f0a3d13146103425780631bbc4b83146103a957806327a59fb8146103f3576101da565b806304554443146101df57806306fdde03146101fd5780630705918214610280575b600080fd5b6101e76108e7565b6040518082815260200191505060405180910390f35b6102056108ed565b6040518080602001828103825283818151815260200191508051906020019080838360005b8381101561024557808201518184015260208101905061022a565b50505050905090810190601f1680156102725780820380516001836020036101000a031916815260200191505b509250505060405180910390f35b61028861098b565b604051808273ffffffffffffffffffffffffffffffffffffffff1673ffffffffffffffffffffffffffffffffffffffff16815260200191505060405180910390f35b61030c600480360360208110156102e057600080fd5b81019080803573ffffffffffffffffffffffffffffffffffffffff1690602001909291905050506109b1565b60405180868152602001858152602001848152602001838152602001821515151581526020019550505050505060405180910390f35b6103786004803603602081101561035857600080fd5b81019080803567ffffffffffffffff169060200190929190505050610ba1565b604051808367ffffffffffffffff1667ffffffffffffffff1681526020018281526020019250505060405180910390f35b6103b1610bd9565b604051808273ffffffffffffffffffffffffffffffffffffffff1673ffffffffffffffffffffffffffffffffffffffff16815260200191505060405180910390f35b61041f6004803603602081101561040957600080fd5b8101908080359060200190929190505050610bff565b005b610429610c83565b604051808267ffffffffffffffff1667ffffffffffffffff16815260200191505060405180910390f35b61045b610c9d565b604051808267ffffffffffffffff1667ffffffffffffffff16815260200191505060405180910390f35b6104bb6004803603602081101561049b57600080fd5b81019080803567ffffffffffffffff169060200190929190505050610cb7565b005b6104c5610ebd565b604051808273ffffffffffffffffffffffffffffffffffffffff1673ffffffffffffffffffffffffffffffffffffffff16815260200191505060405180910390f35b61050f610ee3565b604051808215151515815260200191505060405180910390f35b6105556004803603602081101561053f57600080fd5b810190808035906020019092919050505061113f565b005b6105996004803603602081101561056d57600080fd5b81019080803573ffffffffffffffffffffffffffffffffffffffff1690602001909291905050506111c3565b6040518082815260200191505060405180910390f35b6105b76111d5565b6040518082815260200191505060405180910390f35b61060f600480360360208110156105e357600080fd5b81019080803573ffffffffffffffffffffffffffffffffffffffff1690602001909291905050506111db565b604051808215151515815260200191505060405180910390f35b610631611234565b604051808273ffffffffffffffffffffffffffffffffffffffff1673ffffffffffffffffffffffffffffffffffffffff16815260200191505060405180910390f35b61067b61125a565b005b610685611393565b6040518082815260200191505060405180910390f35b6106c7600480360360208110156106b157600080fd5b8101908080359060200190929190505050611399565b604051808215151515815260200191505060405180910390f35b6106e9611642565b6040518082815260200191505060405180910390f35b610707611648565b604051808273ffffffffffffffffffffffffffffffffffffffff1673ffffffffffffffffffffffffffffffffffffffff16815260200191505060405180910390f35b61075161166e565b604051808273ffffffffffffffffffffffffffffffffffffffff1673ffffffffffffffffffffffffffffffffffffffff16815260200191505060405180910390f35b61079b611697565b604051808215151515815260200191505060405180910390f35b6107bd6116f5565b604051808273ffffffffffffffffffffffffffffffffffffffff1673ffffffffffffffffffffffffffffffffffffffff16815260200191505060405180910390f35b61082b6004803603602081101561081557600080fd5b810190808035906020019092919050505061171b565b604051808215151515815260200191505060405180910390f35b61084d611d27565b6040518082815260200191505060405180910390f35b61086b611d2d565b6040518082815260200191505060405180910390f35b610889611d33565b604051808215151515815260200191505060405180910390f35b6108e5600480360360208110156108b957600080fd5b81019080803573ffffffffffffffffffffffffffffffffffffffff169060200190929190505050611f8f565b005b600a5481565b600c8054600181600116156101000203166002900480601f0160208091040260200160405190810160405280929190818152602001828054600181600116156101000203166002900480156109835780601f1061095857610100808354040283529160200191610983565b820191906000526020600020905b81548152906001019060200180831161096657829003601f168201915b505050505081565b600d60009054906101000a900473ffffffffffffffffffffffffffffffffffffffff1681565b6000806000806000600360008773ffffffffffffffffffffffffffffffffffffffff1673ffffffffffffffffffffffffffffffffffffffff16815260200190815260200160002060009054906101000a900460ff1615610b9757600160008773ffffffffffffffffffffffffffffffffffffffff1673ffffffffffffffffffffffffffffffffffffffff16815260200190815260200160002060000154600160008873ffffffffffffffffffffffffffffffffffffffff1673ffffffffffffffffffffffffffffffffffffffff16815260200190815260200160002060010154600160008973ffffffffffffffffffffffffffffffffffffffff1673ffffffffffffffffffffffffffffffffffffffff16815260200190815260200160002060020154600160008a73ffffffffffffffffffffffffffffffffffffffff1673ffffffffffffffffffffffffffffffffffffffff16815260200190815260200160002060030160009054906101000a900467ffffffffffffffff16600160008b73ffffffffffffffffffffffffffffffffffffffff1673ffffffffffffffffffffffffffffffffffffffff16815260200190815260200160002060030160089054906101000a900460ff168167ffffffffffffffff16915094509450945094509450610b98565b5b91939590929450565b60026020528060005260406000206000915090508060000160009054906101000a900467ffffffffffffffff16908060010154905082565b600f60009054906101000a900473ffffffffffffffffffffffffffffffffffffffff1681565b610c07611697565b610c79576040517f08c379a00000000000000000000000000000000000000000000000000000000081526004018080602001828103825260208152602001807f4f776e61626c653a2063616c6c6572206973206e6f7420746865206f776e657281525060200191505060405180910390fd5b80600a8190555050565b600960009054906101000a900467ffffffffffffffff1681565b600960089054906101000a900467ffffffffffffffff1681565b610cbf611697565b610d31576040517f08c379a00000000000000000000000000000000000000000000000000000000081526004018080602001828103825260208152602001807f4f776e61626c653a2063616c6c6572206973206e6f7420746865206f776e657281525060200191505060405180910390fd5b60008167ffffffffffffffff161415610db2576040517f08c379a00000000000000000000000000000000000000000000000000000000081526004018080602001828103825260128152602001807f5a65726f20696e7465726573742072617465000000000000000000000000000081525060200191505060405180910390fd5b80600960086101000a81548167ffffffffffffffff021916908367ffffffffffffffff1602179055506009600081819054906101000a900467ffffffffffffffff168092919060010191906101000a81548167ffffffffffffffff021916908367ffffffffffffffff1602179055505060405180604001604052808267ffffffffffffffff1681526020014281525060026000600960009054906101000a900467ffffffffffffffff1667ffffffffffffffff1667ffffffffffffffff16815260200190815260200160002060008201518160000160006101000a81548167ffffffffffffffff021916908367ffffffffffffffff1602179055506020820151816001015590505050565b600e60009054906101000a900473ffffffffffffffffffffffffffffffffffffffff1681565b60008033905060011515600360008373ffffffffffffffffffffffffffffffffffffffff1673ffffffffffffffffffffffffffffffffffffffff16815260200190815260200160002060009054906101000a900460ff16151514610faf576040517f08c379a00000000000000000000000000000000000000000000000000000000081526004018080602001828103825260188152602001807f4e6f207374616b657320666f756e6420666f722075736572000000000000000081525060200191505060405180910390fd5b600160008273ffffffffffffffffffffffffffffffffffffffff1673ffffffffffffffffffffffffffffffffffffffff16815260200190815260200160002060020154421015611067576040517f08c379a000000000000000000000000000000000000000000000000000000000815260040180806020018281038252601b8152602001807f52657175657374696e67206265666f7265206c6f636b2074696d65000000000081525060200191505060405180910390fd5b60001515600160008373ffffffffffffffffffffffffffffffffffffffff1673ffffffffffffffffffffffffffffffffffffffff16815260200190815260200160002060030160089054906101000a900460ff16151514611130576040517f08c379a00000000000000000000000000000000000000000000000000000000081526004018080602001828103825260108152602001807f416c72656164792070616964206f75740000000000000000000000000000000081525060200191505060405180910390fd5b61113981612015565b91505090565b611147611697565b6111b9576040517f08c379a00000000000000000000000000000000000000000000000000000000081526004018080602001828103825260208152602001807f4f776e61626c653a2063616c6c6572206973206e6f7420746865206f776e657281525060200191505060405180910390fd5b80600b8190555050565b60006111ce82612349565b9050919050565b60055481565b6000600160008373ffffffffffffffffffffffffffffffffffffffff1673ffffffffffffffffffffffffffffffffffffffff16815260200190815260200160002060030160099054906101000a900460ff169050919050565b601160009054906101000a900473ffffffffffffffffffffffffffffffffffffffff1681565b611262611697565b6112d4576040517f08c379a00000000000000000000000000000000000000000000000000000000081526004018080602001828103825260208152602001807f4f776e61626c653a2063616c6c6572206973206e6f7420746865206f776e657281525060200191505060405180910390fd5b600073ffffffffffffffffffffffffffffffffffffffff166000809054906101000a900473ffffffffffffffffffffffffffffffffffffffff1673ffffffffffffffffffffffffffffffffffffffff167f8be0079c531659141344cd1fd0a4f28419497f9722a3daafe3b4186f6b6457e060405160405180910390a360008060006101000a81548173ffffffffffffffffffffffffffffffffffffffff021916908373ffffffffffffffffffffffffffffffffffffffff160217905550565b600b5481565b60003382600460009054906101000a900473ffffffffffffffffffffffffffffffffffffffff16600f60006101000a81548173ffffffffffffffffffffffffffffffffffffffff021916908373ffffffffffffffffffffffffffffffffffffffff1602179055506000600f60009054906101000a900473ffffffffffffffffffffffffffffffffffffffff1673ffffffffffffffffffffffffffffffffffffffff1663dd62ed3e84306040518363ffffffff1660e01b8152600401808373ffffffffffffffffffffffffffffffffffffffff1673ffffffffffffffffffffffffffffffffffffffff1681526020018273ffffffffffffffffffffffffffffffffffffffff1673ffffffffffffffffffffffffffffffffffffffff1681526020019250505060206040518083038186803b1580156114d557600080fd5b505afa1580156114e9573d6000803e3d6000fd5b505050506040513d60208110156114ff57600080fd5b810190808051906020019092919050505090508082111561156b576040517f08c379a000000000000000000000000000000000000000000000000000000000815260040180806020018281038252602181526020018061342b6021913960400191505060405180910390fd5b600085116115e1576040517f08c379a00000000000000000000000000000000000000000000000000000000081526004018080602001828103825260178152602001807f526577617264206d75737420626520706f73697469766500000000000000000081525060200191505060405180910390fd5b60003390506115f08187612749565b6115fe57600094505061163a565b6116138660085461275e90919063ffffffff16565b60088190555061162e8660065461275e90919063ffffffff16565b60068190555060019450505b505050919050565b60085481565b601060009054906101000a900473ffffffffffffffffffffffffffffffffffffffff1681565b60008060009054906101000a900473ffffffffffffffffffffffffffffffffffffffff16905090565b60008060009054906101000a900473ffffffffffffffffffffffffffffffffffffffff1673ffffffffffffffffffffffffffffffffffffffff166116d96127e6565b73ffffffffffffffffffffffffffffffffffffffff1614905090565b600460009054906101000a900473ffffffffffffffffffffffffffffffffffffffff1681565b60003382600460009054906101000a900473ffffffffffffffffffffffffffffffffffffffff16600f60006101000a81548173ffffffffffffffffffffffffffffffffffffffff021916908373ffffffffffffffffffffffffffffffffffffffff1602179055506000600f60009054906101000a900473ffffffffffffffffffffffffffffffffffffffff1673ffffffffffffffffffffffffffffffffffffffff1663dd62ed3e84306040518363ffffffff1660e01b8152600401808373ffffffffffffffffffffffffffffffffffffffff1673ffffffffffffffffffffffffffffffffffffffff1681526020018273ffffffffffffffffffffffffffffffffffffffff1673ffffffffffffffffffffffffffffffffffffffff1681526020019250505060206040518083038186803b15801561185757600080fd5b505afa15801561186b573d6000803e3d6000fd5b505050506040513d602081101561188157600080fd5b81019080805190602001909291905050509050808211156118ed576040517f08c379a000000000000000000000000000000000000000000000000000000000815260040180806020018281038252602181526020018061342b6021913960400191505060405180910390fd5b33600d60009054906101000a900473ffffffffffffffffffffffffffffffffffffffff16601060006101000a81548173ffffffffffffffffffffffffffffffffffffffff021916908373ffffffffffffffffffffffffffffffffffffffff160217905550600e60009054906101000a900473ffffffffffffffffffffffffffffffffffffffff16601160006101000a81548173ffffffffffffffffffffffffffffffffffffffff021916908373ffffffffffffffffffffffffffffffffffffffff1602179055506000601060009054906101000a900473ffffffffffffffffffffffffffffffffffffffff1673ffffffffffffffffffffffffffffffffffffffff166363c36dec836040518263ffffffff1660e01b8152600401808273ffffffffffffffffffffffffffffffffffffffff1673ffffffffffffffffffffffffffffffffffffffff16815260200191505060206040518083038186803b158015611a5557600080fd5b505afa158015611a69573d6000803e3d6000fd5b505050506040513d6020811015611a7f57600080fd5b810190808051906020019092919050505090506000601160009054906101000a900473ffffffffffffffffffffffffffffffffffffffff1673ffffffffffffffffffffffffffffffffffffffff166363c36dec846040518263ffffffff1660e01b8152600401808273ffffffffffffffffffffffffffffffffffffffff1673ffffffffffffffffffffffffffffffffffffffff16815260200191505060206040518083038186803b158015611b3357600080fd5b505afa158015611b47573d6000803e3d6000fd5b505050506040513d6020811015611b5d57600080fd5b810190808051906020019092919050505090508180611b795750805b611bce576040517f08c379a000000000000000000000000000000000000000000000000000000000815260040180806020018281038252603d815260200180613472603d913960400191505060405180910390fd5b60008811611c44576040517f08c379a00000000000000000000000000000000000000000000000000000000081526004018080602001828103825260148152602001807f43616e2774207374616b65203020616d6f756e7400000000000000000000000081525060200191505060405180910390fd5b600033905060001515600360008373ffffffffffffffffffffffffffffffffffffffff1673ffffffffffffffffffffffffffffffffffffffff16815260200190815260200160002060009054906101000a900460ff16151514611d0f576040517f08c379a000000000000000000000000000000000000000000000000000000000815260040180806020018281038252600e8152602001807f416c7265616479205374616b656400000000000000000000000000000000000081525060200191505060405180910390fd5b611d19818a6127ee565b975050505050505050919050565b60065481565b60075481565b60008033905060011515600360008373ffffffffffffffffffffffffffffffffffffffff1673ffffffffffffffffffffffffffffffffffffffff16815260200190815260200160002060009054906101000a900460ff16151514611dff576040517f08c379a00000000000000000000000000000000000000000000000000000000081526004018080602001828103825260188152602001807f4e6f207374616b657320666f756e6420666f722075736572000000000000000081525060200191505060405180910390fd5b600160008273ffffffffffffffffffffffffffffffffffffffff1673ffffffffffffffffffffffffffffffffffffffff16815260200190815260200160002060020154421015611eb7576040517f08c379a000000000000000000000000000000000000000000000000000000000815260040180806020018281038252601b8152602001807f52657175657374696e67206265666f7265206c6f636b2074696d65000000000081525060200191505060405180910390fd5b60001515600160008373ffffffffffffffffffffffffffffffffffffffff1673ffffffffffffffffffffffffffffffffffffffff16815260200190815260200160002060030160089054906101000a900460ff16151514611f80576040517f08c379a00000000000000000000000000000000000000000000000000000000081526004018080602001828103825260108152602001807f416c72656164792070616964206f75740000000000000000000000000000000081525060200191505060405180910390fd5b611f8981612a6d565b91505090565b611f97611697565b612009576040517f08c379a00000000000000000000000000000000000000000000000000000000081526004018080602001828103825260208152602001807f4f776e61626c653a2063616c6c6572206973206e6f7420746865206f776e657281525060200191505060405180910390fd5b61201281612c9e565b50565b60008061202183612349565b90506000600160008573ffffffffffffffffffffffffffffffffffffffff1673ffffffffffffffffffffffffffffffffffffffff168152602001908152602001600020600001549050600061207f8284612de290919063ffffffff16565b90506006548111156120f9576040517f08c379a00000000000000000000000000000000000000000000000000000000081526004018080602001828103825260128152602001807f4e6f7420656e6f7567682072657761726473000000000000000000000000000081525060200191505060405180910390fd5b61210e82600554612de290919063ffffffff16565b60058190555061212981600654612de290919063ffffffff16565b60068190555060018060008773ffffffffffffffffffffffffffffffffffffffff1673ffffffffffffffffffffffffffffffffffffffff16815260200190815260200160002060030160086101000a81548160ff0219169083151502179055506000600360008773ffffffffffffffffffffffffffffffffffffffff1673ffffffffffffffffffffffffffffffffffffffff16815260200190815260200160002060006101000a81548160ff021916908315150217905550600160008673ffffffffffffffffffffffffffffffffffffffff1673ffffffffffffffffffffffffffffffffffffffff16815260200190815260200160002060030160099054906101000a900460ff1615612292576000600160008773ffffffffffffffffffffffffffffffffffffffff1673ffffffffffffffffffffffffffffffffffffffff16815260200190815260200160002060030160096101000a81548160ff0219169083151502179055505b61229c8584612e6b565b1561233c578473ffffffffffffffffffffffffffffffffffffffff16600460009054906101000a900473ffffffffffffffffffffffffffffffffffffffff1673ffffffffffffffffffffffffffffffffffffffff167f85ab59351da11b79336de7647172267c33bf533ee87d9d292441c2672177159b8484604051808381526020018281526020019250505060405180910390a360019350505050612344565b600093505050505b919050565b6000600360008373ffffffffffffffffffffffffffffffffffffffff1673ffffffffffffffffffffffffffffffffffffffff16815260200190815260200160002060009054906101000a900460ff166123a55760009050612744565b600080600080600160008773ffffffffffffffffffffffffffffffffffffffff1673ffffffffffffffffffffffffffffffffffffffff16815260200190815260200160002060000154600160008873ffffffffffffffffffffffffffffffffffffffff1673ffffffffffffffffffffffffffffffffffffffff16815260200190815260200160002060010154600160008973ffffffffffffffffffffffffffffffffffffffff1673ffffffffffffffffffffffffffffffffffffffff16815260200190815260200160002060020154600160008a73ffffffffffffffffffffffffffffffffffffffff1673ffffffffffffffffffffffffffffffffffffffff16815260200190815260200160002060030160009054906101000a900467ffffffffffffffff16935093509350935060008060006124eb8686612de290919063ffffffff16565b905060008490505b600960009054906101000a900467ffffffffffffffff1667ffffffffffffffff168167ffffffffffffffff16101561268057600260006001830167ffffffffffffffff1667ffffffffffffffff1681526020019081526020016000206001015486101561255f57612680565b61259f87600260006001850167ffffffffffffffff1667ffffffffffffffff16815260200190815260200160002060010154612de290919063ffffffff16565b93506126346125b961271084612fbc90919063ffffffff16565b61262686612618600260008767ffffffffffffffff1667ffffffffffffffff16815260200190815260200160002060000160009054906101000a900467ffffffffffffffff1667ffffffffffffffff168d612fbc90919063ffffffff16565b612fbc90919063ffffffff16565b61304290919063ffffffff16565b92508288019750600260006001830167ffffffffffffffff1667ffffffffffffffff168152602001908152602001600020600101549650848060010195505080806001019150506124f3565b50848610156127395761269c8686612de290919063ffffffff16565b92506127316126b661271083612fbc90919063ffffffff16565b612723600260008867ffffffffffffffff1667ffffffffffffffff16815260200190815260200160002060000160009054906101000a900467ffffffffffffffff1667ffffffffffffffff166127158b88612fbc90919063ffffffff16565b612fbc90919063ffffffff16565b61304290919063ffffffff16565b915081870196505b869750505050505050505b919050565b60006127568330846130d1565b905092915050565b6000808284019050838110156127dc576040517f08c379a000000000000000000000000000000000000000000000000000000000815260040180806020018281038252601b8152602001807f536166654d6174683a206164646974696f6e206f766572666c6f77000000000081525060200191505060405180910390fd5b8091505092915050565b600033905090565b60006127fa8383612749565b6128075760009050612a67565b6001600360008573ffffffffffffffffffffffffffffffffffffffff1673ffffffffffffffffffffffffffffffffffffffff16815260200190815260200160002060006101000a81548160ff0219169083151502179055506000600b54831061286f57600190505b6040518060c0016040528084815260200142815260200161289b600a544261275e90919063ffffffff16565b8152602001600960009054906101000a900467ffffffffffffffff1667ffffffffffffffff168152602001600015158152602001821515815250600160008673ffffffffffffffffffffffffffffffffffffffff1673ffffffffffffffffffffffffffffffffffffffff16815260200190815260200160002060008201518160000155602082015181600101556040820151816002015560608201518160030160006101000a81548167ffffffffffffffff021916908367ffffffffffffffff16021790555060808201518160030160086101000a81548160ff02191690831515021790555060a08201518160030160096101000a81548160ff0219169083151502179055509050508373ffffffffffffffffffffffffffffffffffffffff16600460009054906101000a900473ffffffffffffffffffffffffffffffffffffffff1673ffffffffffffffffffffffffffffffffffffffff167f5dac0c1b1112564a045ba943c9d50270893e8e826c49be8e7073adc713ab7bd7856040518082815260200191505060405180910390a3612a408360055461275e90919063ffffffff16565b600581905550612a5b8360075461275e90919063ffffffff16565b60078190555060019150505b92915050565b600080600160008473ffffffffffffffffffffffffffffffffffffffff1673ffffffffffffffffffffffffffffffffffffffff168152602001908152602001600020600001549050612aca81600554612de290919063ffffffff16565b60058190555060018060008573ffffffffffffffffffffffffffffffffffffffff1673ffffffffffffffffffffffffffffffffffffffff16815260200190815260200160002060030160086101000a81548160ff0219169083151502179055506000600360008573ffffffffffffffffffffffffffffffffffffffff1673ffffffffffffffffffffffffffffffffffffffff16815260200190815260200160002060006101000a81548160ff0219169083151502179055506000612b8e8483612e6b565b905080612c03576040517f08c379a000000000000000000000000000000000000000000000000000000000815260040180806020018281038252600c8152602001807f4572726f7220706179696e67000000000000000000000000000000000000000081525060200191505060405180910390fd5b8373ffffffffffffffffffffffffffffffffffffffff16600460009054906101000a900473ffffffffffffffffffffffffffffffffffffffff1673ffffffffffffffffffffffffffffffffffffffff167f85ab59351da11b79336de7647172267c33bf533ee87d9d292441c2672177159b846000604051808381526020018281526020019250505060405180910390a3600192505050919050565b600073ffffffffffffffffffffffffffffffffffffffff168173ffffffffffffffffffffffffffffffffffffffff161415612d24576040517f08c379a000000000000000000000000000000000000000000000000000000000815260040180806020018281038252602681526020018061344c6026913960400191505060405180910390fd5b8073ffffffffffffffffffffffffffffffffffffffff166000809054906101000a900473ffffffffffffffffffffffffffffffffffffffff1673ffffffffffffffffffffffffffffffffffffffff167f8be0079c531659141344cd1fd0a4f28419497f9722a3daafe3b4186f6b6457e060405160405180910390a3806000806101000a81548173ffffffffffffffffffffffffffffffffffffffff021916908373ffffffffffffffffffffffffffffffffffffffff16021790555050565b600082821115612e5a576040517f08c379a000000000000000000000000000000000000000000000000000000000815260040180806020018281038252601e8152602001807f536166654d6174683a207375627472616374696f6e206f766572666c6f77000081525060200191505060405180910390fd5b600082840390508091505092915050565b6000600460009054906101000a900473ffffffffffffffffffffffffffffffffffffffff16600f60006101000a81548173ffffffffffffffffffffffffffffffffffffffff021916908373ffffffffffffffffffffffffffffffffffffffff160217905550600f60009054906101000a900473ffffffffffffffffffffffffffffffffffffffff1673ffffffffffffffffffffffffffffffffffffffff1663a9059cbb84846040518363ffffffff1660e01b8152600401808373ffffffffffffffffffffffffffffffffffffffff1673ffffffffffffffffffffffffffffffffffffffff16815260200182815260200192505050602060405180830381600087803b158015612f7957600080fd5b505af1158015612f8d573d6000803e3d6000fd5b505050506040513d6020811015612fa357600080fd5b8101908080519060200190929190505050905092915050565b600080831415612fcf576000905061303c565b6000828402905082848281612fe057fe5b0414613037576040517f08c379a00000000000000000000000000000000000000000000000000000000081526004018080602001828103825260218152602001806134af6021913960400191505060405180910390fd5b809150505b92915050565b60008082116130b9576040517f08c379a000000000000000000000000000000000000000000000000000000000815260040180806020018281038252601a8152602001807f536166654d6174683a206469766973696f6e206279207a65726f00000000000081525060200191505060405180910390fd5b60008284816130c457fe5b0490508091505092915050565b60008382600460009054906101000a900473ffffffffffffffffffffffffffffffffffffffff16600f60006101000a81548173ffffffffffffffffffffffffffffffffffffffff021916908373ffffffffffffffffffffffffffffffffffffffff1602179055506000600f60009054906101000a900473ffffffffffffffffffffffffffffffffffffffff1673ffffffffffffffffffffffffffffffffffffffff1663dd62ed3e84306040518363ffffffff1660e01b8152600401808373ffffffffffffffffffffffffffffffffffffffff1673ffffffffffffffffffffffffffffffffffffffff1681526020018273ffffffffffffffffffffffffffffffffffffffff1673ffffffffffffffffffffffffffffffffffffffff1681526020019250505060206040518083038186803b15801561320d57600080fd5b505afa158015613221573d6000803e3d6000fd5b505050506040513d602081101561323757600080fd5b81019080805190602001909291905050509050808211156132a3576040517f08c379a000000000000000000000000000000000000000000000000000000000815260040180806020018281038252602181526020018061342b6021913960400191505060405180910390fd5b600460009054906101000a900473ffffffffffffffffffffffffffffffffffffffff16600f60006101000a81548173ffffffffffffffffffffffffffffffffffffffff021916908373ffffffffffffffffffffffffffffffffffffffff160217905550600f60009054906101000a900473ffffffffffffffffffffffffffffffffffffffff1673ffffffffffffffffffffffffffffffffffffffff166323b872dd8888886040518463ffffffff1660e01b8152600401808473ffffffffffffffffffffffffffffffffffffffff1673ffffffffffffffffffffffffffffffffffffffff1681526020018373ffffffffffffffffffffffffffffffffffffffff1673ffffffffffffffffffffffffffffffffffffffff1681526020018281526020019350505050602060405180830381600087803b1580156133e357600080fd5b505af11580156133f7573d6000803e3d6000fd5b505050506040513d602081101561340d57600080fd5b81019080805190602001909291905050509350505050939250505056fe4d616b65207375726520746f2061646420656e6f75676820616c6c6f77616e63654f776e61626c653a206e6577206f776e657220697320746865207a65726f20616464726573734e65656420746f20626520656c696769626c6520696e2065697468657220526f6f6b6965206f722050726f66657373696f6e616c20746f207374616b65536166654d6174683a206d756c7469706c69636174696f6e206f766572666c6f77a265627a7a72315820b7f4ddfac5b93234df8e4b34fcf371a473773c71b2f2491665fee70a4c758ccf64736f6c63430005100032",
  "source": "pragma solidity ^0.5.0;\r\n\r\n/**\r\n * @dev Interface of the ERC20 standard as defined in the EIP. Does not include\r\n * the optional functions; to access them see `ERC20Detailed`.\r\n */\r\ninterface IERC20 {\r\n    function totalSupply() external view returns (uint256);\r\n\r\n    function balanceOf(address account) external view returns (uint256);\r\n\r\n    function transfer(address recipient, uint256 amount)\r\n        external\r\n        returns (bool);\r\n\r\n    function allowance(address owner, address spender)\r\n        external\r\n        view\r\n        returns (uint256);\r\n\r\n    function approve(address spender, uint256 amount) external returns (bool);\r\n\r\n    function transferFrom(\r\n        address sender,\r\n        address recipient,\r\n        uint256 amount\r\n    ) external returns (bool);\r\n\r\n    event Transfer(address indexed from, address indexed to, uint256 value);\r\n\r\n    event Approval(\r\n        address indexed owner,\r\n        address indexed spender,\r\n        uint256 value\r\n    );\r\n}\r\n\r\n// File: openzeppelin-solidity/contracts/math/SafeMath.sol\r\n\r\npragma solidity ^0.5.0;\r\n\r\nlibrary SafeMath {\r\n    function add(uint256 a, uint256 b) internal pure returns (uint256) {\r\n        uint256 c = a + b;\r\n        require(c >= a, \"SafeMath: addition overflow\");\r\n\r\n        return c;\r\n    }\r\n\r\n    function sub(uint256 a, uint256 b) internal pure returns (uint256) {\r\n        require(b <= a, \"SafeMath: subtraction overflow\");\r\n        uint256 c = a - b;\r\n\r\n        return c;\r\n    }\r\n\r\n    function mul(uint256 a, uint256 b) internal pure returns (uint256) {\r\n        if (a == 0) {\r\n            return 0;\r\n        }\r\n\r\n        uint256 c = a * b;\r\n        require(c / a == b, \"SafeMath: multiplication overflow\");\r\n\r\n        return c;\r\n    }\r\n\r\n    function div(uint256 a, uint256 b) internal pure returns (uint256) {\r\n        // Solidity only automatically asserts when dividing by 0\r\n        require(b > 0, \"SafeMath: division by zero\");\r\n        uint256 c = a / b;\r\n        // assert(a == b * c + a % b); // There is no case in which this doesn't hold\r\n        return c;\r\n    }\r\n\r\n    function mod(uint256 a, uint256 b) internal pure returns (uint256) {\r\n        require(b != 0, \"SafeMath: modulo by zero\");\r\n        return a % b;\r\n    }\r\n}\r\n\r\npragma solidity ^0.5.0;\r\n\r\ncontract Context {\r\n    // Empty internal constructor, to prevent people from mistakenly deploying\r\n    // an instance of this contract, which should be used via inheritance.\r\n    constructor() internal {}\r\n\r\n    function _msgSender() internal view returns (address payable) {\r\n        return msg.sender;\r\n    }\r\n\r\n    function _msgData() internal view returns (bytes memory) {\r\n        this; // silence state mutability warning without generating bytecode - see https://github.com/ethereum/solidity/issues/2691\r\n        return msg.data;\r\n    }\r\n}\r\n\r\n// File: @openzeppelin/contracts/ownership/Ownable.sol\r\n\r\npragma solidity ^0.5.0;\r\n\r\ncontract Ownable is Context {\r\n    address private _owner;\r\n\r\n    event OwnershipTransferred(\r\n        address indexed previousOwner,\r\n        address indexed newOwner\r\n    );\r\n\r\n    constructor() internal {\r\n        _owner = _msgSender();\r\n        emit OwnershipTransferred(address(0), _owner);\r\n    }\r\n\r\n    function owner() public view returns (address) {\r\n        return _owner;\r\n    }\r\n\r\n    modifier onlyOwner() {\r\n        require(isOwner(), \"Ownable: caller is not the owner\");\r\n        _;\r\n    }\r\n\r\n    function isOwner() public view returns (bool) {\r\n        return _msgSender() == _owner;\r\n    }\r\n\r\n    function renounceOwnership() public onlyOwner {\r\n        emit OwnershipTransferred(_owner, address(0));\r\n        _owner = address(0);\r\n    }\r\n\r\n    function transferOwnership(address newOwner) public onlyOwner {\r\n        _transferOwnership(newOwner);\r\n    }\r\n\r\n    function _transferOwnership(address newOwner) internal {\r\n        require(\r\n            newOwner != address(0),\r\n            \"Ownable: new owner is the zero address\"\r\n        );\r\n        emit OwnershipTransferred(_owner, newOwner);\r\n        _owner = newOwner;\r\n    }\r\n}\r\n\r\ninterface IRookieProfessionalCheck {\r\n    function eligibility(address from) external view returns (bool);\r\n}\r\n\r\npragma solidity ^0.5.0;\r\n\r\ncontract Legendary_v8 is Ownable {\r\n    using SafeMath for uint256;\r\n\r\n    /**\r\n     *  @dev Structs to store user staking data.\r\n     */\r\n    struct Deposits {\r\n        uint256 depositAmount;\r\n        uint256 depositTime;\r\n        uint256 endTime;\r\n        uint64 userIndex;\r\n        bool paid;\r\n        bool eligible;\r\n    }\r\n\r\n    /**\r\n     *  @dev Structs to store interest rate change.\r\n     */\r\n    struct Rates {\r\n        uint64 newInterestRate;\r\n        uint256 timeStamp;\r\n    }\r\n\r\n    mapping(address => Deposits) private deposits;\r\n    mapping(uint64 => Rates) public rates;\r\n    mapping(address => bool) private hasStaked;\r\n\r\n    address public tokenAddress;\r\n    uint256 public stakedBalance;\r\n    uint256 public rewardBalance;\r\n    uint256 public stakedTotal;\r\n    uint256 public totalReward;\r\n    uint64 public index;\r\n    uint64 public rate;\r\n    uint256 public lockDuration;\r\n    uint256 public eligibilityAmount;\r\n    string public name;\r\n    address public rookieAddress;\r\n    address public professionalAddress;\r\n\r\n    IERC20 public ERC20Interface;\r\n    IRookieProfessionalCheck public RookieInstance;\r\n    IRookieProfessionalCheck public ProfessionalInstance;\r\n\r\n    /**\r\n     *  @dev Emitted when user stakes 'stakedAmount' value of tokens\r\n     */\r\n    event Staked(\r\n        address indexed token,\r\n        address indexed staker_,\r\n        uint256 stakedAmount_\r\n    );\r\n\r\n    /**\r\n     *  @dev Emitted when user withdraws his stakings\r\n     */\r\n    event PaidOut(\r\n        address indexed token,\r\n        address indexed staker_,\r\n        uint256 amount_,\r\n        uint256 reward_\r\n    );\r\n\r\n    /**\r\n     *   @param\r\n     *   name_, name of the contract\r\n     *   tokenAddress_, contract address of the token\r\n     *   rate_, rate multiplied by 100\r\n     *   lockduration_, duration in days\r\n     *   rookieAddress_, address of the rookie staking contract\r\n     *   professionalAddress_, address of the professional staking contract\r\n     */\r\n    constructor(\r\n        string memory name_,\r\n        address tokenAddress_,\r\n        uint64 rate_,\r\n        uint256 lockDuration_,\r\n        address rookieAddress_,\r\n        address professionalAddress_\r\n    ) public Ownable() {\r\n        name = name_;\r\n        require(tokenAddress_ != address(0), \"Zero token address\");\r\n        tokenAddress = tokenAddress_;\r\n        lockDuration = lockDuration_;\r\n        require(rate_ != 0, \"Zero interest rate\");\r\n        rate = rate_;\r\n        rates[index] = Rates(rate, block.timestamp);\r\n        require(rookieAddress_ != address(0), \"Zero Rookie Address\");\r\n        rookieAddress = rookieAddress_;\r\n        require(\r\n            professionalAddress_ != address(0),\r\n            \"Zero Professional Address\"\r\n        );\r\n        professionalAddress = professionalAddress_;\r\n    }\r\n\r\n    /**\r\n     *  Requirements:\r\n     *  `rate_` New effective interest rate multiplied by 100\r\n     *  @dev to set interest rates\r\n     */\r\n    function setRate(uint64 rate_) external onlyOwner {\r\n        require(rate_ != 0, \"Zero interest rate\");\r\n        rate = rate_;\r\n        index++;\r\n        rates[index] = Rates(rate_, block.timestamp);\r\n    }\r\n\r\n    /**\r\n     *  Requirements:\r\n     *  `lockduration_` lock days\r\n     *  @dev to set lockDuration\r\n     */\r\n    function changeLockDuration(uint256 lockduration_) external onlyOwner {\r\n        lockDuration = lockduration_;\r\n    }\r\n\r\n    /**\r\n     *  Requirements:\r\n     *  `user_` User wallet address\r\n     *  @dev to view eligibility status of user\r\n     */\r\n    function eligibility(address user_) external view returns (bool) {\r\n        return deposits[user_].eligible;\r\n    }\r\n\r\n    function setEligibilityAmount(\r\n        uint256 eligibilityAmount_ //external\r\n    ) external onlyOwner {\r\n        eligibilityAmount = eligibilityAmount_;\r\n    }\r\n\r\n    /**\r\n     *  Requirements:\r\n     *  `rewardAmount` rewards to be added to the staking contract\r\n     *  @dev to add rewards to the staking contract\r\n     *  once the allowance is given to this contract for 'rewardAmount' by the user\r\n     */\r\n    function addReward(uint256 rewardAmount)\r\n        external\r\n        _hasAllowance(msg.sender, rewardAmount)\r\n        returns (bool)\r\n    {\r\n        require(rewardAmount > 0, \"Reward must be positive\");\r\n        address from = msg.sender;\r\n\r\n        if (!_payMe(from, rewardAmount)) {\r\n            return false;\r\n        }\r\n\r\n        totalReward = totalReward.add(rewardAmount);\r\n        rewardBalance = rewardBalance.add(rewardAmount);\r\n        return true;\r\n    }\r\n\r\n    /**\r\n     *  Requirements:\r\n     *  `user` User wallet address\r\n     *  @dev returns user staking data\r\n     */\r\n    function userDeposits(address user)\r\n        external\r\n        view\r\n        returns (\r\n            uint256,\r\n            uint256,\r\n            uint256,\r\n            uint256,\r\n            bool\r\n        )\r\n    {\r\n        if (hasStaked[user]) {\r\n            return (\r\n                deposits[user].depositAmount,\r\n                deposits[user].depositTime,\r\n                deposits[user].endTime,\r\n                deposits[user].userIndex,\r\n                deposits[user].paid\r\n            );\r\n        }\r\n    }\r\n\r\n    /**\r\n     *  Requirements:\r\n     *  `amount` Amount to be staked\r\n     /**\r\n     *  @dev to stake 'amount' value of tokens \r\n     *  once the user has given allowance to the staking contract\r\n     */\r\n    function stake(uint256 amount)\r\n        external\r\n        _hasAllowance(msg.sender, amount)\r\n        _isEligible(msg.sender)\r\n        returns (bool)\r\n    {\r\n        require(amount > 0, \"Can't stake 0 amount\");\r\n        address from = msg.sender;\r\n        require(hasStaked[from] == false, \"Already Staked\");\r\n        return (_stake(from, amount));\r\n    }\r\n\r\n    function _stake(address from, uint256 amount) private returns (bool) {\r\n        if (!_payMe(from, amount)) {\r\n            return false;\r\n        }\r\n\r\n        hasStaked[from] = true;\r\n        bool stakerEligibility;\r\n        if (amount >= eligibilityAmount) {\r\n            stakerEligibility = true;\r\n        }\r\n\r\n        deposits[from] = Deposits(\r\n            amount,\r\n            block.timestamp,\r\n            block.timestamp.add(lockDuration), //(lockDuration * 24 * 3600)\r\n            index,\r\n            false,\r\n            stakerEligibility\r\n        );\r\n\r\n        emit Staked(tokenAddress, from, amount);\r\n\r\n        stakedBalance = stakedBalance.add(amount);\r\n        stakedTotal = stakedTotal.add(amount);\r\n        return true;\r\n    }\r\n\r\n    /**\r\n     * @dev to withdraw user stakings after the lock period ends.\r\n     */\r\n    function withdraw() external returns (bool) {\r\n        address from = msg.sender;\r\n        require(hasStaked[from] == true, \"No stakes found for user\");\r\n        require(\r\n            block.timestamp >= deposits[from].endTime,\r\n            \"Requesting before lock time\"\r\n        );\r\n        require(deposits[from].paid == false, \"Already paid out\");\r\n        return (_withdraw(from));\r\n    }\r\n\r\n    function _withdraw(address from) private returns (bool) {\r\n        uint256 payOut = _calculate(from);\r\n        uint256 amount = deposits[from].depositAmount;\r\n        uint256 reward = payOut.sub(amount);\r\n        require(reward <= rewardBalance, \"Not enough rewards\");\r\n\r\n        stakedBalance = stakedBalance.sub(amount);\r\n        rewardBalance = rewardBalance.sub(reward);\r\n        deposits[from].paid = true;\r\n        hasStaked[from] = false;\r\n        if (deposits[from].eligible) {\r\n            deposits[from].eligible = false;\r\n        }\r\n\r\n        if (_payDirect(from, payOut)) {\r\n            emit PaidOut(tokenAddress, from, amount, reward);\r\n            return true;\r\n        }\r\n        return false;\r\n    }\r\n\r\n    function emergencyWithdraw() external returns (bool) {\r\n        address from = msg.sender;\r\n        require(hasStaked[from] == true, \"No stakes found for user\");\r\n        require(\r\n            block.timestamp >= deposits[from].endTime,\r\n            \"Requesting before lock time\"\r\n        );\r\n        require(deposits[from].paid == false, \"Already paid out\");\r\n\r\n        return (_emergencyWithdraw(from));\r\n    }\r\n\r\n    function _emergencyWithdraw(address from) private returns (bool) {\r\n        uint256 amount = deposits[from].depositAmount;\r\n        stakedBalance = stakedBalance.sub(amount);\r\n        deposits[from].paid = true;\r\n        hasStaked[from] = false; //Check-Effects-Interactions pattern\r\n\r\n        bool principalPaid = _payDirect(from, amount);\r\n        require(principalPaid, \"Error paying\");\r\n        emit PaidOut(tokenAddress, from, amount, 0);\r\n\r\n        return true;\r\n    }\r\n\r\n    /**\r\n     *  Requirements:\r\n     *  `from` User wallet address\r\n     * @dev to calculate the rewards based on user staked 'amount'\r\n     * 'userIndex' - the index of the interest rate at the time of user stake.\r\n     * 'depositTime' - time of staking\r\n     */\r\n    function calculate(address from) public view returns (uint256) {\r\n        return _calculate(from);\r\n    }\r\n\r\n    function _calculate(address from) private view returns (uint256) {\r\n        if (!hasStaked[from]) return 0;\r\n        (\r\n            uint256 amount,\r\n            uint256 depositTime,\r\n            uint256 endTime,\r\n            uint64 userIndex\r\n        ) =\r\n            (\r\n                deposits[from].depositAmount,\r\n                deposits[from].depositTime,\r\n                deposits[from].endTime,\r\n                deposits[from].userIndex\r\n            );\r\n\r\n        uint256 time;\r\n        uint256 interest;\r\n        uint256 _lockduration = endTime.sub(depositTime);\r\n        for (uint64 i = userIndex; i < index; i++) {\r\n            //loop runs till the latest index/interest rate change\r\n            if (endTime < rates[i + 1].timeStamp) {\r\n                //if the change occurs after the endTime loop breaks\r\n                break;\r\n            } else {\r\n                time = rates[i + 1].timeStamp.sub(depositTime);\r\n                interest = amount.mul(rates[i].newInterestRate).mul(time).div(\r\n                    _lockduration.mul(10000)\r\n                ); //replace with (_lockduration * 10000)\r\n                amount += interest;\r\n                depositTime = rates[i + 1].timeStamp;\r\n                userIndex++;\r\n            }\r\n        }\r\n\r\n        if (depositTime < endTime) {\r\n            //final calculation for the remaining time period\r\n            time = endTime.sub(depositTime);\r\n\r\n            interest = time\r\n                .mul(amount)\r\n                .mul(rates[userIndex].newInterestRate)\r\n                .div(_lockduration.mul(10000)); //replace with (lockduration * 10000)\r\n\r\n            amount += interest;\r\n        }\r\n\r\n        return (amount);\r\n    }\r\n\r\n    function _payMe(address payer, uint256 amount) private returns (bool) {\r\n        return _payTo(payer, address(this), amount);\r\n    }\r\n\r\n    function _payTo(\r\n        address allower,\r\n        address receiver,\r\n        uint256 amount\r\n    ) private _hasAllowance(allower, amount) returns (bool) {\r\n        ERC20Interface = IERC20(tokenAddress);\r\n        return ERC20Interface.transferFrom(allower, receiver, amount);\r\n    }\r\n\r\n    function _payDirect(address to, uint256 amount) private returns (bool) {\r\n        ERC20Interface = IERC20(tokenAddress);\r\n        return ERC20Interface.transfer(to, amount);\r\n    }\r\n\r\n    modifier _hasAllowance(address allower, uint256 amount) {\r\n        // Make sure the allower has provided the right allowance.\r\n        ERC20Interface = IERC20(tokenAddress);\r\n        uint256 ourAllowance = ERC20Interface.allowance(allower, address(this));\r\n        require(amount <= ourAllowance, \"Make sure to add enough allowance\");\r\n        _;\r\n    }\r\n\r\n    /**\r\n     *  modifier to check the status of the user from the rookie\r\n     *  and professional pools before staking here\r\n     */\r\n    modifier _isEligible(address from) {\r\n        RookieInstance = IRookieProfessionalCheck(rookieAddress);\r\n        ProfessionalInstance = IRookieProfessionalCheck(professionalAddress);\r\n        bool RookieEligible = RookieInstance.eligibility(from);\r\n        bool ProfessionalEligible = ProfessionalInstance.eligibility(from);\r\n        require(\r\n            RookieEligible || ProfessionalEligible,\r\n            \"Need to be eligible in either Rookie or Professional to stake\"\r\n        );\r\n        _;\r\n    }\r\n}\r\n",
  "sourcePath": "C:\\Users\\chait\\OneDrive\\Desktop\\Minddeft\\Projects\\Bonfi\\Testing\\Aragon\\Version1\\contracts\\Legendary_v8.sol",
  "compiler": {
    "name": "solc",
    "version": "0.5.16+commit.9c3226ce.Emscripten.clang"
  },
  "schemaVersion": "3.1.0",
  "updatedAt": "2021-03-22T05:26:44.291Z",
  "devdoc": {
    "methods": {
      "addReward(uint256)": {
        "details": "to add rewards to the staking contract once the allowance is given to this contract for 'rewardAmount' by the user"
      },
      "calculate(address)": {
        "details": "to calculate the rewards based on user staked 'amount' 'userIndex' - the index of the interest rate at the time of user stake. 'depositTime' - time of staking"
      },
      "changeLockDuration(uint256)": {
        "details": "to set lockDuration"
      },
      "constructor": {
        "params": {
          "name_": ", name of the contract  tokenAddress_, contract address of the token  rate_, rate multiplied by 100  lockduration_, duration in days  rookieAddress_, address of the rookie staking contract  professionalAddress_, address of the professional staking contract"
        }
      },
      "eligibility(address)": {
        "details": "to view eligibility status of user"
      },
      "setRate(uint64)": {
        "details": "to set interest rates"
      },
      "stake(uint256)": {
        "details": "to stake 'amount' value of tokens  once the user has given allowance to the staking contract"
      },
      "userDeposits(address)": {
        "details": "returns user staking data"
      },
      "withdraw()": {
        "details": "to withdraw user stakings after the lock period ends."
      }
    }
  },
  "userdoc": {
    "methods": {
      "addReward(uint256)": {
        "notice": "Requirements: `rewardAmount` rewards to be added to the staking contract"
      },
      "calculate(address)": {
        "notice": "Requirements: `from` User wallet address"
      },
      "changeLockDuration(uint256)": {
        "notice": "Requirements: `lockduration_` lock days"
      },
      "eligibility(address)": {
        "notice": "Requirements: `user_` User wallet address"
      },
      "setRate(uint64)": {
        "notice": "Requirements: `rate_` New effective interest rate multiplied by 100"
      },
      "stake(uint256)": {
        "notice": "Requirements: `amount` Amount to be staked /**"
      },
      "userDeposits(address)": {
        "notice": "Requirements: `user` User wallet address"
      }
    }
  }
}