{
  "contractName": "Liquidity_v5",
  "abi": [
    {
      "inputs": [
        {
          "internalType": "string",
          "name": "name_",
          "type": "string"
        },
        {
          "internalType": "address",
          "name": "tokenAddress_",
          "type": "address"
        },
        {
          "internalType": "address",
          "name": "rewardTokenAddress_",
          "type": "address"
        },
        {
          "internalType": "uint256",
          "name": "rate_",
          "type": "uint256"
        },
        {
          "internalType": "uint256",
          "name": "lockduration_",
          "type": "uint256"
        }
      ],
      "payable": false,
      "stateMutability": "nonpayable",
      "type": "constructor"
    },
    {
      "anonymous": false,
      "inputs": [
        {
          "indexed": true,
          "internalType": "address",
          "name": "previousOwner",
          "type": "address"
        },
        {
          "indexed": true,
          "internalType": "address",
          "name": "newOwner",
          "type": "address"
        }
      ],
      "name": "OwnershipTransferred",
      "type": "event"
    },
    {
      "anonymous": false,
      "inputs": [
        {
          "indexed": true,
          "internalType": "address",
          "name": "token",
          "type": "address"
        },
        {
          "indexed": true,
          "internalType": "address",
          "name": "rewardToken",
          "type": "address"
        },
        {
          "indexed": true,
          "internalType": "address",
          "name": "staker_",
          "type": "address"
        },
        {
          "indexed": false,
          "internalType": "uint256",
          "name": "amount_",
          "type": "uint256"
        },
        {
          "indexed": false,
          "internalType": "uint256",
          "name": "reward_",
          "type": "uint256"
        }
      ],
      "name": "PaidOut",
      "type": "event"
    },
    {
      "anonymous": false,
      "inputs": [
        {
          "indexed": true,
          "internalType": "address",
          "name": "token",
          "type": "address"
        },
        {
          "indexed": true,
          "internalType": "address",
          "name": "staker_",
          "type": "address"
        },
        {
          "indexed": false,
          "internalType": "uint256",
          "name": "stakedAmount_",
          "type": "uint256"
        }
      ],
      "name": "Staked",
      "type": "event"
    },
    {
      "constant": true,
      "inputs": [],
      "name": "ERC20Interface",
      "outputs": [
        {
          "internalType": "contract IERC20",
          "name": "",
          "type": "address"
        }
      ],
      "payable": false,
      "stateMutability": "view",
      "type": "function"
    },
    {
      "constant": true,
      "inputs": [],
      "name": "index",
      "outputs": [
        {
          "internalType": "uint256",
          "name": "",
          "type": "uint256"
        }
      ],
      "payable": false,
      "stateMutability": "view",
      "type": "function"
    },
    {
      "constant": true,
      "inputs": [],
      "name": "isOwner",
      "outputs": [
        {
          "internalType": "bool",
          "name": "",
          "type": "bool"
        }
      ],
      "payable": false,
      "stateMutability": "view",
      "type": "function"
    },
    {
      "constant": true,
      "inputs": [],
      "name": "lockduration",
      "outputs": [
        {
          "internalType": "uint256",
          "name": "",
          "type": "uint256"
        }
      ],
      "payable": false,
      "stateMutability": "view",
      "type": "function"
    },
    {
      "constant": true,
      "inputs": [],
      "name": "minStakeAmount",
      "outputs": [
        {
          "internalType": "uint256",
          "name": "",
          "type": "uint256"
        }
      ],
      "payable": false,
      "stateMutability": "view",
      "type": "function"
    },
    {
      "constant": true,
      "inputs": [],
      "name": "name",
      "outputs": [
        {
          "internalType": "string",
          "name": "",
          "type": "string"
        }
      ],
      "payable": false,
      "stateMutability": "view",
      "type": "function"
    },
    {
      "constant": true,
      "inputs": [],
      "name": "owner",
      "outputs": [
        {
          "internalType": "address",
          "name": "",
          "type": "address"
        }
      ],
      "payable": false,
      "stateMutability": "view",
      "type": "function"
    },
    {
      "constant": true,
      "inputs": [],
      "name": "rate",
      "outputs": [
        {
          "internalType": "uint256",
          "name": "",
          "type": "uint256"
        }
      ],
      "payable": false,
      "stateMutability": "view",
      "type": "function"
    },
    {
      "constant": true,
      "inputs": [
        {
          "internalType": "uint256",
          "name": "",
          "type": "uint256"
        }
      ],
      "name": "rates",
      "outputs": [
        {
          "internalType": "uint256",
          "name": "newInterestRate",
          "type": "uint256"
        },
        {
          "internalType": "uint256",
          "name": "timeStamp",
          "type": "uint256"
        }
      ],
      "payable": false,
      "stateMutability": "view",
      "type": "function"
    },
    {
      "constant": false,
      "inputs": [],
      "name": "renounceOwnership",
      "outputs": [],
      "payable": false,
      "stateMutability": "nonpayable",
      "type": "function"
    },
    {
      "constant": true,
      "inputs": [],
      "name": "rewardBalance",
      "outputs": [
        {
          "internalType": "uint256",
          "name": "",
          "type": "uint256"
        }
      ],
      "payable": false,
      "stateMutability": "view",
      "type": "function"
    },
    {
      "constant": true,
      "inputs": [],
      "name": "rewardTokenAddress",
      "outputs": [
        {
          "internalType": "address",
          "name": "",
          "type": "address"
        }
      ],
      "payable": false,
      "stateMutability": "view",
      "type": "function"
    },
    {
      "constant": true,
      "inputs": [],
      "name": "stakedBalance",
      "outputs": [
        {
          "internalType": "uint256",
          "name": "",
          "type": "uint256"
        }
      ],
      "payable": false,
      "stateMutability": "view",
      "type": "function"
    },
    {
      "constant": true,
      "inputs": [],
      "name": "stakedTotal",
      "outputs": [
        {
          "internalType": "uint256",
          "name": "",
          "type": "uint256"
        }
      ],
      "payable": false,
      "stateMutability": "view",
      "type": "function"
    },
    {
      "constant": true,
      "inputs": [],
      "name": "tokenAddress",
      "outputs": [
        {
          "internalType": "address",
          "name": "",
          "type": "address"
        }
      ],
      "payable": false,
      "stateMutability": "view",
      "type": "function"
    },
    {
      "constant": true,
      "inputs": [],
      "name": "totalReward",
      "outputs": [
        {
          "internalType": "uint256",
          "name": "",
          "type": "uint256"
        }
      ],
      "payable": false,
      "stateMutability": "view",
      "type": "function"
    },
    {
      "constant": false,
      "inputs": [
        {
          "internalType": "address",
          "name": "newOwner",
          "type": "address"
        }
      ],
      "name": "transferOwnership",
      "outputs": [],
      "payable": false,
      "stateMutability": "nonpayable",
      "type": "function"
    },
    {
      "constant": false,
      "inputs": [
        {
          "internalType": "uint256",
          "name": "amount_",
          "type": "uint256"
        }
      ],
      "name": "setMinStakeAmount",
      "outputs": [],
      "payable": false,
      "stateMutability": "nonpayable",
      "type": "function"
    },
    {
      "constant": false,
      "inputs": [
        {
          "internalType": "uint256",
          "name": "rate_",
          "type": "uint256"
        }
      ],
      "name": "setRate",
      "outputs": [],
      "payable": false,
      "stateMutability": "nonpayable",
      "type": "function"
    },
    {
      "constant": false,
      "inputs": [
        {
          "internalType": "uint256",
          "name": "rewardAmount",
          "type": "uint256"
        }
      ],
      "name": "addReward",
      "outputs": [
        {
          "internalType": "bool",
          "name": "",
          "type": "bool"
        }
      ],
      "payable": false,
      "stateMutability": "nonpayable",
      "type": "function"
    },
    {
      "constant": true,
      "inputs": [],
      "name": "userDeposits",
      "outputs": [
        {
          "internalType": "uint256",
          "name": "",
          "type": "uint256"
        },
        {
          "internalType": "uint256",
          "name": "",
          "type": "uint256"
        },
        {
          "internalType": "uint256",
          "name": "",
          "type": "uint256"
        },
        {
          "internalType": "bool",
          "name": "",
          "type": "bool"
        }
      ],
      "payable": false,
      "stateMutability": "view",
      "type": "function"
    },
    {
      "constant": false,
      "inputs": [
        {
          "internalType": "uint256",
          "name": "amount",
          "type": "uint256"
        }
      ],
      "name": "stake",
      "outputs": [
        {
          "internalType": "bool",
          "name": "",
          "type": "bool"
        }
      ],
      "payable": false,
      "stateMutability": "nonpayable",
      "type": "function"
    },
    {
      "constant": false,
      "inputs": [],
      "name": "withdraw",
      "outputs": [
        {
          "internalType": "bool",
          "name": "",
          "type": "bool"
        }
      ],
      "payable": false,
      "stateMutability": "nonpayable",
      "type": "function"
    },
    {
      "constant": true,
      "inputs": [
        {
          "internalType": "uint256",
          "name": "amount",
          "type": "uint256"
        },
        {
          "internalType": "uint256",
          "name": "userIndex",
          "type": "uint256"
        },
        {
          "internalType": "uint256",
          "name": "depositTime",
          "type": "uint256"
        }
      ],
      "name": "calculate",
      "outputs": [
        {
          "internalType": "uint256",
          "name": "",
          "type": "uint256"
        }
      ],
      "payable": false,
      "stateMutability": "view",
      "type": "function"
    }
  ],
  "bytecode": "0x60806040523480156200001157600080fd5b5060405162002c3f38038062002c3f833981810160405260a08110156200003757600080fd5b81019080805160405193929190846401000000008211156200005857600080fd5b838201915060208201858111156200006f57600080fd5b82518660018202830111640100000000821117156200008d57600080fd5b8083526020830192505050908051906020019080838360005b83811015620000c3578082015181840152602081019050620000a6565b50505050905090810190601f168015620000f15780820380516001836020036101000a031916815260200191505b506040526020018051906020019092919080519060200190929190805190602001909291908051906020019092919050505062000133620004a560201b60201c565b6000806101000a81548173ffffffffffffffffffffffffffffffffffffffff021916908373ffffffffffffffffffffffffffffffffffffffff1602179055506000809054906101000a900473ffffffffffffffffffffffffffffffffffffffff1673ffffffffffffffffffffffffffffffffffffffff16600073ffffffffffffffffffffffffffffffffffffffff167f8be0079c531659141344cd1fd0a4f28419497f9722a3daafe3b4186f6b6457e060405160405180910390a3846004908051906020019062000206929190620004ad565b50600073ffffffffffffffffffffffffffffffffffffffff168473ffffffffffffffffffffffffffffffffffffffff161415620002ab576040517f08c379a00000000000000000000000000000000000000000000000000000000081526004018080602001828103825260188152602001807f546f6b656e20616464726573733a20302061646472657373000000000000000081525060200191505060405180910390fd5b83600560006101000a81548173ffffffffffffffffffffffffffffffffffffffff021916908373ffffffffffffffffffffffffffffffffffffffff160217905550600073ffffffffffffffffffffffffffffffffffffffff168373ffffffffffffffffffffffffffffffffffffffff16141562000390576040517f08c379a00000000000000000000000000000000000000000000000000000000081526004018080602001828103825260188152602001807f546f6b656e20616464726573733a20302061646472657373000000000000000081525060200191505060405180910390fd5b82600660006101000a81548173ffffffffffffffffffffffffffffffffffffffff021916908373ffffffffffffffffffffffffffffffffffffffff160217905550600082141562000449576040517f08c379a00000000000000000000000000000000000000000000000000000000081526004018080602001828103825260128152602001807f5a65726f20696e7465726573742072617465000000000000000000000000000081525060200191505060405180910390fd5b81600c8190555080600d819055506040518060400160405280600c5481526020014281525060036000600e548152602001908152602001600020600082015181600001556020820151816001015590505050505050506200055c565b600033905090565b828054600181600116156101000203166002900490600052602060002090601f016020900481019282601f10620004f057805160ff191683800117855562000521565b8280016001018555821562000521579182015b828111156200052057825182559160200191906001019062000503565b5b50905062000530919062000534565b5090565b6200055991905b80821115620005555760008160009055506001016200053b565b5090565b90565b6126d3806200056c6000396000f3fe608060405234801561001057600080fd5b50600436106101585760003560e01c80638da5cb5b116100c3578063d66692a71161007c578063d66692a7146104fb578063dd418ae214610519578063e97cf88314610562578063eb4af045146105b8578063f1887684146105e6578063f2fde38b1461060457610158565b80638da5cb5b146103aa5780638f32d59b146103f45780639b2a73f5146104165780639d76ea581461044d578063a694fc3a14610497578063aa5c3ab4146104dd57610158565b80633ccfd60b116101155780633ccfd60b146102de5780635b9f001614610300578063715018a61461031e57806374de4ec414610328578063750142e61461036e578063838e01611461038c57610158565b806306fdde031461015d578063125f9e33146101e05780631bbc4b831461022a5780632986c0e5146102745780632c4e722e1461029257806334fcf437146102b0575b600080fd5b610165610648565b6040518080602001828103825283818151815260200191508051906020019080838360005b838110156101a557808201518184015260208101905061018a565b50505050905090810190601f1680156101d25780820380516001836020036101000a031916815260200191505b509250505060405180910390f35b6101e86106e6565b604051808273ffffffffffffffffffffffffffffffffffffffff1673ffffffffffffffffffffffffffffffffffffffff16815260200191505060405180910390f35b61023261070c565b604051808273ffffffffffffffffffffffffffffffffffffffff1673ffffffffffffffffffffffffffffffffffffffff16815260200191505060405180910390f35b61027c610732565b6040518082815260200191505060405180910390f35b61029a610738565b6040518082815260200191505060405180910390f35b6102dc600480360360208110156102c657600080fd5b810190808035906020019092919050505061073e565b005b6102e661088c565b604051808215151515815260200191505060405180910390f35b610308610bd9565b6040518082815260200191505060405180910390f35b610326610bdf565b005b6103546004803603602081101561033e57600080fd5b8101908080359060200190929190505050610d18565b604051808215151515815260200191505060405180910390f35b610376610fe6565b6040518082815260200191505060405180910390f35b610394610fec565b6040518082815260200191505060405180910390f35b6103b2610ff2565b604051808273ffffffffffffffffffffffffffffffffffffffff1673ffffffffffffffffffffffffffffffffffffffff16815260200191505060405180910390f35b6103fc61101b565b604051808215151515815260200191505060405180910390f35b61041e611079565b604051808581526020018481526020018381526020018215151515815260200194505050505060405180910390f35b610455611274565b604051808273ffffffffffffffffffffffffffffffffffffffff1673ffffffffffffffffffffffffffffffffffffffff16815260200191505060405180910390f35b6104c3600480360360208110156104ad57600080fd5b810190808035906020019092919050505061129a565b604051808215151515815260200191505060405180910390f35b6104e56113f3565b6040518082815260200191505060405180910390f35b6105036113f9565b6040518082815260200191505060405180910390f35b6105456004803603602081101561052f57600080fd5b81019080803590602001909291905050506113ff565b604051808381526020018281526020019250505060405180910390f35b6105a26004803603606081101561057857600080fd5b81019080803590602001909291908035906020019092919080359060200190929190505050611423565b6040518082815260200191505060405180910390f35b6105e4600480360360208110156105ce57600080fd5b8101908080359060200190929190505050611439565b005b6105ee6114bd565b6040518082815260200191505060405180910390f35b6106466004803603602081101561061a57600080fd5b81019080803573ffffffffffffffffffffffffffffffffffffffff1690602001909291905050506114c3565b005b60048054600181600116156101000203166002900480601f0160208091040260200160405190810160405280929190818152602001828054600181600116156101000203166002900480156106de5780601f106106b3576101008083540402835291602001916106de565b820191906000526020600020905b8154815290600101906020018083116106c157829003601f168201915b505050505081565b600660009054906101000a900473ffffffffffffffffffffffffffffffffffffffff1681565b600f60009054906101000a900473ffffffffffffffffffffffffffffffffffffffff1681565b600e5481565b600c5481565b61074661101b565b6107b8576040517f08c379a00000000000000000000000000000000000000000000000000000000081526004018080602001828103825260208152602001807f4f776e61626c653a2063616c6c6572206973206e6f7420746865206f776e657281525060200191505060405180910390fd5b600081141561082f576040517f08c379a00000000000000000000000000000000000000000000000000000000081526004018080602001828103825260128152602001807f5a65726f20696e7465726573742072617465000000000000000000000000000081525060200191505060405180910390fd5b600e6000815480929190600101919050555060405180604001604052808281526020014281525060036000600e548152602001908152602001600020600082015181600001556020820151816001015590505080600c8190555050565b60003360011515600160008373ffffffffffffffffffffffffffffffffffffffff1673ffffffffffffffffffffffffffffffffffffffff16815260200190815260200160002060009054906101000a900460ff16151514610955576040517f08c379a00000000000000000000000000000000000000000000000000000000081526004018080602001828103825260188152602001807f4e6f207374616b657320666f756e6420666f722075736572000000000000000081525060200191505060405180910390fd5b60003390506109b0603c600260008473ffffffffffffffffffffffffffffffffffffffff1673ffffffffffffffffffffffffffffffffffffffff1681526020019081526020016000206002015461154990919063ffffffff16565b421015610a25576040517f08c379a000000000000000000000000000000000000000000000000000000000815260040180806020018281038252601b8152602001807f52657175657374696e67206265666f7265206c6f636b2074696d65000000000081525060200191505060405180910390fd5b60001515600260008373ffffffffffffffffffffffffffffffffffffffff1673ffffffffffffffffffffffffffffffffffffffff16815260200190815260200160002060040160009054906101000a900460ff16151514610aee576040517f08c379a00000000000000000000000000000000000000000000000000000000081526004018080602001828103825260108152602001807f416c72656164792070616964206f75740000000000000000000000000000000081525060200191505060405180910390fd5b6000600260008373ffffffffffffffffffffffffffffffffffffffff1673ffffffffffffffffffffffffffffffffffffffff1681526020019081526020016000206001015490506000600260008473ffffffffffffffffffffffffffffffffffffffff1673ffffffffffffffffffffffffffffffffffffffff1681526020019081526020016000206003015490506000600260008573ffffffffffffffffffffffffffffffffffffffff1673ffffffffffffffffffffffffffffffffffffffff168152602001908152602001600020600201549050610bcf848484846115d1565b9550505050505090565b600a5481565b610be761101b565b610c59576040517f08c379a00000000000000000000000000000000000000000000000000000000081526004018080602001828103825260208152602001807f4f776e61626c653a2063616c6c6572206973206e6f7420746865206f776e657281525060200191505060405180910390fd5b600073ffffffffffffffffffffffffffffffffffffffff166000809054906101000a900473ffffffffffffffffffffffffffffffffffffffff1673ffffffffffffffffffffffffffffffffffffffff167f8be0079c531659141344cd1fd0a4f28419497f9722a3daafe3b4186f6b6457e060405160405180910390a360008060006101000a81548173ffffffffffffffffffffffffffffffffffffffff021916908373ffffffffffffffffffffffffffffffffffffffff160217905550565b60003382600660009054906101000a900473ffffffffffffffffffffffffffffffffffffffff1680600f60006101000a81548173ffffffffffffffffffffffffffffffffffffffff021916908373ffffffffffffffffffffffffffffffffffffffff1602179055506000600f60009054906101000a900473ffffffffffffffffffffffffffffffffffffffff1673ffffffffffffffffffffffffffffffffffffffff1663dd62ed3e85306040518363ffffffff1660e01b8152600401808373ffffffffffffffffffffffffffffffffffffffff1673ffffffffffffffffffffffffffffffffffffffff1681526020018273ffffffffffffffffffffffffffffffffffffffff1673ffffffffffffffffffffffffffffffffffffffff1681526020019250505060206040518083038186803b158015610e5557600080fd5b505afa158015610e69573d6000803e3d6000fd5b505050506040513d6020811015610e7f57600080fd5b8101908080519060200190929190505050905080831115610eeb576040517f08c379a00000000000000000000000000000000000000000000000000000000081526004018080602001828103825260218152602001806126376021913960400191505060405180910390fd5b60008611610f61576040517f08c379a00000000000000000000000000000000000000000000000000000000081526004018080602001828103825260178152602001807f526577617264206d75737420626520706f73697469766500000000000000000081525060200191505060405180910390fd5b6000339050610f938188600660009054906101000a900473ffffffffffffffffffffffffffffffffffffffff1661190f565b610fa1576000955050610fdd565b610fb68760085461154990919063ffffffff16565b600881905550610fd18760095461154990919063ffffffff16565b60098190555060019550505b50505050919050565b60085481565b600d5481565b60008060009054906101000a900473ffffffffffffffffffffffffffffffffffffffff16905090565b60008060009054906101000a900473ffffffffffffffffffffffffffffffffffffffff1673ffffffffffffffffffffffffffffffffffffffff1661105d611926565b73ffffffffffffffffffffffffffffffffffffffff1614905090565b6000806000803360011515600160008373ffffffffffffffffffffffffffffffffffffffff1673ffffffffffffffffffffffffffffffffffffffff16815260200190815260200160002060009054906101000a900460ff16151514611146576040517f08c379a00000000000000000000000000000000000000000000000000000000081526004018080602001828103825260188152602001807f4e6f207374616b657320666f756e6420666f722075736572000000000000000081525060200191505060405180910390fd5b6000339050600260008273ffffffffffffffffffffffffffffffffffffffff1673ffffffffffffffffffffffffffffffffffffffff16815260200190815260200160002060010154600260008373ffffffffffffffffffffffffffffffffffffffff1673ffffffffffffffffffffffffffffffffffffffff16815260200190815260200160002060020154600260008473ffffffffffffffffffffffffffffffffffffffff1673ffffffffffffffffffffffffffffffffffffffff16815260200190815260200160002060030154600260008573ffffffffffffffffffffffffffffffffffffffff1673ffffffffffffffffffffffffffffffffffffffff16815260200190815260200160002060040160009054906101000a900460ff169550955095509550505090919293565b600560009054906101000a900473ffffffffffffffffffffffffffffffffffffffff1681565b600081600b54811015611315576040517f08c379a000000000000000000000000000000000000000000000000000000000815260040180806020018281038252601a8152602001807f4c657373207468616e206d696e207374616b6520616d6f756e7400000000000081525060200191505060405180910390fd5b600033905060001515600160008373ffffffffffffffffffffffffffffffffffffffff1673ffffffffffffffffffffffffffffffffffffffff16815260200190815260200160002060009054906101000a900460ff161515146113e0576040517f08c379a000000000000000000000000000000000000000000000000000000000815260040180806020018281038252600e8152602001807f416c7265616479207374616b656400000000000000000000000000000000000081525060200191505060405180910390fd5b6113ea818561192e565b92505050919050565b60095481565b60075481565b60036020528060005260406000206000915090508060000154908060010154905082565b6000611430848484611d67565b90509392505050565b61144161101b565b6114b3576040517f08c379a00000000000000000000000000000000000000000000000000000000081526004018080602001828103825260208152602001807f4f776e61626c653a2063616c6c6572206973206e6f7420746865206f776e657281525060200191505060405180910390fd5b80600b8190555050565b600b5481565b6114cb61101b565b61153d576040517f08c379a00000000000000000000000000000000000000000000000000000000081526004018080602001828103825260208152602001807f4f776e61626c653a2063616c6c6572206973206e6f7420746865206f776e657281525060200191505060405180910390fd5b61154681611f0c565b50565b6000808284019050838110156115c7576040517f08c379a000000000000000000000000000000000000000000000000000000000815260040180806020018281038252601b8152602001807f536166654d6174683a206164646974696f6e206f766572666c6f77000000000081525060200191505060405180910390fd5b8091505092915050565b6000806115df858585611423565b905060006115f6868361205090919063ffffffff16565b9050600954811115611670576040517f08c379a00000000000000000000000000000000000000000000000000000000081526004018080602001828103825260128152602001807f4e6f7420656e6f7567682072657761726473000000000000000000000000000081525060200191505060405180910390fd5b600061169f8888600560009054906101000a900473ffffffffffffffffffffffffffffffffffffffff166120d9565b905060006116d08984600660009054906101000a900473ffffffffffffffffffffffffffffffffffffffff166120d9565b90508180156116dc5750805b61174e576040517f08c379a000000000000000000000000000000000000000000000000000000000815260040180806020018281038252600c8152602001807f4572726f7220706179696e67000000000000000000000000000000000000000081525060200191505060405180910390fd5b6001600260008b73ffffffffffffffffffffffffffffffffffffffff1673ffffffffffffffffffffffffffffffffffffffff16815260200190815260200160002060040160006101000a81548160ff0219169083151502179055508873ffffffffffffffffffffffffffffffffffffffff16600660009054906101000a900473ffffffffffffffffffffffffffffffffffffffff1673ffffffffffffffffffffffffffffffffffffffff16600560009054906101000a900473ffffffffffffffffffffffffffffffffffffffff1673ffffffffffffffffffffffffffffffffffffffff167f0fd12da3890315fa38b862dc2fff7f24c95981f6508cc2be090640de791b671e8b87604051808381526020018281526020019250505060405180910390a461188688600a5461205090919063ffffffff16565b600a819055506118a18360095461205090919063ffffffff16565b6009819055506000600160008b73ffffffffffffffffffffffffffffffffffffffff1673ffffffffffffffffffffffffffffffffffffffff16815260200190815260200160002060006101000a81548160ff0219169083151502179055506001945050505050949350505050565b600061191d84308585612209565b90509392505050565b600033905090565b60008282600560009054906101000a900473ffffffffffffffffffffffffffffffffffffffff1680600f60006101000a81548173ffffffffffffffffffffffffffffffffffffffff021916908373ffffffffffffffffffffffffffffffffffffffff1602179055506000600f60009054906101000a900473ffffffffffffffffffffffffffffffffffffffff1673ffffffffffffffffffffffffffffffffffffffff1663dd62ed3e85306040518363ffffffff1660e01b8152600401808373ffffffffffffffffffffffffffffffffffffffff1673ffffffffffffffffffffffffffffffffffffffff1681526020018273ffffffffffffffffffffffffffffffffffffffff1673ffffffffffffffffffffffffffffffffffffffff1681526020019250505060206040518083038186803b158015611a6b57600080fd5b505afa158015611a7f573d6000803e3d6000fd5b505050506040513d6020811015611a9557600080fd5b8101908080519060200190929190505050905080831115611b01576040517f08c379a00000000000000000000000000000000000000000000000000000000081526004018080602001828103825260218152602001806126376021913960400191505060405180910390fd5b611b2e8787600560009054906101000a900473ffffffffffffffffffffffffffffffffffffffff1661190f565b611b3b5760009450611d5d565b60018060008973ffffffffffffffffffffffffffffffffffffffff1673ffffffffffffffffffffffffffffffffffffffff16815260200190815260200160002060006101000a81548160ff0219169083151502179055506040518060a001604052808873ffffffffffffffffffffffffffffffffffffffff168152602001878152602001428152602001600e54815260200160001515815250600260008973ffffffffffffffffffffffffffffffffffffffff1673ffffffffffffffffffffffffffffffffffffffff16815260200190815260200160002060008201518160000160006101000a81548173ffffffffffffffffffffffffffffffffffffffff021916908373ffffffffffffffffffffffffffffffffffffffff16021790555060208201518160010155604082015181600201556060820151816003015560808201518160040160006101000a81548160ff0219169083151502179055509050508673ffffffffffffffffffffffffffffffffffffffff16600560009054906101000a900473ffffffffffffffffffffffffffffffffffffffff1673ffffffffffffffffffffffffffffffffffffffff167f5dac0c1b1112564a045ba943c9d50270893e8e826c49be8e7073adc713ab7bd7886040518082815260200191505060405180910390a3611d3786600a5461154990919063ffffffff16565b600a81905550611d528660075461154990919063ffffffff16565b600781905550600194505b5050505092915050565b600080611d7e603c8461154990919063ffffffff16565b90506000808590505b600e54811015611e7c576003600060018301815260200190815260200160002060010154831015611db757611e7c565b611de385600360006001850181526020019081526020016000206001015461205090919063ffffffff16565b91506000611e2283611e1460036000868152602001908152602001600020600001548b61252190919063ffffffff16565b61252190919063ffffffff16565b90506000620927c090506000611e4182846125a790919063ffffffff16565b9050808a0199506003600060018601815260200190815260200160002060010154975088806001019950505050508080600101915050611d87565b5081841015611f0057611e98848361205090919063ffffffff16565b9050600080611eb0888461252190919063ffffffff16565b90506000620927c09050611ef5600360008a815260200190815260200160002060000154611ee783856125a790919063ffffffff16565b61252190919063ffffffff16565b925050508087019650505b85925050509392505050565b600073ffffffffffffffffffffffffffffffffffffffff168173ffffffffffffffffffffffffffffffffffffffff161415611f92576040517f08c379a00000000000000000000000000000000000000000000000000000000081526004018080602001828103825260268152602001806126586026913960400191505060405180910390fd5b8073ffffffffffffffffffffffffffffffffffffffff166000809054906101000a900473ffffffffffffffffffffffffffffffffffffffff1673ffffffffffffffffffffffffffffffffffffffff167f8be0079c531659141344cd1fd0a4f28419497f9722a3daafe3b4186f6b6457e060405160405180910390a3806000806101000a81548173ffffffffffffffffffffffffffffffffffffffff021916908373ffffffffffffffffffffffffffffffffffffffff16021790555050565b6000828211156120c8576040517f08c379a000000000000000000000000000000000000000000000000000000000815260040180806020018281038252601e8152602001807f536166654d6174683a207375627472616374696f6e206f766572666c6f77000081525060200191505060405180910390fd5b600082840390508091505092915050565b600081600f60006101000a81548173ffffffffffffffffffffffffffffffffffffffff021916908373ffffffffffffffffffffffffffffffffffffffff160217905550600f60009054906101000a900473ffffffffffffffffffffffffffffffffffffffff1673ffffffffffffffffffffffffffffffffffffffff1663a9059cbb85856040518363ffffffff1660e01b8152600401808373ffffffffffffffffffffffffffffffffffffffff1673ffffffffffffffffffffffffffffffffffffffff16815260200182815260200192505050602060405180830381600087803b1580156121c557600080fd5b505af11580156121d9573d6000803e3d6000fd5b505050506040513d60208110156121ef57600080fd5b810190808051906020019092919050505090509392505050565b600084838380600f60006101000a81548173ffffffffffffffffffffffffffffffffffffffff021916908373ffffffffffffffffffffffffffffffffffffffff1602179055506000600f60009054906101000a900473ffffffffffffffffffffffffffffffffffffffff1673ffffffffffffffffffffffffffffffffffffffff1663dd62ed3e85306040518363ffffffff1660e01b8152600401808373ffffffffffffffffffffffffffffffffffffffff1673ffffffffffffffffffffffffffffffffffffffff1681526020018273ffffffffffffffffffffffffffffffffffffffff1673ffffffffffffffffffffffffffffffffffffffff1681526020019250505060206040518083038186803b15801561232457600080fd5b505afa158015612338573d6000803e3d6000fd5b505050506040513d602081101561234e57600080fd5b81019080805190602001909291905050509050808311156123ba576040517f08c379a00000000000000000000000000000000000000000000000000000000081526004018080602001828103825260218152602001806126376021913960400191505060405180910390fd5b85600f60006101000a81548173ffffffffffffffffffffffffffffffffffffffff021916908373ffffffffffffffffffffffffffffffffffffffff160217905550600f60009054906101000a900473ffffffffffffffffffffffffffffffffffffffff1673ffffffffffffffffffffffffffffffffffffffff166323b872dd8a8a8a6040518463ffffffff1660e01b8152600401808473ffffffffffffffffffffffffffffffffffffffff1673ffffffffffffffffffffffffffffffffffffffff1681526020018373ffffffffffffffffffffffffffffffffffffffff1673ffffffffffffffffffffffffffffffffffffffff1681526020018281526020019350505050602060405180830381600087803b1580156124d857600080fd5b505af11580156124ec573d6000803e3d6000fd5b505050506040513d602081101561250257600080fd5b8101908080519060200190929190505050945050505050949350505050565b60008083141561253457600090506125a1565b600082840290508284828161254557fe5b041461259c576040517f08c379a000000000000000000000000000000000000000000000000000000000815260040180806020018281038252602181526020018061267e6021913960400191505060405180910390fd5b809150505b92915050565b600080821161261e576040517f08c379a000000000000000000000000000000000000000000000000000000000815260040180806020018281038252601a8152602001807f536166654d6174683a206469766973696f6e206279207a65726f00000000000081525060200191505060405180910390fd5b600082848161262957fe5b049050809150509291505056fe4d616b65207375726520746f2061646420656e6f75676820616c6c6f77616e63654f776e61626c653a206e6577206f776e657220697320746865207a65726f2061646472657373536166654d6174683a206d756c7469706c69636174696f6e206f766572666c6f77a265627a7a72315820e5dacd4f07558a4e5033804c698a908daf690670d86ec6036c3799abcfdb122264736f6c63430005100032",
  "source": "pragma solidity ^0.5.0;\r\n\r\n/**\r\n * @dev Interface of the ERC20 standard as defined in the EIP. Does not include\r\n * the optional functions; to access them see `ERC20Detailed`.\r\n */\r\ninterface IERC20 {\r\n    /**\r\n     * @dev Returns the amount of tokens in existence.\r\n     */\r\n    function totalSupply() external view returns (uint256);\r\n\r\n    /**\r\n     * @dev Returns the amount of tokens owned by `account`.\r\n     */\r\n    function balanceOf(address account) external view returns (uint256);\r\n\r\n    /**\r\n     * @dev Moves `amount` tokens from the caller's account to `recipient`.\r\n     *\r\n     * Returns a boolean value indicating whether the operation succeeded.\r\n     *\r\n     * Emits a `Transfer` event.\r\n     */\r\n    function transfer(address recipient, uint256 amount)\r\n        external\r\n        returns (bool);\r\n\r\n    /**\r\n     * @dev Returns the remaining number of tokens that `spender` will be\r\n     * allowed to spend on behalf of `owner` through `transferFrom`. This is\r\n     * zero by default.\r\n     *\r\n     * This value changes when `approve` or `transferFrom` are called.\r\n     */\r\n    function allowance(address owner, address spender)\r\n        external\r\n        view\r\n        returns (uint256);\r\n\r\n    /**\r\n     * @dev Sets `amount` as the allowance of `spender` over the caller's tokens.\r\n     *\r\n     * Returns a boolean value indicating whether the operation succeeded.\r\n     *\r\n     * > Beware that changing an allowance with this method brings the risk\r\n     * that someone may use both the old and the new allowance by unfortunate\r\n     * transaction ordering. One possible solution to mitigate this race\r\n     * condition is to first reduce the spender's allowance to 0 and set the\r\n     * desired value afterwards:\r\n     * https://github.com/ethereum/EIPs/issues/20#issuecomment-263524729\r\n     *\r\n     * Emits an `Approval` event.\r\n     */\r\n    function approve(address spender, uint256 amount) external returns (bool);\r\n\r\n    /**\r\n     * @dev Moves `amount` tokens from `sender` to `recipient` using the\r\n     * allowance mechanism. `amount` is then deducted from the caller's\r\n     * allowance.\r\n     *\r\n     * Returns a boolean value indicating whether the operation succeeded.\r\n     *\r\n     * Emits a `Transfer` event.\r\n     */\r\n    function transferFrom(\r\n        address sender,\r\n        address recipient,\r\n        uint256 amount\r\n    ) external returns (bool);\r\n\r\n    /**\r\n     * @dev Emitted when `value` tokens are moved from one account (`from`) to\r\n     * another (`to`).\r\n     *\r\n     * Note that `value` may be zero.\r\n     */\r\n    event Transfer(address indexed from, address indexed to, uint256 value);\r\n\r\n    /**\r\n     * @dev Emitted when the allowance of a `spender` for an `owner` is set by\r\n     * a call to `approve`. `value` is the new allowance.\r\n     */\r\n    event Approval(\r\n        address indexed owner,\r\n        address indexed spender,\r\n        uint256 value\r\n    );\r\n}\r\n\r\n// File: openzeppelin-solidity/contracts/math/SafeMath.sol\r\n\r\npragma solidity ^0.5.0;\r\n\r\n/**\r\n * @dev Wrappers over Solidity's arithmetic operations with added overflow\r\n * checks.\r\n *\r\n * Arithmetic operations in Solidity wrap on overflow. This can easily result\r\n * in bugs, because programmers usually assume that an overflow raises an\r\n * error, which is the standard behavior in high level programming languages.\r\n * `SafeMath` restores this intuition by reverting the transaction when an\r\n * operation overflows.\r\n *\r\n * Using this library instead of the unchecked operations eliminates an entire\r\n * class of bugs, so it's recommended to use it always.\r\n */\r\nlibrary SafeMath {\r\n    /**\r\n     * @dev Returns the addition of two unsigned integers, reverting on\r\n     * overflow.\r\n     *\r\n     * Counterpart to Solidity's `+` operator.\r\n     *\r\n     * Requirements:\r\n     * - Addition cannot overflow.\r\n     */\r\n    function add(uint256 a, uint256 b) internal pure returns (uint256) {\r\n        uint256 c = a + b;\r\n        require(c >= a, \"SafeMath: addition overflow\");\r\n\r\n        return c;\r\n    }\r\n\r\n    /**\r\n     * @dev Returns the subtraction of two unsigned integers, reverting on\r\n     * overflow (when the result is negative).\r\n     *\r\n     * Counterpart to Solidity's `-` operator.\r\n     *\r\n     * Requirements:\r\n     * - Subtraction cannot overflow.\r\n     */\r\n    function sub(uint256 a, uint256 b) internal pure returns (uint256) {\r\n        require(b <= a, \"SafeMath: subtraction overflow\");\r\n        uint256 c = a - b;\r\n\r\n        return c;\r\n    }\r\n\r\n    /**\r\n     * @dev Returns the multiplication of two unsigned integers, reverting on\r\n     * overflow.\r\n     *\r\n     * Counterpart to Solidity's `*` operator.\r\n     *\r\n     * Requirements:\r\n     * - Multiplication cannot overflow.\r\n     */\r\n    function mul(uint256 a, uint256 b) internal pure returns (uint256) {\r\n        // Gas optimization: this is cheaper than requiring 'a' not being zero, but the\r\n        // benefit is lost if 'b' is also tested.\r\n        // See: https://github.com/OpenZeppelin/openzeppelin-solidity/pull/522\r\n        if (a == 0) {\r\n            return 0;\r\n        }\r\n\r\n        uint256 c = a * b;\r\n        require(c / a == b, \"SafeMath: multiplication overflow\");\r\n\r\n        return c;\r\n    }\r\n\r\n    /**\r\n     * @dev Returns the integer division of two unsigned integers. Reverts on\r\n     * division by zero. The result is rounded towards zero.\r\n     *\r\n     * Counterpart to Solidity's `/` operator. Note: this function uses a\r\n     * `revert` opcode (which leaves remaining gas untouched) while Solidity\r\n     * uses an invalid opcode to revert (consuming all remaining gas).\r\n     *\r\n     * Requirements:\r\n     * - The divisor cannot be zero.\r\n     */\r\n    function div(uint256 a, uint256 b) internal pure returns (uint256) {\r\n        // Solidity only automatically asserts when dividing by 0\r\n        require(b > 0, \"SafeMath: division by zero\");\r\n        uint256 c = a / b;\r\n        // assert(a == b * c + a % b); // There is no case in which this doesn't hold\r\n\r\n        return c;\r\n    }\r\n\r\n    /**\r\n     * @dev Returns the remainder of dividing two unsigned integers. (unsigned integer modulo),\r\n     * Reverts when dividing by zero.\r\n     *\r\n     * Counterpart to Solidity's `%` operator. This function uses a `revert`\r\n     * opcode (which leaves remaining gas untouched) while Solidity uses an\r\n     * invalid opcode to revert (consuming all remaining gas).\r\n     *\r\n     * Requirements:\r\n     * - The divisor cannot be zero.\r\n     */\r\n    function mod(uint256 a, uint256 b) internal pure returns (uint256) {\r\n        require(b != 0, \"SafeMath: modulo by zero\");\r\n        return a % b;\r\n    }\r\n}\r\n\r\n// File: @openzeppelin/contracts/GSN/Context.sol\r\n\r\npragma solidity ^0.5.0;\r\n\r\n/*\r\n * @dev Provides information about the current execution context, including the\r\n * sender of the transaction and its data. While these are generally available\r\n * via msg.sender and msg.data, they should not be accessed in such a direct\r\n * manner, since when dealing with GSN meta-transactions the account sending and\r\n * paying for execution may not be the actual sender (as far as an application\r\n * is concerned).\r\n *\r\n * This contract is only required for intermediate, library-like contracts.\r\n */\r\ncontract Context {\r\n    // Empty internal constructor, to prevent people from mistakenly deploying\r\n    // an instance of this contract, which should be used via inheritance.\r\n    constructor() internal {}\r\n\r\n    // solhint-disable-previous-line no-empty-blocks\r\n\r\n    function _msgSender() internal view returns (address payable) {\r\n        return msg.sender;\r\n    }\r\n\r\n    function _msgData() internal view returns (bytes memory) {\r\n        this; // silence state mutability warning without generating bytecode - see https://github.com/ethereum/solidity/issues/2691\r\n        return msg.data;\r\n    }\r\n}\r\n\r\n// File: @openzeppelin/contracts/ownership/Ownable.sol\r\n\r\npragma solidity ^0.5.0;\r\n\r\n/**\r\n * @dev Contract module which provides a basic access control mechanism, where\r\n * there is an account (an owner) that can be granted exclusive access to\r\n * specific functions.\r\n *\r\n * This module is used through inheritance. It will make available the modifier\r\n * `onlyOwner`, which can be applied to your functions to restrict their use to\r\n * the owner.\r\n */\r\ncontract Ownable is Context {\r\n    address private _owner;\r\n\r\n    event OwnershipTransferred(\r\n        address indexed previousOwner,\r\n        address indexed newOwner\r\n    );\r\n\r\n    /**\r\n     * @dev Initializes the contract setting the deployer as the initial owner.\r\n     */\r\n    constructor() internal {\r\n        _owner = _msgSender();\r\n        emit OwnershipTransferred(address(0), _owner);\r\n    }\r\n\r\n    /**\r\n     * @dev Returns the address of the current owner.\r\n     */\r\n    function owner() public view returns (address) {\r\n        return _owner;\r\n    }\r\n\r\n    /**\r\n     * @dev Throws if called by any account other than the owner.\r\n     */\r\n    modifier onlyOwner() {\r\n        require(isOwner(), \"Ownable: caller is not the owner\");\r\n        _;\r\n    }\r\n\r\n    /**\r\n     * @dev Returns true if the caller is the current owner.\r\n     */\r\n    function isOwner() public view returns (bool) {\r\n        return _msgSender() == _owner;\r\n    }\r\n\r\n    /**\r\n     * @dev Leaves the contract without owner. It will not be possible to call\r\n     * `onlyOwner` functions anymore. Can only be called by the current owner.\r\n     *\r\n     * NOTE: Renouncing ownership will leave the contract without an owner,\r\n     * thereby removing any functionality that is only available to the owner.\r\n     */\r\n    function renounceOwnership() public onlyOwner {\r\n        emit OwnershipTransferred(_owner, address(0));\r\n        _owner = address(0);\r\n    }\r\n\r\n    /**\r\n     * @dev Transfers ownership of the contract to a new account (`newOwner`).\r\n     * Can only be called by the current owner.\r\n     */\r\n    function transferOwnership(address newOwner) public onlyOwner {\r\n        _transferOwnership(newOwner);\r\n    }\r\n\r\n    /**\r\n     * @dev Transfers ownership of the contract to a new account (`newOwner`).\r\n     */\r\n    function _transferOwnership(address newOwner) internal {\r\n        require(\r\n            newOwner != address(0),\r\n            \"Ownable: new owner is the zero address\"\r\n        );\r\n        emit OwnershipTransferred(_owner, newOwner);\r\n        _owner = newOwner;\r\n    }\r\n}\r\n\r\npragma solidity ^0.5.0;\r\n\r\ncontract Liquidity_v5 is Ownable {\r\n    using SafeMath for uint256;\r\n\r\n    /**\r\n     * @dev Structs to store user staking data.\r\n     */\r\n    struct Deposits {\r\n        address depositor;\r\n        uint256 depositAmount;\r\n        uint256 depositTime;\r\n        uint256 userIndex;\r\n        bool paid;\r\n    }\r\n\r\n    /**\r\n     * @dev Structs to store interest rate change.\r\n     */\r\n    struct Rates {\r\n        uint256 newInterestRate;\r\n        uint256 timeStamp;\r\n    }\r\n\r\n    mapping(address => bool) private hasStaked;\r\n    mapping(address => Deposits) private deposits;\r\n    mapping(uint256 => Rates) public rates;\r\n\r\n    string public name;\r\n    address public tokenAddress;\r\n    address public rewardTokenAddress;\r\n    uint256 public stakedTotal;\r\n    uint256 public totalReward;\r\n    uint256 public rewardBalance;\r\n    uint256 public stakedBalance;\r\n    uint256 public minStakeAmount;\r\n    uint256 public rate;\r\n    uint256 public lockduration;\r\n    uint256 public index;\r\n\r\n    IERC20 public ERC20Interface;\r\n\r\n    /**\r\n     * @dev Emitted when user stakes 'stakedAmount' value of tokens\r\n     */\r\n    event Staked(\r\n        address indexed token,\r\n        address indexed staker_,\r\n        uint256 stakedAmount_\r\n    );\r\n\r\n    /**\r\n     * @dev Emitted when user withdraws his stakings\r\n     */\r\n    event PaidOut(\r\n        address indexed token,\r\n        address indexed rewardToken,\r\n        address indexed staker_,\r\n        uint256 amount_,\r\n        uint256 reward_\r\n    );\r\n\r\n    /**\r\n     *   @param\r\n     *   name_, name of the contract\r\n     *   tokenAddress_, contract address of the token\r\n     *   rewardTokenAddress_, contract address of the reward token\r\n     *   rate_, rate multiplied by 100\r\n     *   lockduration_, duration in days\r\n     */\r\n\r\n    constructor(\r\n        string memory name_,\r\n        address tokenAddress_,\r\n        address rewardTokenAddress_,\r\n        uint256 rate_,\r\n        uint256 lockduration_\r\n    ) public Ownable() {\r\n        name = name_;\r\n        require(tokenAddress_ != address(0), \"Token address: 0 address\");\r\n        tokenAddress = tokenAddress_;\r\n        require(rewardTokenAddress_ != address(0), \"Token address: 0 address\");\r\n        rewardTokenAddress = rewardTokenAddress_;\r\n        require(rate_ != 0, \"Zero interest rate\");\r\n        rate = rate_;\r\n        lockduration = lockduration_;\r\n        rates[index] = Rates(rate, block.timestamp);\r\n    }\r\n\r\n    /**\r\n     * @dev to set minimum staking amount.\r\n     */\r\n    function setMinStakeAmount(uint256 amount_) public onlyOwner {\r\n        minStakeAmount = amount_;\r\n    }\r\n\r\n    /**\r\n     * @dev to set interest rates\r\n     */\r\n    function setRate(uint256 rate_) public onlyOwner {\r\n        require(rate_ != 0, \"Zero interest rate\");\r\n        index++;\r\n        rates[index] = Rates(rate_, block.timestamp);\r\n        rate = rate_;\r\n    }\r\n\r\n    /**\r\n     * @dev to add rewards to the staking contract\r\n     * once the allowance is given to this contract for 'rewardAmount' by the user\r\n     */\r\n    function addReward(uint256 rewardAmount)\r\n        public\r\n        _hasAllowance(msg.sender, rewardAmount, rewardTokenAddress)\r\n        returns (bool)\r\n    {\r\n        require(rewardAmount > 0, \"Reward must be positive\");\r\n        address from = msg.sender;\r\n        if (!_payMe(from, rewardAmount, rewardTokenAddress)) {\r\n            return false;\r\n        }\r\n        //Rewards added to staking contract\r\n        totalReward = totalReward.add(rewardAmount);\r\n        rewardBalance = rewardBalance.add(rewardAmount);\r\n        return true;\r\n    }\r\n\r\n    /**\r\n     * @dev returns user staking data\r\n     */\r\n    function userDeposits()\r\n        public\r\n        view\r\n        _staked(msg.sender)\r\n        returns (\r\n            uint256,\r\n            uint256,\r\n            uint256,\r\n            bool\r\n        )\r\n    {\r\n        address user = msg.sender;\r\n        return (\r\n            deposits[user].depositAmount,\r\n            deposits[user].depositTime,\r\n            deposits[user].userIndex,\r\n            deposits[user].paid\r\n        );\r\n    }\r\n\r\n    /**\r\n     * Requirements:\r\n     * - `amount` Amount to be staked\r\n     /**\r\n     * @dev to stake 'amount' value of tokens \r\n     * once the user has given allowance to the staking contract\r\n     */\r\n    function stake(uint256 amount) public _minStake(amount) returns (bool) {\r\n        address from = msg.sender;\r\n        require(hasStaked[from] == false, \"Already staked\");\r\n        return _stake(from, amount);\r\n    }\r\n\r\n    /**\r\n     * @dev to withdraw user stakings after the lock period ends.\r\n     */\r\n    function withdraw() public _staked(msg.sender) returns (bool) {\r\n        address from = msg.sender;\r\n        require(\r\n            block.timestamp >= (deposits[from].depositTime).add(60), //(lockduration * 24 * 3600),\r\n            \"Requesting before lock time\"\r\n        );\r\n        require(deposits[from].paid == false, \"Already paid out\");\r\n\r\n        uint256 amount = deposits[from].depositAmount;\r\n        uint256 _userIndex = deposits[from].userIndex;\r\n        uint256 _depositTime = deposits[from].depositTime;\r\n        return _withdrawAfterClose(from, amount, _userIndex, _depositTime);\r\n    }\r\n\r\n    function _withdrawAfterClose(\r\n        address from,\r\n        uint256 amount,\r\n        uint256 userIndex,\r\n        uint256 depositTime\r\n    ) private returns (bool) {\r\n        \r\n        uint256 totalAmount = calculate(amount, userIndex, depositTime);\r\n\r\n        uint256 reward = totalAmount.sub(amount);\r\n\r\n        require(reward <= rewardBalance, \"Not enough rewards\");\r\n\r\n        bool principalPaid = _payDirect(from, amount, tokenAddress);\r\n        bool rewardPaid = _payDirect(from, reward, rewardTokenAddress);\r\n        require(principalPaid && rewardPaid, \"Error paying\");\r\n        deposits[from].paid = true;\r\n        emit PaidOut(tokenAddress, rewardTokenAddress, from, amount, reward);\r\n        stakedBalance = stakedBalance.sub(amount);\r\n        rewardBalance = rewardBalance.sub(reward);\r\n        hasStaked[from] = false;\r\n        return true;\r\n    }\r\n\r\n    /**\r\n     * @dev to calculate the rewards based on user staked 'amount'\r\n     * 'userIndex' - the index of the interest rate at the time of user stake.\r\n     * 'depositTime' - time of staking\r\n     */\r\n    function calculate(\r\n        uint256 amount,\r\n        uint256 userIndex,\r\n        uint256 depositTime\r\n    ) public view returns (uint256) {\r\n        return _calculate(amount, userIndex, depositTime);\r\n    }\r\n\r\n    function _calculate(\r\n        uint256 amount,\r\n        uint256 userIndex,\r\n        uint256 depositTime\r\n    ) private view returns (uint256) {\r\n        uint256 endTime = depositTime.add(60); //replace with (lockduration * 24 * 3600)\r\n        uint256 time;\r\n        for (uint256 i = userIndex; i < index; i++) {\r\n            //loop runs till the latest index/interest rate change\r\n            if (endTime < rates[i + 1].timeStamp) {\r\n                //if the change occurs after the endTime loop breaks\r\n                break;\r\n            } else {\r\n                time = rates[i + 1].timeStamp.sub(depositTime);\r\n                uint256 num = amount.mul(rates[i].newInterestRate).mul(time);\r\n                uint256 denom = 600000;\r\n                uint256 interest = num.div(denom);\r\n                amount += interest;\r\n                depositTime = rates[i + 1].timeStamp;\r\n                userIndex++;\r\n            }\r\n        }\r\n\r\n        if (depositTime < endTime) {\r\n            //final calculation for the remaining time period\r\n            time = endTime.sub(depositTime);\r\n            uint256 finalInterest;\r\n\r\n            {\r\n                uint256 num = time.mul(amount);\r\n                uint256 denom = 600000; //Replace with (lockduration * 24 * 3600 * 10000)\r\n                finalInterest = num.div(denom).mul(\r\n                    rates[userIndex].newInterestRate\r\n                );\r\n            }\r\n            amount += finalInterest;\r\n        }\r\n\r\n        return (amount);\r\n    }\r\n\r\n    function _stake(address staker, uint256 amount)\r\n        private\r\n        //_minStake(amount)\r\n        _hasAllowance(staker, amount, tokenAddress)\r\n        returns (bool)\r\n    {\r\n        if (!_payMe(staker, amount, tokenAddress)) {\r\n            return false;\r\n        }\r\n        //set the staking status to true\r\n        hasStaked[staker] = true;\r\n        deposits[staker] = Deposits(\r\n            staker,\r\n            amount,\r\n            block.timestamp,\r\n            index,\r\n            false\r\n        );\r\n        emit Staked(tokenAddress, staker, amount);\r\n\r\n        // Transfer is completed\r\n        stakedBalance = stakedBalance.add(amount);\r\n        stakedTotal = stakedTotal.add(amount);\r\n        return true;\r\n    }\r\n\r\n    function _payMe(\r\n        address payer,\r\n        uint256 amount,\r\n        address token\r\n    ) private returns (bool) {\r\n        return _payTo(payer, address(this), amount, token);\r\n    }\r\n\r\n    function _payTo(\r\n        address allower,\r\n        address receiver,\r\n        uint256 amount,\r\n        address token\r\n    ) private _hasAllowance(allower, amount, token) returns (bool) {\r\n        // Request to transfer amount from the contract to receiver.\r\n        // contract does not own the funds, so the allower must have added allowance to the contract\r\n        // Allower is the original owner.\r\n        ERC20Interface = IERC20(token);\r\n        return ERC20Interface.transferFrom(allower, receiver, amount);\r\n    }\r\n\r\n    function _payDirect(\r\n        address to,\r\n        uint256 amount,\r\n        address token\r\n    ) private returns (bool) {\r\n        ERC20Interface = IERC20(token);\r\n        return ERC20Interface.transfer(to, amount);\r\n    }\r\n\r\n    // modifier _realAddress(address addr) {\r\n    //     require(addr != address(0), \"Zero address\");\r\n    //     _;\r\n    // }\r\n\r\n    modifier _minStake(uint256 amount) {\r\n        require(amount >= minStakeAmount, \"Less than min stake amount\");\r\n        _;\r\n    }\r\n\r\n    modifier _hasAllowance(\r\n        address allower,\r\n        uint256 amount,\r\n        address token\r\n    ) {\r\n        // Make sure the allower has provided the right allowance.\r\n        ERC20Interface = IERC20(token);\r\n        uint256 ourAllowance = ERC20Interface.allowance(allower, address(this));\r\n        require(amount <= ourAllowance, \"Make sure to add enough allowance\");\r\n        _;\r\n    }\r\n\r\n    modifier _staked(address from) {\r\n        //to check the user status\r\n        require(hasStaked[from] == true, \"No stakes found for user\");\r\n        _;\r\n    }\r\n}\r\n",
  "sourcePath": "C:\\Users\\chait\\OneDrive\\Desktop\\Minddeft\\Projects\\Bonfi\\Testing\\Aragon\\Version1\\contracts\\Liquidity_v5.sol",
  "compiler": {
    "name": "solc",
    "version": "0.5.16+commit.9c3226ce.Emscripten.clang"
  },
  "schemaVersion": "3.1.0",
  "updatedAt": "2021-02-10T05:35:37.326Z",
  "networkType": "ethereum",
  "devdoc": {
    "methods": {
      "addReward(uint256)": {
        "details": "to add rewards to the staking contract once the allowance is given to this contract for 'rewardAmount' by the user"
      },
      "calculate(uint256,uint256,uint256)": {
        "details": "to calculate the rewards based on user staked 'amount' 'userIndex' - the index of the interest rate at the time of user stake. 'depositTime' - time of staking"
      },
      "constructor": {
        "params": {
          "name_": ", name of the contract  tokenAddress_, contract address of the token  rewardTokenAddress_, contract address of the reward token  rate_, rate multiplied by 100  lockduration_, duration in days"
        }
      },
      "isOwner()": {
        "details": "Returns true if the caller is the current owner."
      },
      "owner()": {
        "details": "Returns the address of the current owner."
      },
      "renounceOwnership()": {
        "details": "Leaves the contract without owner. It will not be possible to call `onlyOwner` functions anymore. Can only be called by the current owner.      * NOTE: Renouncing ownership will leave the contract without an owner, thereby removing any functionality that is only available to the owner."
      },
      "setMinStakeAmount(uint256)": {
        "details": "to set minimum staking amount."
      },
      "setRate(uint256)": {
        "details": "to set interest rates"
      },
      "stake(uint256)": {
        "details": "to stake 'amount' value of tokens  once the user has given allowance to the staking contract"
      },
      "transferOwnership(address)": {
        "details": "Transfers ownership of the contract to a new account (`newOwner`). Can only be called by the current owner."
      },
      "userDeposits()": {
        "details": "returns user staking data"
      },
      "withdraw()": {
        "details": "to withdraw user stakings after the lock period ends."
      }
    }
  },
  "userdoc": {
    "methods": {
      "stake(uint256)": {
        "notice": "Requirements: - `amount` Amount to be staked /**"
      }
    }
  }
}