{
  "contractName": "Liquidity_v8",
  "abi": [
    {
      "inputs": [
        {
          "internalType": "string",
          "name": "name_",
          "type": "string"
        },
        {
          "internalType": "address",
          "name": "tokenAddress_",
          "type": "address"
        },
        {
          "internalType": "address",
          "name": "rewardTokenAddress_",
          "type": "address"
        },
        {
          "internalType": "uint64",
          "name": "rate_",
          "type": "uint64"
        },
        {
          "internalType": "uint256",
          "name": "lockDuration_",
          "type": "uint256"
        }
      ],
      "payable": false,
      "stateMutability": "nonpayable",
      "type": "constructor"
    },
    {
      "anonymous": false,
      "inputs": [
        {
          "indexed": true,
          "internalType": "address",
          "name": "previousOwner",
          "type": "address"
        },
        {
          "indexed": true,
          "internalType": "address",
          "name": "newOwner",
          "type": "address"
        }
      ],
      "name": "OwnershipTransferred",
      "type": "event"
    },
    {
      "anonymous": false,
      "inputs": [
        {
          "indexed": true,
          "internalType": "address",
          "name": "token",
          "type": "address"
        },
        {
          "indexed": true,
          "internalType": "address",
          "name": "rewardToken",
          "type": "address"
        },
        {
          "indexed": true,
          "internalType": "address",
          "name": "staker_",
          "type": "address"
        },
        {
          "indexed": false,
          "internalType": "uint256",
          "name": "amount_",
          "type": "uint256"
        },
        {
          "indexed": false,
          "internalType": "uint256",
          "name": "reward_",
          "type": "uint256"
        }
      ],
      "name": "PaidOut",
      "type": "event"
    },
    {
      "anonymous": false,
      "inputs": [
        {
          "indexed": true,
          "internalType": "address",
          "name": "token",
          "type": "address"
        },
        {
          "indexed": true,
          "internalType": "address",
          "name": "staker_",
          "type": "address"
        },
        {
          "indexed": false,
          "internalType": "uint256",
          "name": "stakedAmount_",
          "type": "uint256"
        }
      ],
      "name": "Staked",
      "type": "event"
    },
    {
      "constant": true,
      "inputs": [],
      "name": "ERC20Interface",
      "outputs": [
        {
          "internalType": "contract IERC20",
          "name": "",
          "type": "address"
        }
      ],
      "payable": false,
      "stateMutability": "view",
      "type": "function"
    },
    {
      "constant": true,
      "inputs": [],
      "name": "index",
      "outputs": [
        {
          "internalType": "uint64",
          "name": "",
          "type": "uint64"
        }
      ],
      "payable": false,
      "stateMutability": "view",
      "type": "function"
    },
    {
      "constant": true,
      "inputs": [],
      "name": "isOwner",
      "outputs": [
        {
          "internalType": "bool",
          "name": "",
          "type": "bool"
        }
      ],
      "payable": false,
      "stateMutability": "view",
      "type": "function"
    },
    {
      "constant": true,
      "inputs": [],
      "name": "lockDuration",
      "outputs": [
        {
          "internalType": "uint256",
          "name": "",
          "type": "uint256"
        }
      ],
      "payable": false,
      "stateMutability": "view",
      "type": "function"
    },
    {
      "constant": true,
      "inputs": [],
      "name": "name",
      "outputs": [
        {
          "internalType": "string",
          "name": "",
          "type": "string"
        }
      ],
      "payable": false,
      "stateMutability": "view",
      "type": "function"
    },
    {
      "constant": true,
      "inputs": [],
      "name": "owner",
      "outputs": [
        {
          "internalType": "address",
          "name": "",
          "type": "address"
        }
      ],
      "payable": false,
      "stateMutability": "view",
      "type": "function"
    },
    {
      "constant": true,
      "inputs": [],
      "name": "rate",
      "outputs": [
        {
          "internalType": "uint64",
          "name": "",
          "type": "uint64"
        }
      ],
      "payable": false,
      "stateMutability": "view",
      "type": "function"
    },
    {
      "constant": true,
      "inputs": [
        {
          "internalType": "uint64",
          "name": "",
          "type": "uint64"
        }
      ],
      "name": "rates",
      "outputs": [
        {
          "internalType": "uint64",
          "name": "newInterestRate",
          "type": "uint64"
        },
        {
          "internalType": "uint256",
          "name": "timeStamp",
          "type": "uint256"
        }
      ],
      "payable": false,
      "stateMutability": "view",
      "type": "function"
    },
    {
      "constant": false,
      "inputs": [],
      "name": "renounceOwnership",
      "outputs": [],
      "payable": false,
      "stateMutability": "nonpayable",
      "type": "function"
    },
    {
      "constant": true,
      "inputs": [],
      "name": "rewardBalance",
      "outputs": [
        {
          "internalType": "uint256",
          "name": "",
          "type": "uint256"
        }
      ],
      "payable": false,
      "stateMutability": "view",
      "type": "function"
    },
    {
      "constant": true,
      "inputs": [],
      "name": "rewardTokenAddress",
      "outputs": [
        {
          "internalType": "address",
          "name": "",
          "type": "address"
        }
      ],
      "payable": false,
      "stateMutability": "view",
      "type": "function"
    },
    {
      "constant": true,
      "inputs": [],
      "name": "stakedBalance",
      "outputs": [
        {
          "internalType": "uint256",
          "name": "",
          "type": "uint256"
        }
      ],
      "payable": false,
      "stateMutability": "view",
      "type": "function"
    },
    {
      "constant": true,
      "inputs": [],
      "name": "stakedTotal",
      "outputs": [
        {
          "internalType": "uint256",
          "name": "",
          "type": "uint256"
        }
      ],
      "payable": false,
      "stateMutability": "view",
      "type": "function"
    },
    {
      "constant": true,
      "inputs": [],
      "name": "tokenAddress",
      "outputs": [
        {
          "internalType": "address",
          "name": "",
          "type": "address"
        }
      ],
      "payable": false,
      "stateMutability": "view",
      "type": "function"
    },
    {
      "constant": true,
      "inputs": [],
      "name": "totalReward",
      "outputs": [
        {
          "internalType": "uint256",
          "name": "",
          "type": "uint256"
        }
      ],
      "payable": false,
      "stateMutability": "view",
      "type": "function"
    },
    {
      "constant": false,
      "inputs": [
        {
          "internalType": "address",
          "name": "newOwner",
          "type": "address"
        }
      ],
      "name": "transferOwnership",
      "outputs": [],
      "payable": false,
      "stateMutability": "nonpayable",
      "type": "function"
    },
    {
      "constant": false,
      "inputs": [
        {
          "internalType": "uint64",
          "name": "rate_",
          "type": "uint64"
        }
      ],
      "name": "setRate",
      "outputs": [],
      "payable": false,
      "stateMutability": "nonpayable",
      "type": "function"
    },
    {
      "constant": false,
      "inputs": [
        {
          "internalType": "uint256",
          "name": "lockduration_",
          "type": "uint256"
        }
      ],
      "name": "changeLockDuration",
      "outputs": [],
      "payable": false,
      "stateMutability": "nonpayable",
      "type": "function"
    },
    {
      "constant": false,
      "inputs": [
        {
          "internalType": "uint256",
          "name": "rewardAmount",
          "type": "uint256"
        }
      ],
      "name": "addReward",
      "outputs": [
        {
          "internalType": "bool",
          "name": "",
          "type": "bool"
        }
      ],
      "payable": false,
      "stateMutability": "nonpayable",
      "type": "function"
    },
    {
      "constant": true,
      "inputs": [
        {
          "internalType": "address",
          "name": "user",
          "type": "address"
        }
      ],
      "name": "userDeposits",
      "outputs": [
        {
          "internalType": "uint256",
          "name": "",
          "type": "uint256"
        },
        {
          "internalType": "uint256",
          "name": "",
          "type": "uint256"
        },
        {
          "internalType": "uint256",
          "name": "",
          "type": "uint256"
        },
        {
          "internalType": "uint256",
          "name": "",
          "type": "uint256"
        },
        {
          "internalType": "bool",
          "name": "",
          "type": "bool"
        }
      ],
      "payable": false,
      "stateMutability": "view",
      "type": "function"
    },
    {
      "constant": false,
      "inputs": [
        {
          "internalType": "uint256",
          "name": "amount",
          "type": "uint256"
        }
      ],
      "name": "stake",
      "outputs": [
        {
          "internalType": "bool",
          "name": "",
          "type": "bool"
        }
      ],
      "payable": false,
      "stateMutability": "nonpayable",
      "type": "function"
    },
    {
      "constant": false,
      "inputs": [],
      "name": "withdraw",
      "outputs": [
        {
          "internalType": "bool",
          "name": "",
          "type": "bool"
        }
      ],
      "payable": false,
      "stateMutability": "nonpayable",
      "type": "function"
    },
    {
      "constant": true,
      "inputs": [
        {
          "internalType": "address",
          "name": "from",
          "type": "address"
        }
      ],
      "name": "calculate",
      "outputs": [
        {
          "internalType": "uint256",
          "name": "",
          "type": "uint256"
        }
      ],
      "payable": false,
      "stateMutability": "view",
      "type": "function"
    }
  ],
  "bytecode": "0x60806040523480156200001157600080fd5b5060405162002fb438038062002fb4833981810160405260a08110156200003757600080fd5b81019080805160405193929190846401000000008211156200005857600080fd5b838201915060208201858111156200006f57600080fd5b82518660018202830111640100000000821117156200008d57600080fd5b8083526020830192505050908051906020019080838360005b83811015620000c3578082015181840152602081019050620000a6565b50505050905090810190601f168015620000f15780820380516001836020036101000a031916815260200191505b5060405260200180519060200190929190805190602001909291908051906020019092919080519060200190929190505050620001336200053c60201b60201c565b6000806101000a81548173ffffffffffffffffffffffffffffffffffffffff021916908373ffffffffffffffffffffffffffffffffffffffff1602179055506000809054906101000a900473ffffffffffffffffffffffffffffffffffffffff1673ffffffffffffffffffffffffffffffffffffffff16600073ffffffffffffffffffffffffffffffffffffffff167f8be0079c531659141344cd1fd0a4f28419497f9722a3daafe3b4186f6b6457e060405160405180910390a384600490805190602001906200020692919062000544565b50600073ffffffffffffffffffffffffffffffffffffffff168473ffffffffffffffffffffffffffffffffffffffff161415620002ab576040517f08c379a00000000000000000000000000000000000000000000000000000000081526004018080602001828103825260188152602001807f546f6b656e20616464726573733a20302061646472657373000000000000000081525060200191505060405180910390fd5b83600560006101000a81548173ffffffffffffffffffffffffffffffffffffffff021916908373ffffffffffffffffffffffffffffffffffffffff160217905550600073ffffffffffffffffffffffffffffffffffffffff168373ffffffffffffffffffffffffffffffffffffffff16141562000390576040517f08c379a00000000000000000000000000000000000000000000000000000000081526004018080602001828103825260188152602001807f546f6b656e20616464726573733a20302061646472657373000000000000000081525060200191505060405180910390fd5b82600660006101000a81548173ffffffffffffffffffffffffffffffffffffffff021916908373ffffffffffffffffffffffffffffffffffffffff16021790555060008267ffffffffffffffff16141562000453576040517f08c379a00000000000000000000000000000000000000000000000000000000081526004018080602001828103825260128152602001807f5a65726f20696e7465726573742072617465000000000000000000000000000081525060200191505060405180910390fd5b81600b60006101000a81548167ffffffffffffffff021916908367ffffffffffffffff16021790555080600c819055506040518060400160405280600b60009054906101000a900467ffffffffffffffff1667ffffffffffffffff1681526020014281525060036000600b60089054906101000a900467ffffffffffffffff1667ffffffffffffffff1667ffffffffffffffff16815260200190815260200160002060008201518160000160006101000a81548167ffffffffffffffff021916908367ffffffffffffffff160217905550602082015181600101559050505050505050620005f3565b600033905090565b828054600181600116156101000203166002900490600052602060002090601f016020900481019282601f106200058757805160ff1916838001178555620005b8565b82800160010185558215620005b8579182015b82811115620005b75782518255916020019190600101906200059a565b5b509050620005c79190620005cb565b5090565b620005f091905b80821115620005ec576000816000905550600101620005d2565b5090565b90565b6129b180620006036000396000f3fe608060405234801561001057600080fd5b506004361061014d5760003560e01c806350003ca6116100c35780638f32d59b1161007c5780638f32d59b146105805780639d76ea58146105a2578063a694fc3a146105ec578063aa5c3ab414610632578063d66692a714610650578063f2fde38b1461066e5761014d565b806350003ca6146104525780635b9f0016146104aa578063715018a6146104c857806374de4ec4146104d2578063750142e6146105185780638da5cb5b146105365761014d565b80631bbc4b83116101155780631bbc4b831461031c57806327a59fb8146103665780632986c0e5146103945780632c4e722e146103c6578063398327e6146103f85780633ccfd60b146104305761014d565b8063045544431461015257806306fdde03146101705780630ba36dcd146101f35780630f0a3d131461026b578063125f9e33146102d2575b600080fd5b61015a6106b2565b6040518082815260200191505060405180910390f35b6101786106b8565b6040518080602001828103825283818151815260200191508051906020019080838360005b838110156101b857808201518184015260208101905061019d565b50505050905090810190601f1680156101e55780820380516001836020036101000a031916815260200191505b509250505060405180910390f35b6102356004803603602081101561020957600080fd5b81019080803573ffffffffffffffffffffffffffffffffffffffff169060200190929190505050610756565b60405180868152602001858152602001848152602001838152602001821515151581526020019550505050505060405180910390f35b6102a16004803603602081101561028157600080fd5b81019080803567ffffffffffffffff169060200190929190505050610946565b604051808367ffffffffffffffff1667ffffffffffffffff1681526020018281526020019250505060405180910390f35b6102da61097e565b604051808273ffffffffffffffffffffffffffffffffffffffff1673ffffffffffffffffffffffffffffffffffffffff16815260200191505060405180910390f35b6103246109a4565b604051808273ffffffffffffffffffffffffffffffffffffffff1673ffffffffffffffffffffffffffffffffffffffff16815260200191505060405180910390f35b6103926004803603602081101561037c57600080fd5b81019080803590602001909291905050506109ca565b005b61039c610a4e565b604051808267ffffffffffffffff1667ffffffffffffffff16815260200191505060405180910390f35b6103ce610a68565b604051808267ffffffffffffffff1667ffffffffffffffff16815260200191505060405180910390f35b61042e6004803603602081101561040e57600080fd5b81019080803567ffffffffffffffff169060200190929190505050610a82565b005b610438610c88565b604051808215151515815260200191505060405180910390f35b6104946004803603602081101561046857600080fd5b81019080803573ffffffffffffffffffffffffffffffffffffffff169060200190929190505050610ee4565b6040518082815260200191505060405180910390f35b6104b2610ef6565b6040518082815260200191505060405180910390f35b6104d0610efc565b005b6104fe600480360360208110156104e857600080fd5b8101908080359060200190929190505050611035565b604051808215151515815260200191505060405180910390f35b610520611303565b6040518082815260200191505060405180910390f35b61053e611309565b604051808273ffffffffffffffffffffffffffffffffffffffff1673ffffffffffffffffffffffffffffffffffffffff16815260200191505060405180910390f35b610588611332565b604051808215151515815260200191505060405180910390f35b6105aa611390565b604051808273ffffffffffffffffffffffffffffffffffffffff1673ffffffffffffffffffffffffffffffffffffffff16815260200191505060405180910390f35b6106186004803603602081101561060257600080fd5b81019080803590602001909291905050506113b6565b604051808215151515815260200191505060405180910390f35b61063a6116e0565b6040518082815260200191505060405180910390f35b6106586116e6565b6040518082815260200191505060405180910390f35b6106b06004803603602081101561068457600080fd5b81019080803573ffffffffffffffffffffffffffffffffffffffff1690602001909291905050506116ec565b005b600c5481565b60048054600181600116156101000203166002900480601f01602080910402602001604051908101604052809291908181526020018280546001816001161561010002031660029004801561074e5780601f106107235761010080835404028352916020019161074e565b820191906000526020600020905b81548152906001019060200180831161073157829003601f168201915b505050505081565b6000806000806000600160008773ffffffffffffffffffffffffffffffffffffffff1673ffffffffffffffffffffffffffffffffffffffff16815260200190815260200160002060009054906101000a900460ff161561093c57600260008773ffffffffffffffffffffffffffffffffffffffff1673ffffffffffffffffffffffffffffffffffffffff16815260200190815260200160002060000154600260008873ffffffffffffffffffffffffffffffffffffffff1673ffffffffffffffffffffffffffffffffffffffff16815260200190815260200160002060010154600260008973ffffffffffffffffffffffffffffffffffffffff1673ffffffffffffffffffffffffffffffffffffffff16815260200190815260200160002060020154600260008a73ffffffffffffffffffffffffffffffffffffffff1673ffffffffffffffffffffffffffffffffffffffff16815260200190815260200160002060030160009054906101000a900467ffffffffffffffff16600260008b73ffffffffffffffffffffffffffffffffffffffff1673ffffffffffffffffffffffffffffffffffffffff16815260200190815260200160002060030160089054906101000a900460ff168167ffffffffffffffff1691509450945094509450945061093d565b5b91939590929450565b60036020528060005260406000206000915090508060000160009054906101000a900467ffffffffffffffff16908060010154905082565b600660009054906101000a900473ffffffffffffffffffffffffffffffffffffffff1681565b600d60009054906101000a900473ffffffffffffffffffffffffffffffffffffffff1681565b6109d2611332565b610a44576040517f08c379a00000000000000000000000000000000000000000000000000000000081526004018080602001828103825260208152602001807f4f776e61626c653a2063616c6c6572206973206e6f7420746865206f776e657281525060200191505060405180910390fd5b80600c8190555050565b600b60089054906101000a900467ffffffffffffffff1681565b600b60009054906101000a900467ffffffffffffffff1681565b610a8a611332565b610afc576040517f08c379a00000000000000000000000000000000000000000000000000000000081526004018080602001828103825260208152602001807f4f776e61626c653a2063616c6c6572206973206e6f7420746865206f776e657281525060200191505060405180910390fd5b60008167ffffffffffffffff161415610b7d576040517f08c379a00000000000000000000000000000000000000000000000000000000081526004018080602001828103825260128152602001807f5a65726f20696e7465726573742072617465000000000000000000000000000081525060200191505060405180910390fd5b600b600881819054906101000a900467ffffffffffffffff168092919060010191906101000a81548167ffffffffffffffff021916908367ffffffffffffffff1602179055505060405180604001604052808267ffffffffffffffff1681526020014281525060036000600b60089054906101000a900467ffffffffffffffff1667ffffffffffffffff1667ffffffffffffffff16815260200190815260200160002060008201518160000160006101000a81548167ffffffffffffffff021916908367ffffffffffffffff1602179055506020820151816001015590505080600b60006101000a81548167ffffffffffffffff021916908367ffffffffffffffff16021790555050565b60008033905060011515600160008373ffffffffffffffffffffffffffffffffffffffff1673ffffffffffffffffffffffffffffffffffffffff16815260200190815260200160002060009054906101000a900460ff16151514610d54576040517f08c379a00000000000000000000000000000000000000000000000000000000081526004018080602001828103825260188152602001807f4e6f207374616b657320666f756e6420666f722075736572000000000000000081525060200191505060405180910390fd5b600260008273ffffffffffffffffffffffffffffffffffffffff1673ffffffffffffffffffffffffffffffffffffffff16815260200190815260200160002060020154421015610e0c576040517f08c379a000000000000000000000000000000000000000000000000000000000815260040180806020018281038252601b8152602001807f52657175657374696e67206265666f7265206c6f636b2074696d65000000000081525060200191505060405180910390fd5b60001515600260008373ffffffffffffffffffffffffffffffffffffffff1673ffffffffffffffffffffffffffffffffffffffff16815260200190815260200160002060030160089054906101000a900460ff16151514610ed5576040517f08c379a00000000000000000000000000000000000000000000000000000000081526004018080602001828103825260108152602001807f416c72656164792070616964206f75740000000000000000000000000000000081525060200191505060405180910390fd5b610ede81611772565b91505090565b6000610eef82611adb565b9050919050565b600a5481565b610f04611332565b610f76576040517f08c379a00000000000000000000000000000000000000000000000000000000081526004018080602001828103825260208152602001807f4f776e61626c653a2063616c6c6572206973206e6f7420746865206f776e657281525060200191505060405180910390fd5b600073ffffffffffffffffffffffffffffffffffffffff166000809054906101000a900473ffffffffffffffffffffffffffffffffffffffff1673ffffffffffffffffffffffffffffffffffffffff167f8be0079c531659141344cd1fd0a4f28419497f9722a3daafe3b4186f6b6457e060405160405180910390a360008060006101000a81548173ffffffffffffffffffffffffffffffffffffffff021916908373ffffffffffffffffffffffffffffffffffffffff160217905550565b60003382600660009054906101000a900473ffffffffffffffffffffffffffffffffffffffff1680600d60006101000a81548173ffffffffffffffffffffffffffffffffffffffff021916908373ffffffffffffffffffffffffffffffffffffffff1602179055506000600d60009054906101000a900473ffffffffffffffffffffffffffffffffffffffff1673ffffffffffffffffffffffffffffffffffffffff1663dd62ed3e85306040518363ffffffff1660e01b8152600401808373ffffffffffffffffffffffffffffffffffffffff1673ffffffffffffffffffffffffffffffffffffffff1681526020018273ffffffffffffffffffffffffffffffffffffffff1673ffffffffffffffffffffffffffffffffffffffff1681526020019250505060206040518083038186803b15801561117257600080fd5b505afa158015611186573d6000803e3d6000fd5b505050506040513d602081101561119c57600080fd5b8101908080519060200190929190505050905080831115611208576040517f08c379a00000000000000000000000000000000000000000000000000000000081526004018080602001828103825260218152602001806129156021913960400191505060405180910390fd5b6000861161127e576040517f08c379a00000000000000000000000000000000000000000000000000000000081526004018080602001828103825260178152602001807f526577617264206d75737420626520706f73697469766500000000000000000081525060200191505060405180910390fd5b60003390506112b08188600660009054906101000a900473ffffffffffffffffffffffffffffffffffffffff16611edb565b6112be5760009550506112fa565b6112d387600854611ef290919063ffffffff16565b6008819055506112ee87600954611ef290919063ffffffff16565b60098190555060019550505b50505050919050565b60085481565b60008060009054906101000a900473ffffffffffffffffffffffffffffffffffffffff16905090565b60008060009054906101000a900473ffffffffffffffffffffffffffffffffffffffff1673ffffffffffffffffffffffffffffffffffffffff16611374611f7a565b73ffffffffffffffffffffffffffffffffffffffff1614905090565b600560009054906101000a900473ffffffffffffffffffffffffffffffffffffffff1681565b60003382600560009054906101000a900473ffffffffffffffffffffffffffffffffffffffff1680600d60006101000a81548173ffffffffffffffffffffffffffffffffffffffff021916908373ffffffffffffffffffffffffffffffffffffffff1602179055506000600d60009054906101000a900473ffffffffffffffffffffffffffffffffffffffff1673ffffffffffffffffffffffffffffffffffffffff1663dd62ed3e85306040518363ffffffff1660e01b8152600401808373ffffffffffffffffffffffffffffffffffffffff1673ffffffffffffffffffffffffffffffffffffffff1681526020018273ffffffffffffffffffffffffffffffffffffffff1673ffffffffffffffffffffffffffffffffffffffff1681526020019250505060206040518083038186803b1580156114f357600080fd5b505afa158015611507573d6000803e3d6000fd5b505050506040513d602081101561151d57600080fd5b8101908080519060200190929190505050905080831115611589576040517f08c379a00000000000000000000000000000000000000000000000000000000081526004018080602001828103825260218152602001806129156021913960400191505060405180910390fd5b600086116115ff576040517f08c379a00000000000000000000000000000000000000000000000000000000081526004018080602001828103825260148152602001807f43616e2774207374616b65203020616d6f756e7400000000000000000000000081525060200191505060405180910390fd5b600033905060001515600160008373ffffffffffffffffffffffffffffffffffffffff1673ffffffffffffffffffffffffffffffffffffffff16815260200190815260200160002060009054906101000a900460ff161515146116ca576040517f08c379a000000000000000000000000000000000000000000000000000000000815260040180806020018281038252600e8152602001807f416c7265616479207374616b656400000000000000000000000000000000000081525060200191505060405180910390fd5b6116d48188611f82565b95505050505050919050565b60095481565b60075481565b6116f4611332565b611766576040517f08c379a00000000000000000000000000000000000000000000000000000000081526004018080602001828103825260208152602001807f4f776e61626c653a2063616c6c6572206973206e6f7420746865206f776e657281525060200191505060405180910390fd5b61176f816121ea565b50565b60008061177e83611adb565b90506000600260008573ffffffffffffffffffffffffffffffffffffffff1673ffffffffffffffffffffffffffffffffffffffff16815260200190815260200160002060000154905060095482111561183f576040517f08c379a00000000000000000000000000000000000000000000000000000000081526004018080602001828103825260128152602001807f4e6f7420656e6f7567682072657761726473000000000000000000000000000081525060200191505060405180910390fd5b600061186e8583600560009054906101000a900473ffffffffffffffffffffffffffffffffffffffff1661232e565b9050600061189f8685600660009054906101000a900473ffffffffffffffffffffffffffffffffffffffff1661232e565b90508180156118ab5750805b61191d576040517f08c379a000000000000000000000000000000000000000000000000000000000815260040180806020018281038252600c8152602001807f4572726f7220706179696e67000000000000000000000000000000000000000081525060200191505060405180910390fd5b8573ffffffffffffffffffffffffffffffffffffffff16600660009054906101000a900473ffffffffffffffffffffffffffffffffffffffff1673ffffffffffffffffffffffffffffffffffffffff16600560009054906101000a900473ffffffffffffffffffffffffffffffffffffffff1673ffffffffffffffffffffffffffffffffffffffff167f0fd12da3890315fa38b862dc2fff7f24c95981f6508cc2be090640de791b671e8688604051808381526020018281526020019250505060405180910390a46119fa83600a5461245e90919063ffffffff16565b600a81905550611a158460095461245e90919063ffffffff16565b6009819055506001600260008873ffffffffffffffffffffffffffffffffffffffff1673ffffffffffffffffffffffffffffffffffffffff16815260200190815260200160002060030160086101000a81548160ff0219169083151502179055506000600160008873ffffffffffffffffffffffffffffffffffffffff1673ffffffffffffffffffffffffffffffffffffffff16815260200190815260200160002060006101000a81548160ff0219169083151502179055506001945050505050919050565b6000600160008373ffffffffffffffffffffffffffffffffffffffff1673ffffffffffffffffffffffffffffffffffffffff16815260200190815260200160002060009054906101000a900460ff16611b375760009050611ed6565b600080600080600260008773ffffffffffffffffffffffffffffffffffffffff1673ffffffffffffffffffffffffffffffffffffffff16815260200190815260200160002060000154600260008873ffffffffffffffffffffffffffffffffffffffff1673ffffffffffffffffffffffffffffffffffffffff16815260200190815260200160002060010154600260008973ffffffffffffffffffffffffffffffffffffffff1673ffffffffffffffffffffffffffffffffffffffff16815260200190815260200160002060020154600260008a73ffffffffffffffffffffffffffffffffffffffff1673ffffffffffffffffffffffffffffffffffffffff16815260200190815260200160002060030160009054906101000a900467ffffffffffffffff1693509350935093506000806000611c7d868661245e90919063ffffffff16565b905060008490505b600b60089054906101000a900467ffffffffffffffff1667ffffffffffffffff168167ffffffffffffffff161015611e1257600360006001830167ffffffffffffffff1667ffffffffffffffff16815260200190815260200160002060010154861015611cf157611e12565b611d3187600360006001850167ffffffffffffffff1667ffffffffffffffff1681526020019081526020016000206001015461245e90919063ffffffff16565b9350611dc6611d4b612710846124e790919063ffffffff16565b611db886611daa600360008767ffffffffffffffff1667ffffffffffffffff16815260200190815260200160002060000160009054906101000a900467ffffffffffffffff1667ffffffffffffffff168d6124e790919063ffffffff16565b6124e790919063ffffffff16565b61256d90919063ffffffff16565b92508288019750600360006001830167ffffffffffffffff1667ffffffffffffffff16815260200190815260200160002060010154965084806001019550508080600101915050611c85565b5084861015611ecb57611e2e868661245e90919063ffffffff16565b9250611ec3611e48612710836124e790919063ffffffff16565b611eb5600360008867ffffffffffffffff1667ffffffffffffffff16815260200190815260200160002060000160009054906101000a900467ffffffffffffffff1667ffffffffffffffff16611ea78b886124e790919063ffffffff16565b6124e790919063ffffffff16565b61256d90919063ffffffff16565b915081870196505b819750505050505050505b919050565b6000611ee9843085856125fc565b90509392505050565b600080828401905083811015611f70576040517f08c379a000000000000000000000000000000000000000000000000000000000815260040180806020018281038252601b8152602001807f536166654d6174683a206164646974696f6e206f766572666c6f77000000000081525060200191505060405180910390fd5b8091505092915050565b600033905090565b6000611fb18383600560009054906101000a900473ffffffffffffffffffffffffffffffffffffffff16611edb565b611fbe57600090506121e4565b60018060008573ffffffffffffffffffffffffffffffffffffffff1673ffffffffffffffffffffffffffffffffffffffff16815260200190815260200160002060006101000a81548160ff0219169083151502179055506040518060a00160405280838152602001428152602001612041600c5442611ef290919063ffffffff16565b8152602001600b60089054906101000a900467ffffffffffffffff1667ffffffffffffffff16815260200160001515815250600260008573ffffffffffffffffffffffffffffffffffffffff1673ffffffffffffffffffffffffffffffffffffffff16815260200190815260200160002060008201518160000155602082015181600101556040820151816002015560608201518160030160006101000a81548167ffffffffffffffff021916908367ffffffffffffffff16021790555060808201518160030160086101000a81548160ff0219169083151502179055509050508273ffffffffffffffffffffffffffffffffffffffff16600560009054906101000a900473ffffffffffffffffffffffffffffffffffffffff1673ffffffffffffffffffffffffffffffffffffffff167f5dac0c1b1112564a045ba943c9d50270893e8e826c49be8e7073adc713ab7bd7846040518082815260200191505060405180910390a36121be82600a54611ef290919063ffffffff16565b600a819055506121d982600754611ef290919063ffffffff16565b600781905550600190505b92915050565b600073ffffffffffffffffffffffffffffffffffffffff168173ffffffffffffffffffffffffffffffffffffffff161415612270576040517f08c379a00000000000000000000000000000000000000000000000000000000081526004018080602001828103825260268152602001806129366026913960400191505060405180910390fd5b8073ffffffffffffffffffffffffffffffffffffffff166000809054906101000a900473ffffffffffffffffffffffffffffffffffffffff1673ffffffffffffffffffffffffffffffffffffffff167f8be0079c531659141344cd1fd0a4f28419497f9722a3daafe3b4186f6b6457e060405160405180910390a3806000806101000a81548173ffffffffffffffffffffffffffffffffffffffff021916908373ffffffffffffffffffffffffffffffffffffffff16021790555050565b600081600d60006101000a81548173ffffffffffffffffffffffffffffffffffffffff021916908373ffffffffffffffffffffffffffffffffffffffff160217905550600d60009054906101000a900473ffffffffffffffffffffffffffffffffffffffff1673ffffffffffffffffffffffffffffffffffffffff1663a9059cbb85856040518363ffffffff1660e01b8152600401808373ffffffffffffffffffffffffffffffffffffffff1673ffffffffffffffffffffffffffffffffffffffff16815260200182815260200192505050602060405180830381600087803b15801561241a57600080fd5b505af115801561242e573d6000803e3d6000fd5b505050506040513d602081101561244457600080fd5b810190808051906020019092919050505090509392505050565b6000828211156124d6576040517f08c379a000000000000000000000000000000000000000000000000000000000815260040180806020018281038252601e8152602001807f536166654d6174683a207375627472616374696f6e206f766572666c6f77000081525060200191505060405180910390fd5b600082840390508091505092915050565b6000808314156124fa5760009050612567565b600082840290508284828161250b57fe5b0414612562576040517f08c379a000000000000000000000000000000000000000000000000000000000815260040180806020018281038252602181526020018061295c6021913960400191505060405180910390fd5b809150505b92915050565b60008082116125e4576040517f08c379a000000000000000000000000000000000000000000000000000000000815260040180806020018281038252601a8152602001807f536166654d6174683a206469766973696f6e206279207a65726f00000000000081525060200191505060405180910390fd5b60008284816125ef57fe5b0490508091505092915050565b600084838380600d60006101000a81548173ffffffffffffffffffffffffffffffffffffffff021916908373ffffffffffffffffffffffffffffffffffffffff1602179055506000600d60009054906101000a900473ffffffffffffffffffffffffffffffffffffffff1673ffffffffffffffffffffffffffffffffffffffff1663dd62ed3e85306040518363ffffffff1660e01b8152600401808373ffffffffffffffffffffffffffffffffffffffff1673ffffffffffffffffffffffffffffffffffffffff1681526020018273ffffffffffffffffffffffffffffffffffffffff1673ffffffffffffffffffffffffffffffffffffffff1681526020019250505060206040518083038186803b15801561271757600080fd5b505afa15801561272b573d6000803e3d6000fd5b505050506040513d602081101561274157600080fd5b81019080805190602001909291905050509050808311156127ad576040517f08c379a00000000000000000000000000000000000000000000000000000000081526004018080602001828103825260218152602001806129156021913960400191505060405180910390fd5b85600d60006101000a81548173ffffffffffffffffffffffffffffffffffffffff021916908373ffffffffffffffffffffffffffffffffffffffff160217905550600d60009054906101000a900473ffffffffffffffffffffffffffffffffffffffff1673ffffffffffffffffffffffffffffffffffffffff166323b872dd8a8a8a6040518463ffffffff1660e01b8152600401808473ffffffffffffffffffffffffffffffffffffffff1673ffffffffffffffffffffffffffffffffffffffff1681526020018373ffffffffffffffffffffffffffffffffffffffff1673ffffffffffffffffffffffffffffffffffffffff1681526020018281526020019350505050602060405180830381600087803b1580156128cb57600080fd5b505af11580156128df573d6000803e3d6000fd5b505050506040513d60208110156128f557600080fd5b810190808051906020019092919050505094505050505094935050505056fe4d616b65207375726520746f2061646420656e6f75676820616c6c6f77616e63654f776e61626c653a206e6577206f776e657220697320746865207a65726f2061646472657373536166654d6174683a206d756c7469706c69636174696f6e206f766572666c6f77a265627a7a72315820500b3c33d4ecf3789d1ad3862c32bd0a71535edc55389c8a271f4ce056e5060e64736f6c63430005100032",
  "source": "pragma solidity ^0.5.0;\r\n\r\n/**\r\n * @dev Interface of the ERC20 standard as defined in the EIP. Does not include\r\n * the optional functions; to access them see `ERC20Detailed`.\r\n */\r\ninterface IERC20 {\r\n    function totalSupply() external view returns (uint256);\r\n\r\n    function balanceOf(address account) external view returns (uint256);\r\n\r\n    function transfer(address recipient, uint256 amount)\r\n        external\r\n        returns (bool);\r\n\r\n    function allowance(address owner, address spender)\r\n        external\r\n        view\r\n        returns (uint256);\r\n\r\n    function approve(address spender, uint256 amount) external returns (bool);\r\n\r\n    function transferFrom(\r\n        address sender,\r\n        address recipient,\r\n        uint256 amount\r\n    ) external returns (bool);\r\n\r\n    event Transfer(address indexed from, address indexed to, uint256 value);\r\n\r\n    event Approval(\r\n        address indexed owner,\r\n        address indexed spender,\r\n        uint256 value\r\n    );\r\n}\r\n\r\n// File: openzeppelin-solidity/contracts/math/SafeMath.sol\r\n\r\npragma solidity ^0.5.0;\r\n\r\nlibrary SafeMath {\r\n    function add(uint256 a, uint256 b) internal pure returns (uint256) {\r\n        uint256 c = a + b;\r\n        require(c >= a, \"SafeMath: addition overflow\");\r\n\r\n        return c;\r\n    }\r\n\r\n    function sub(uint256 a, uint256 b) internal pure returns (uint256) {\r\n        require(b <= a, \"SafeMath: subtraction overflow\");\r\n        uint256 c = a - b;\r\n\r\n        return c;\r\n    }\r\n\r\n    function mul(uint256 a, uint256 b) internal pure returns (uint256) {\r\n        if (a == 0) {\r\n            return 0;\r\n        }\r\n\r\n        uint256 c = a * b;\r\n        require(c / a == b, \"SafeMath: multiplication overflow\");\r\n\r\n        return c;\r\n    }\r\n\r\n    function div(uint256 a, uint256 b) internal pure returns (uint256) {\r\n        // Solidity only automatically asserts when dividing by 0\r\n        require(b > 0, \"SafeMath: division by zero\");\r\n        uint256 c = a / b;\r\n        // assert(a == b * c + a % b); // There is no case in which this doesn't hold\r\n\r\n        return c;\r\n    }\r\n\r\n    function mod(uint256 a, uint256 b) internal pure returns (uint256) {\r\n        require(b != 0, \"SafeMath: modulo by zero\");\r\n        return a % b;\r\n    }\r\n}\r\n\r\n// File: @openzeppelin/contracts/GSN/Context.sol\r\n\r\npragma solidity ^0.5.0;\r\n\r\ncontract Context {\r\n    constructor() internal {}\r\n\r\n    // solhint-disable-previous-line no-empty-blocks\r\n\r\n    function _msgSender() internal view returns (address payable) {\r\n        return msg.sender;\r\n    }\r\n\r\n    function _msgData() internal view returns (bytes memory) {\r\n        this; // silence state mutability warning without generating bytecode - see https://github.com/ethereum/solidity/issues/2691\r\n        return msg.data;\r\n    }\r\n}\r\n\r\n// File: @openzeppelin/contracts/ownership/Ownable.sol\r\n\r\npragma solidity ^0.5.0;\r\n\r\ncontract Ownable is Context {\r\n    address private _owner;\r\n\r\n    event OwnershipTransferred(\r\n        address indexed previousOwner,\r\n        address indexed newOwner\r\n    );\r\n\r\n    constructor() internal {\r\n        _owner = _msgSender();\r\n        emit OwnershipTransferred(address(0), _owner);\r\n    }\r\n\r\n    function owner() public view returns (address) {\r\n        return _owner;\r\n    }\r\n\r\n    modifier onlyOwner() {\r\n        require(isOwner(), \"Ownable: caller is not the owner\");\r\n        _;\r\n    }\r\n\r\n    function isOwner() public view returns (bool) {\r\n        return _msgSender() == _owner;\r\n    }\r\n\r\n    function renounceOwnership() public onlyOwner {\r\n        emit OwnershipTransferred(_owner, address(0));\r\n        _owner = address(0);\r\n    }\r\n\r\n    function transferOwnership(address newOwner) public onlyOwner {\r\n        _transferOwnership(newOwner);\r\n    }\r\n\r\n    function _transferOwnership(address newOwner) internal {\r\n        require(\r\n            newOwner != address(0),\r\n            \"Ownable: new owner is the zero address\"\r\n        );\r\n        emit OwnershipTransferred(_owner, newOwner);\r\n        _owner = newOwner;\r\n    }\r\n}\r\n\r\npragma solidity ^0.5.0;\r\n\r\ncontract Liquidity_v8 is Ownable {\r\n    using SafeMath for uint256;\r\n\r\n    /**\r\n     * @dev Structs to store user staking data.\r\n     */\r\n    struct Deposits {\r\n        uint256 depositAmount;\r\n        uint256 depositTime;\r\n        uint256 endTime;\r\n        uint64 userIndex;\r\n        bool paid;\r\n    }\r\n\r\n    /**\r\n     * @dev Structs to store interest rate change.\r\n     */\r\n    struct Rates {\r\n        uint64 newInterestRate;\r\n        uint256 timeStamp;\r\n    }\r\n\r\n    mapping(address => bool) private hasStaked;\r\n    mapping(address => Deposits) private deposits;\r\n    mapping(uint64 => Rates) public rates;\r\n\r\n    string public name;\r\n    address public tokenAddress;\r\n    address public rewardTokenAddress;\r\n    uint256 public stakedTotal;\r\n    uint256 public totalReward;\r\n    uint256 public rewardBalance;\r\n    uint256 public stakedBalance;\r\n    uint64 public rate;\r\n    uint64 public index;\r\n    uint256 public lockDuration;\r\n\r\n    IERC20 public ERC20Interface;\r\n    \r\n    /**\r\n     * @dev Emitted when user stakes 'stakedAmount' value of tokens\r\n     */\r\n    event Staked(\r\n        address indexed token,\r\n        address indexed staker_,\r\n        uint256 stakedAmount_\r\n    );\r\n\r\n    /**\r\n     * @dev Emitted when user withdraws his stakings\r\n     */\r\n    event PaidOut(\r\n        address indexed token,\r\n        address indexed rewardToken,\r\n        address indexed staker_,\r\n        uint256 amount_,\r\n        uint256 reward_\r\n    );\r\n\r\n    /**\r\n     *   @param\r\n     *   name_, name of the contract\r\n     *   tokenAddress_, contract address of the token\r\n     *   rewardTokenAddress_, contract address of the reward token\r\n     *   rate_, rate multiplied by 100\r\n     *   lockduration_, duration in days\r\n     */\r\n    constructor(\r\n        string memory name_,\r\n        address tokenAddress_,\r\n        address rewardTokenAddress_,\r\n        uint64 rate_,\r\n        uint256 lockDuration_\r\n    ) public Ownable() {\r\n        name = name_;\r\n        require(tokenAddress_ != address(0), \"Token address: 0 address\");\r\n        tokenAddress = tokenAddress_;\r\n        require(rewardTokenAddress_ != address(0), \"Token address: 0 address\");\r\n        rewardTokenAddress = rewardTokenAddress_;\r\n        require(rate_ != 0, \"Zero interest rate\");\r\n        rate = rate_;\r\n        lockDuration = lockDuration_;\r\n        rates[index] = Rates(rate, block.timestamp);\r\n    }\r\n\r\n    /**\r\n     * @dev to set interest rates\r\n     */\r\n    function setRate(uint64 rate_) public onlyOwner {\r\n        require(rate_ != 0, \"Zero interest rate\");\r\n        index++;\r\n        rates[index] = Rates(rate_, block.timestamp);\r\n        rate = rate_;\r\n    }\r\n\r\n    /**\r\n     *  Requirements:\r\n     *  `lockduration_' lock days\r\n     *  @dev to set lock duration days\r\n     */\r\n    function changeLockDuration(uint256 lockduration_) public onlyOwner {\r\n        lockDuration = lockduration_;\r\n    }\r\n\r\n    /**\r\n     * @dev to add rewards to the staking contract\r\n     * once the allowance is given to this contract for 'rewardAmount' by the user\r\n     */\r\n    function addReward(uint256 rewardAmount)\r\n        public\r\n        _hasAllowance(msg.sender, rewardAmount, rewardTokenAddress)\r\n        returns (bool)\r\n    {\r\n        require(rewardAmount > 0, \"Reward must be positive\");\r\n        address from = msg.sender;\r\n        if (!_payMe(from, rewardAmount, rewardTokenAddress)) {\r\n            return false;\r\n        }\r\n        totalReward = totalReward.add(rewardAmount);\r\n        rewardBalance = rewardBalance.add(rewardAmount);\r\n        return true;\r\n    }\r\n\r\n    /**\r\n     * @dev returns user staking data\r\n     */\r\n    function userDeposits(address user)\r\n        public\r\n        view\r\n        returns (\r\n            uint256,\r\n            uint256,\r\n            uint256,\r\n            uint256,\r\n            bool\r\n        )\r\n    {\r\n        if (hasStaked[user]) {\r\n            return (\r\n                deposits[user].depositAmount,\r\n                deposits[user].depositTime,\r\n                deposits[user].endTime,\r\n                deposits[user].userIndex,\r\n                deposits[user].paid\r\n            );\r\n        }\r\n    }\r\n\r\n    /**\r\n     * Requirements:\r\n     * - `amount` Amount to be staked\r\n     /**\r\n     * @dev to stake 'amount' value of tokens \r\n     * once the user has given allowance to the staking contract\r\n     */\r\n    function stake(uint256 amount)\r\n        public\r\n        _hasAllowance(msg.sender, amount, tokenAddress)\r\n        returns (bool)\r\n    {\r\n        require(amount > 0, \"Can't stake 0 amount\");\r\n        address from = msg.sender;\r\n        require(hasStaked[from] == false, \"Already staked\");\r\n        return _stake(from, amount);\r\n    }\r\n\r\n    function _stake(address staker, uint256 amount) private returns (bool) {\r\n        if (!_payMe(staker, amount, tokenAddress)) {\r\n            return false;\r\n        }\r\n        hasStaked[staker] = true;\r\n        deposits[staker] = Deposits(\r\n            amount,\r\n            block.timestamp,\r\n            block.timestamp.add(lockDuration), //(lockDuration * 24 * 3600)\r\n            index,\r\n            false\r\n        );\r\n        emit Staked(tokenAddress, staker, amount);\r\n\r\n        // Transfer is completed\r\n        stakedBalance = stakedBalance.add(amount);\r\n        stakedTotal = stakedTotal.add(amount);\r\n        return true;\r\n    }\r\n\r\n    /**\r\n     * @dev to withdraw user stakings after the lock period ends.\r\n     */\r\n    function withdraw() public returns (bool) {\r\n        address from = msg.sender;\r\n        require(hasStaked[from] == true, \"No stakes found for user\");\r\n        require(\r\n            block.timestamp >= deposits[from].endTime,\r\n            \"Requesting before lock time\"\r\n        );\r\n        require(deposits[from].paid == false, \"Already paid out\");\r\n\r\n        return (_withdraw(from));\r\n    }\r\n\r\n    function _withdraw(address from) private returns (bool) {\r\n        uint256 reward = _calculate(from);\r\n        uint256 amount = deposits[from].depositAmount;\r\n        require(reward <= rewardBalance, \"Not enough rewards\");\r\n\r\n        bool principalPaid = _payDirect(from, amount, tokenAddress);\r\n        bool rewardPaid = _payDirect(from, reward, rewardTokenAddress);\r\n        require(principalPaid && rewardPaid, \"Error paying\");\r\n        emit PaidOut(tokenAddress, rewardTokenAddress, from, amount, reward);\r\n        stakedBalance = stakedBalance.sub(amount);\r\n        rewardBalance = rewardBalance.sub(reward);\r\n        deposits[from].paid = true;\r\n        hasStaked[from] = false;\r\n        return true;\r\n    }\r\n\r\n    /**\r\n     * @param\r\n     * 'from' user wallet address\r\n     * @dev to calculate the rewards based on user staked 'amount'\r\n     */\r\n    function calculate(address from) public view returns (uint256) {\r\n        return _calculate(from);\r\n    }\r\n\r\n    function _calculate(address from) private view returns (uint256) {\r\n        if (!hasStaked[from]) return 0;\r\n        (\r\n            uint256 amount,\r\n            uint256 depositTime,\r\n            uint256 endTime,\r\n            uint64 userIndex\r\n        ) =\r\n            (\r\n                deposits[from].depositAmount,\r\n                deposits[from].depositTime,\r\n                deposits[from].endTime,\r\n                deposits[from].userIndex\r\n            );\r\n\r\n        uint256 time;\r\n        uint256 interest;\r\n        uint256 _lockduration = endTime.sub(depositTime);\r\n        for (uint64 i = userIndex; i < index; i++) {\r\n            //loop runs till the latest index/interest rate change\r\n            if (endTime < rates[i + 1].timeStamp) {\r\n                //if the change occurs after the endTime loop breaks\r\n                break;\r\n            } else {\r\n                time = rates[i + 1].timeStamp.sub(depositTime);\r\n                interest = amount.mul(rates[i].newInterestRate).mul(time).div(\r\n                    _lockduration.mul(10000)\r\n                ); //replace with (_lockduration * 10000)\r\n                amount += interest;\r\n                depositTime = rates[i + 1].timeStamp;\r\n                userIndex++;\r\n            }\r\n        }\r\n\r\n        if (depositTime < endTime) {\r\n            //final calculation for the remaining time period\r\n            time = endTime.sub(depositTime);\r\n\r\n            interest = time\r\n                .mul(amount)\r\n                .mul(rates[userIndex].newInterestRate)\r\n                .div(_lockduration.mul(10000)); //replace with (lockduration * 10000)\r\n\r\n            amount += interest;\r\n        }\r\n\r\n        return (interest);\r\n    }\r\n\r\n    function _payMe(\r\n        address payer,\r\n        uint256 amount,\r\n        address token\r\n    ) private returns (bool) {\r\n        return _payTo(payer, address(this), amount, token);\r\n    }\r\n\r\n    function _payTo(\r\n        address allower,\r\n        address receiver,\r\n        uint256 amount,\r\n        address token\r\n    ) private _hasAllowance(allower, amount, token) returns (bool) {\r\n        // Request to transfer amount from the contract to receiver.\r\n        // contract does not own the funds, so the allower must have added allowance to the contract\r\n        // Allower is the original owner.\r\n        ERC20Interface = IERC20(token);\r\n        return ERC20Interface.transferFrom(allower, receiver, amount);\r\n    }\r\n\r\n    function _payDirect(\r\n        address to,\r\n        uint256 amount,\r\n        address token\r\n    ) private returns (bool) {\r\n        ERC20Interface = IERC20(token);\r\n        return ERC20Interface.transfer(to, amount);\r\n    }\r\n\r\n    modifier _hasAllowance(\r\n        address allower,\r\n        uint256 amount,\r\n        address token\r\n    ) {\r\n        // Make sure the allower has provided the right allowance.\r\n        ERC20Interface = IERC20(token);\r\n        uint256 ourAllowance = ERC20Interface.allowance(allower, address(this));\r\n        require(amount <= ourAllowance, \"Make sure to add enough allowance\");\r\n        _;\r\n    }\r\n}\r\n",
  "sourcePath": "C:\\Users\\chait\\OneDrive\\Desktop\\Minddeft\\Projects\\Bonfi\\Testing\\Aragon\\Version1\\contracts\\Liquidity_v8.sol",
  "compiler": {
    "name": "solc",
    "version": "0.5.16+commit.9c3226ce.Emscripten.clang"
  },
  "schemaVersion": "3.1.0",
  "updatedAt": "2021-03-22T05:26:44.338Z",
  "devdoc": {
    "methods": {
      "addReward(uint256)": {
        "details": "to add rewards to the staking contract once the allowance is given to this contract for 'rewardAmount' by the user"
      },
      "calculate(address)": {
        "details": "to calculate the rewards based on user staked 'amount'",
        "params": {
          "": "'from' user wallet address"
        }
      },
      "changeLockDuration(uint256)": {
        "details": "to set lock duration days"
      },
      "constructor": {
        "params": {
          "name_": ", name of the contract  tokenAddress_, contract address of the token  rewardTokenAddress_, contract address of the reward token  rate_, rate multiplied by 100  lockduration_, duration in days"
        }
      },
      "setRate(uint64)": {
        "details": "to set interest rates"
      },
      "stake(uint256)": {
        "details": "to stake 'amount' value of tokens  once the user has given allowance to the staking contract"
      },
      "userDeposits(address)": {
        "details": "returns user staking data"
      },
      "withdraw()": {
        "details": "to withdraw user stakings after the lock period ends."
      }
    }
  },
  "userdoc": {
    "methods": {
      "changeLockDuration(uint256)": {
        "notice": "Requirements: `lockduration_' lock days"
      },
      "stake(uint256)": {
        "notice": "Requirements: - `amount` Amount to be staked /**"
      }
    }
  }
}