{
  "contractName": "Professional",
  "abi": [
    {
      "inputs": [
        {
          "internalType": "string",
          "name": "name_",
          "type": "string"
        },
        {
          "internalType": "address",
          "name": "tokenAddress_",
          "type": "address"
        }
      ],
      "payable": false,
      "stateMutability": "nonpayable",
      "type": "constructor"
    },
    {
      "anonymous": false,
      "inputs": [
        {
          "indexed": true,
          "internalType": "address",
          "name": "token",
          "type": "address"
        },
        {
          "indexed": true,
          "internalType": "address",
          "name": "staker_",
          "type": "address"
        },
        {
          "indexed": false,
          "internalType": "uint256",
          "name": "amount_",
          "type": "uint256"
        },
        {
          "indexed": false,
          "internalType": "uint256",
          "name": "reward_",
          "type": "uint256"
        }
      ],
      "name": "PaidOut",
      "type": "event"
    },
    {
      "anonymous": false,
      "inputs": [
        {
          "indexed": true,
          "internalType": "address",
          "name": "token",
          "type": "address"
        },
        {
          "indexed": true,
          "internalType": "address",
          "name": "staker_",
          "type": "address"
        },
        {
          "indexed": false,
          "internalType": "uint256",
          "name": "requestedAmount_",
          "type": "uint256"
        }
      ],
      "name": "Staked",
      "type": "event"
    },
    {
      "constant": true,
      "inputs": [],
      "name": "ERC20Interface",
      "outputs": [
        {
          "internalType": "contract IERC20",
          "name": "",
          "type": "address"
        }
      ],
      "payable": false,
      "stateMutability": "view",
      "type": "function"
    },
    {
      "constant": true,
      "inputs": [],
      "name": "name",
      "outputs": [
        {
          "internalType": "string",
          "name": "",
          "type": "string"
        }
      ],
      "payable": false,
      "stateMutability": "view",
      "type": "function"
    },
    {
      "constant": true,
      "inputs": [],
      "name": "rewardBalance",
      "outputs": [
        {
          "internalType": "uint256",
          "name": "",
          "type": "uint256"
        }
      ],
      "payable": false,
      "stateMutability": "view",
      "type": "function"
    },
    {
      "constant": true,
      "inputs": [],
      "name": "stakedBalance",
      "outputs": [
        {
          "internalType": "uint256",
          "name": "",
          "type": "uint256"
        }
      ],
      "payable": false,
      "stateMutability": "view",
      "type": "function"
    },
    {
      "constant": true,
      "inputs": [],
      "name": "stakedTotal",
      "outputs": [
        {
          "internalType": "uint256",
          "name": "",
          "type": "uint256"
        }
      ],
      "payable": false,
      "stateMutability": "view",
      "type": "function"
    },
    {
      "constant": true,
      "inputs": [],
      "name": "tokenAddress",
      "outputs": [
        {
          "internalType": "address",
          "name": "",
          "type": "address"
        }
      ],
      "payable": false,
      "stateMutability": "view",
      "type": "function"
    },
    {
      "constant": true,
      "inputs": [],
      "name": "totalReward",
      "outputs": [
        {
          "internalType": "uint256",
          "name": "",
          "type": "uint256"
        }
      ],
      "payable": false,
      "stateMutability": "view",
      "type": "function"
    },
    {
      "constant": false,
      "inputs": [
        {
          "internalType": "uint256",
          "name": "rewardAmount",
          "type": "uint256"
        }
      ],
      "name": "addReward",
      "outputs": [
        {
          "internalType": "bool",
          "name": "",
          "type": "bool"
        }
      ],
      "payable": false,
      "stateMutability": "nonpayable",
      "type": "function"
    },
    {
      "constant": true,
      "inputs": [],
      "name": "userDeposits",
      "outputs": [
        {
          "internalType": "uint256",
          "name": "",
          "type": "uint256"
        },
        {
          "internalType": "uint256",
          "name": "",
          "type": "uint256"
        },
        {
          "internalType": "bool",
          "name": "",
          "type": "bool"
        }
      ],
      "payable": false,
      "stateMutability": "view",
      "type": "function"
    },
    {
      "constant": false,
      "inputs": [
        {
          "internalType": "uint256",
          "name": "amount",
          "type": "uint256"
        }
      ],
      "name": "stake",
      "outputs": [
        {
          "internalType": "bool",
          "name": "",
          "type": "bool"
        }
      ],
      "payable": false,
      "stateMutability": "nonpayable",
      "type": "function"
    },
    {
      "constant": false,
      "inputs": [],
      "name": "withdraw",
      "outputs": [
        {
          "internalType": "bool",
          "name": "",
          "type": "bool"
        }
      ],
      "payable": false,
      "stateMutability": "nonpayable",
      "type": "function"
    }
  ],
  "bytecode": "0x60806040523480156200001157600080fd5b50604051620017fa380380620017fa833981810160405260408110156200003757600080fd5b81019080805160405193929190846401000000008211156200005857600080fd5b838201915060208201858111156200006f57600080fd5b82518660018202830111640100000000821117156200008d57600080fd5b8083526020830192505050908051906020019080838360005b83811015620000c3578082015181840152602081019050620000a6565b50505050905090810190601f168015620000f15780820380516001836020036101000a031916815260200191505b506040526020018051906020019092919050505081600290805190602001906200011d9291906200020b565b50600073ffffffffffffffffffffffffffffffffffffffff168173ffffffffffffffffffffffffffffffffffffffff161415620001c2576040517f08c379a00000000000000000000000000000000000000000000000000000000081526004018080602001828103825260188152602001807f546f6b656e20616464726573733a20302061646472657373000000000000000081525060200191505060405180910390fd5b80600360006101000a81548173ffffffffffffffffffffffffffffffffffffffff021916908373ffffffffffffffffffffffffffffffffffffffff1602179055505050620002ba565b828054600181600116156101000203166002900490600052602060002090601f016020900481019282601f106200024e57805160ff19168380011785556200027f565b828001600101855582156200027f579182015b828111156200027e57825182559160200191906001019062000261565b5b5090506200028e919062000292565b5090565b620002b791905b80821115620002b357600081600090555060010162000299565b5090565b90565b61153080620002ca6000396000f3fe608060405234801561001057600080fd5b50600436106100a95760003560e01c8063750142e611610071578063750142e6146102015780639b2a73f51461021f5780639d76ea581461024f578063a694fc3a14610299578063aa5c3ab4146102df578063d66692a7146102fd576100a9565b806306fdde03146100ae5780631bbc4b83146101315780633ccfd60b1461017b5780635b9f00161461019d57806374de4ec4146101bb575b600080fd5b6100b661031b565b6040518080602001828103825283818151815260200191508051906020019080838360005b838110156100f65780820151818401526020810190506100db565b50505050905090810190601f1680156101235780820380516001836020036101000a031916815260200191505b509250505060405180910390f35b6101396103b9565b604051808273ffffffffffffffffffffffffffffffffffffffff1673ffffffffffffffffffffffffffffffffffffffff16815260200191505060405180910390f35b6101836103df565b604051808215151515815260200191505060405180910390f35b6101a5610699565b6040518082815260200191505060405180910390f35b6101e7600480360360208110156101d157600080fd5b810190808035906020019092919050505061069f565b604051808215151515815260200191505060405180910390f35b610209610774565b6040518082815260200191505060405180910390f35b61022761077a565b6040518084815260200183815260200182151515158152602001935050505060405180910390f35b61025761092d565b604051808273ffffffffffffffffffffffffffffffffffffffff1673ffffffffffffffffffffffffffffffffffffffff16815260200191505060405180910390f35b6102c5600480360360208110156102af57600080fd5b8101908080359060200190929190505050610953565b604051808215151515815260200191505060405180910390f35b6102e7610aaa565b6040518082815260200191505060405180910390f35b610305610ab0565b6040518082815260200191505060405180910390f35b60028054600181600116156101000203166002900480601f0160208091040260200160405190810160405280929190818152602001828054600181600116156101000203166002900480156103b15780601f10610386576101008083540402835291602001916103b1565b820191906000526020600020905b81548152906001019060200180831161039457829003601f168201915b505050505081565b600860009054906101000a900473ffffffffffffffffffffffffffffffffffffffff1681565b600033600115156000808373ffffffffffffffffffffffffffffffffffffffff1673ffffffffffffffffffffffffffffffffffffffff16815260200190815260200160002060009054906101000a900460ff161515146104a7576040517f08c379a00000000000000000000000000000000000000000000000000000000081526004018080602001828103825260188152602001807f4e6f207374616b657320666f756e6420666f722075736572000000000000000081525060200191505060405180910390fd5b6000339050610502603c600160008473ffffffffffffffffffffffffffffffffffffffff1673ffffffffffffffffffffffffffffffffffffffff16815260200190815260200160002060020154610ab690919063ffffffff16565b421015610577576040517f08c379a000000000000000000000000000000000000000000000000000000000815260040180806020018281038252601b8152602001807f52657175657374696e67206265666f7265206c6f636b2074696d65000000000081525060200191505060405180910390fd5b60001515600160008373ffffffffffffffffffffffffffffffffffffffff1673ffffffffffffffffffffffffffffffffffffffff16815260200190815260200160002060030160009054906101000a900460ff16151514610640576040517f08c379a00000000000000000000000000000000000000000000000000000000081526004018080602001828103825260108152602001807f416c72656164792070616964206f75740000000000000000000000000000000081525060200191505060405180910390fd5b6000600160008373ffffffffffffffffffffffffffffffffffffffff1673ffffffffffffffffffffffffffffffffffffffff1681526020019081526020016000206001015490506106918282610b3e565b935050505090565b60075481565b6000808211610716576040517f08c379a00000000000000000000000000000000000000000000000000000000081526004018080602001828103825260178152602001807f526577617264206d75737420626520706f73697469766500000000000000000081525060200191505060405180910390fd5b60003390506107258184610d2f565b61073357600091505061076f565b61074883600554610ab690919063ffffffff16565b60058190555061076383600654610ab690919063ffffffff16565b60068190555060019150505b919050565b60055481565b600080600033600115156000808373ffffffffffffffffffffffffffffffffffffffff1673ffffffffffffffffffffffffffffffffffffffff16815260200190815260200160002060009054906101000a900460ff16151514610845576040517f08c379a00000000000000000000000000000000000000000000000000000000081526004018080602001828103825260188152602001807f4e6f207374616b657320666f756e6420666f722075736572000000000000000081525060200191505060405180910390fd5b6000339050600160008273ffffffffffffffffffffffffffffffffffffffff1673ffffffffffffffffffffffffffffffffffffffff16815260200190815260200160002060010154600160008373ffffffffffffffffffffffffffffffffffffffff1673ffffffffffffffffffffffffffffffffffffffff16815260200190815260200160002060020154600160008473ffffffffffffffffffffffffffffffffffffffff1673ffffffffffffffffffffffffffffffffffffffff16815260200190815260200160002060030160009054906101000a900460ff169450945094505050909192565b600360009054906101000a900473ffffffffffffffffffffffffffffffffffffffff1681565b60008160008110156109cd576040517f08c379a000000000000000000000000000000000000000000000000000000000815260040180806020018281038252600f8152602001807f4e6567617469766520616d6f756e74000000000000000000000000000000000081525060200191505060405180910390fd5b6000339050600015156000808373ffffffffffffffffffffffffffffffffffffffff1673ffffffffffffffffffffffffffffffffffffffff16815260200190815260200160002060009054906101000a900460ff16151514610a97576040517f08c379a000000000000000000000000000000000000000000000000000000000815260040180806020018281038252600e8152602001807f416c7265616479207374616b656400000000000000000000000000000000000081525060200191505060405180910390fd5b610aa18185610d44565b92505050919050565b60065481565b60045481565b600080828401905083811015610b34576040517f08c379a000000000000000000000000000000000000000000000000000000000815260040180806020018281038252601b8152602001807f536166654d6174683a206164646974696f6e206f766572666c6f77000000000081525060200191505060405180910390fd5b8091505092915050565b600060018060008573ffffffffffffffffffffffffffffffffffffffff1673ffffffffffffffffffffffffffffffffffffffff16815260200190815260200160002060030160006101000a81548160ff0219169083151502179055506000610bb161010f84610fec90919063ffffffff16565b9050600061271090506000610bcf828461107290919063ffffffff16565b90506000610be68287610ab690919063ffffffff16565b9050610bfd8660075461110190919063ffffffff16565b600781905550610c188260065461110190919063ffffffff16565b60068190555060008060008973ffffffffffffffffffffffffffffffffffffffff1673ffffffffffffffffffffffffffffffffffffffff16815260200190815260200160002060006101000a81548160ff021916908315150217905550610c7f878261118a565b15610d20578673ffffffffffffffffffffffffffffffffffffffff16600360009054906101000a900473ffffffffffffffffffffffffffffffffffffffff1673ffffffffffffffffffffffffffffffffffffffff167f85ab59351da11b79336de7647172267c33bf533ee87d9d292441c2672177159b8885604051808381526020018281526020019250505060405180910390a36001945050505050610d29565b60009450505050505b92915050565b6000610d3c833084611354565b905092915050565b6000816000811015610dbe576040517f08c379a000000000000000000000000000000000000000000000000000000000815260040180806020018281038252600f8152602001807f4e6567617469766520616d6f756e74000000000000000000000000000000000081525060200191505060405180910390fd5b610dc88484610d2f565b610dd55760009150610fe5565b60016000808673ffffffffffffffffffffffffffffffffffffffff1673ffffffffffffffffffffffffffffffffffffffff16815260200190815260200160002060006101000a81548160ff02191690831515021790555060405180608001604052808573ffffffffffffffffffffffffffffffffffffffff16815260200184815260200142815260200160001515815250600160008673ffffffffffffffffffffffffffffffffffffffff1673ffffffffffffffffffffffffffffffffffffffff16815260200190815260200160002060008201518160000160006101000a81548173ffffffffffffffffffffffffffffffffffffffff021916908373ffffffffffffffffffffffffffffffffffffffff160217905550602082015181600101556040820151816002015560608201518160030160006101000a81548160ff0219169083151502179055509050508373ffffffffffffffffffffffffffffffffffffffff16600360009054906101000a900473ffffffffffffffffffffffffffffffffffffffff1673ffffffffffffffffffffffffffffffffffffffff167f5dac0c1b1112564a045ba943c9d50270893e8e826c49be8e7073adc713ab7bd7856040518082815260200191505060405180910390a3610fbf83600754610ab690919063ffffffff16565b600781905550610fda83600454610ab690919063ffffffff16565b600481905550600191505b5092915050565b600080831415610fff576000905061106c565b600082840290508284828161101057fe5b0414611067576040517f08c379a00000000000000000000000000000000000000000000000000000000081526004018080602001828103825260218152602001806114db6021913960400191505060405180910390fd5b809150505b92915050565b60008082116110e9576040517f08c379a000000000000000000000000000000000000000000000000000000000815260040180806020018281038252601a8152602001807f536166654d6174683a206469766973696f6e206279207a65726f00000000000081525060200191505060405180910390fd5b60008284816110f457fe5b0490508091505092915050565b600082821115611179576040517f08c379a000000000000000000000000000000000000000000000000000000000815260040180806020018281038252601e8152602001807f536166654d6174683a207375627472616374696f6e206f766572666c6f77000081525060200191505060405180910390fd5b600082840390508091505092915050565b6000816000811015611204576040517f08c379a000000000000000000000000000000000000000000000000000000000815260040180806020018281038252600f8152602001807f4e6567617469766520616d6f756e74000000000000000000000000000000000081525060200191505060405180910390fd5b600360009054906101000a900473ffffffffffffffffffffffffffffffffffffffff16600860006101000a81548173ffffffffffffffffffffffffffffffffffffffff021916908373ffffffffffffffffffffffffffffffffffffffff160217905550600860009054906101000a900473ffffffffffffffffffffffffffffffffffffffff1673ffffffffffffffffffffffffffffffffffffffff1663a9059cbb85856040518363ffffffff1660e01b8152600401808373ffffffffffffffffffffffffffffffffffffffff1673ffffffffffffffffffffffffffffffffffffffff16815260200182815260200192505050602060405180830381600087803b15801561131057600080fd5b505af1158015611324573d6000803e3d6000fd5b505050506040513d602081101561133a57600080fd5b810190808051906020019092919050505091505092915050565b6000600360009054906101000a900473ffffffffffffffffffffffffffffffffffffffff16600860006101000a81548173ffffffffffffffffffffffffffffffffffffffff021916908373ffffffffffffffffffffffffffffffffffffffff160217905550600860009054906101000a900473ffffffffffffffffffffffffffffffffffffffff1673ffffffffffffffffffffffffffffffffffffffff166323b872dd8585856040518463ffffffff1660e01b8152600401808473ffffffffffffffffffffffffffffffffffffffff1673ffffffffffffffffffffffffffffffffffffffff1681526020018373ffffffffffffffffffffffffffffffffffffffff1673ffffffffffffffffffffffffffffffffffffffff1681526020018281526020019350505050602060405180830381600087803b15801561149657600080fd5b505af11580156114aa573d6000803e3d6000fd5b505050506040513d60208110156114c057600080fd5b81019080805190602001909291905050509050939250505056fe536166654d6174683a206d756c7469706c69636174696f6e206f766572666c6f77a265627a7a723158200cb41b96b75271486a41d3ac657d09788b765a39b60ca3dc028ac650b87c7db864736f6c63430005100032",
  "source": "pragma solidity ^0.5.0;\r\n\r\n/**\r\n * @dev Interface of the ERC20 standard as defined in the EIP. Does not include\r\n * the optional functions; to access them see `ERC20Detailed`.\r\n */\r\ninterface IERC20 {\r\n    /**\r\n     * @dev Returns the amount of tokens in existence.\r\n     */\r\n    function totalSupply() external view returns (uint256);\r\n\r\n    /**\r\n     * @dev Returns the amount of tokens owned by `account`.\r\n     */\r\n    function balanceOf(address account) external view returns (uint256);\r\n\r\n    /**\r\n     * @dev Moves `amount` tokens from the caller's account to `recipient`.\r\n     *\r\n     * Returns a boolean value indicating whether the operation succeeded.\r\n     *\r\n     * Emits a `Transfer` event.\r\n     */\r\n    function transfer(address recipient, uint256 amount)\r\n        external\r\n        returns (bool);\r\n\r\n    /**\r\n     * @dev Returns the remaining number of tokens that `spender` will be\r\n     * allowed to spend on behalf of `owner` through `transferFrom`. This is\r\n     * zero by default.\r\n     *\r\n     * This value changes when `approve` or `transferFrom` are called.\r\n     */\r\n    function allowance(address owner, address spender)\r\n        external\r\n        view\r\n        returns (uint256);\r\n\r\n    /**\r\n     * @dev Sets `amount` as the allowance of `spender` over the caller's tokens.\r\n     *\r\n     * Returns a boolean value indicating whether the operation succeeded.\r\n     *\r\n     * > Beware that changing an allowance with this method brings the risk\r\n     * that someone may use both the old and the new allowance by unfortunate\r\n     * transaction ordering. One possible solution to mitigate this race\r\n     * condition is to first reduce the spender's allowance to 0 and set the\r\n     * desired value afterwards:\r\n     * https://github.com/ethereum/EIPs/issues/20#issuecomment-263524729\r\n     *\r\n     * Emits an `Approval` event.\r\n     */\r\n    function approve(address spender, uint256 amount) external returns (bool);\r\n\r\n    /**\r\n     * @dev Moves `amount` tokens from `sender` to `recipient` using the\r\n     * allowance mechanism. `amount` is then deducted from the caller's\r\n     * allowance.\r\n     *\r\n     * Returns a boolean value indicating whether the operation succeeded.\r\n     *\r\n     * Emits a `Transfer` event.\r\n     */\r\n    function transferFrom(\r\n        address sender,\r\n        address recipient,\r\n        uint256 amount\r\n    ) external returns (bool);\r\n\r\n    /**\r\n     * @dev Emitted when `value` tokens are moved from one account (`from`) to\r\n     * another (`to`).\r\n     *\r\n     * Note that `value` may be zero.\r\n     */\r\n    event Transfer(address indexed from, address indexed to, uint256 value);\r\n\r\n    /**\r\n     * @dev Emitted when the allowance of a `spender` for an `owner` is set by\r\n     * a call to `approve`. `value` is the new allowance.\r\n     */\r\n    event Approval(\r\n        address indexed owner,\r\n        address indexed spender,\r\n        uint256 value\r\n    );\r\n}\r\n\r\n// File: openzeppelin-solidity/contracts/math/SafeMath.sol\r\n\r\npragma solidity ^0.5.0;\r\n\r\n/**\r\n * @dev Wrappers over Solidity's arithmetic operations with added overflow\r\n * checks.\r\n *\r\n * Arithmetic operations in Solidity wrap on overflow. This can easily result\r\n * in bugs, because programmers usually assume that an overflow raises an\r\n * error, which is the standard behavior in high level programming languages.\r\n * `SafeMath` restores this intuition by reverting the transaction when an\r\n * operation overflows.\r\n *\r\n * Using this library instead of the unchecked operations eliminates an entire\r\n * class of bugs, so it's recommended to use it always.\r\n */\r\nlibrary SafeMath {\r\n    /**\r\n     * @dev Returns the addition of two unsigned integers, reverting on\r\n     * overflow.\r\n     *\r\n     * Counterpart to Solidity's `+` operator.\r\n     *\r\n     * Requirements:\r\n     * - Addition cannot overflow.\r\n     */\r\n    function add(uint256 a, uint256 b) internal pure returns (uint256) {\r\n        uint256 c = a + b;\r\n        require(c >= a, \"SafeMath: addition overflow\");\r\n\r\n        return c;\r\n    }\r\n\r\n    /**\r\n     * @dev Returns the subtraction of two unsigned integers, reverting on\r\n     * overflow (when the result is negative).\r\n     *\r\n     * Counterpart to Solidity's `-` operator.\r\n     *\r\n     * Requirements:\r\n     * - Subtraction cannot overflow.\r\n     */\r\n    function sub(uint256 a, uint256 b) internal pure returns (uint256) {\r\n        require(b <= a, \"SafeMath: subtraction overflow\");\r\n        uint256 c = a - b;\r\n\r\n        return c;\r\n    }\r\n\r\n    /**\r\n     * @dev Returns the multiplication of two unsigned integers, reverting on\r\n     * overflow.\r\n     *\r\n     * Counterpart to Solidity's `*` operator.\r\n     *\r\n     * Requirements:\r\n     * - Multiplication cannot overflow.\r\n     */\r\n    function mul(uint256 a, uint256 b) internal pure returns (uint256) {\r\n        // Gas optimization: this is cheaper than requiring 'a' not being zero, but the\r\n        // benefit is lost if 'b' is also tested.\r\n        // See: https://github.com/OpenZeppelin/openzeppelin-solidity/pull/522\r\n        if (a == 0) {\r\n            return 0;\r\n        }\r\n\r\n        uint256 c = a * b;\r\n        require(c / a == b, \"SafeMath: multiplication overflow\");\r\n\r\n        return c;\r\n    }\r\n\r\n    /**\r\n     * @dev Returns the integer division of two unsigned integers. Reverts on\r\n     * division by zero. The result is rounded towards zero.\r\n     *\r\n     * Counterpart to Solidity's `/` operator. Note: this function uses a\r\n     * `revert` opcode (which leaves remaining gas untouched) while Solidity\r\n     * uses an invalid opcode to revert (consuming all remaining gas).\r\n     *\r\n     * Requirements:\r\n     * - The divisor cannot be zero.\r\n     */\r\n    function div(uint256 a, uint256 b) internal pure returns (uint256) {\r\n        // Solidity only automatically asserts when dividing by 0\r\n        require(b > 0, \"SafeMath: division by zero\");\r\n        uint256 c = a / b;\r\n        // assert(a == b * c + a % b); // There is no case in which this doesn't hold\r\n\r\n        return c;\r\n    }\r\n\r\n    /**\r\n     * @dev Returns the remainder of dividing two unsigned integers. (unsigned integer modulo),\r\n     * Reverts when dividing by zero.\r\n     *\r\n     * Counterpart to Solidity's `%` operator. This function uses a `revert`\r\n     * opcode (which leaves remaining gas untouched) while Solidity uses an\r\n     * invalid opcode to revert (consuming all remaining gas).\r\n     *\r\n     * Requirements:\r\n     * - The divisor cannot be zero.\r\n     */\r\n    function mod(uint256 a, uint256 b) internal pure returns (uint256) {\r\n        require(b != 0, \"SafeMath: modulo by zero\");\r\n        return a % b;\r\n    }\r\n}\r\n\r\npragma solidity ^0.5.8;\r\n\r\ncontract Professional {\r\n    using SafeMath for uint256;\r\n\r\n    struct Deposits {\r\n        address depositor;\r\n        uint256 depositAmount;\r\n        uint256 depositTime;\r\n        bool paid;\r\n    }\r\n\r\n    mapping(address => bool) private hasStaked;\r\n    mapping(address => Deposits) private deposits;\r\n\r\n    string public name;\r\n    address public tokenAddress;\r\n    uint256 public stakedTotal;\r\n    uint256 public totalReward;\r\n    uint256 public rewardBalance;\r\n    uint256 public stakedBalance;\r\n\r\n    IERC20 public ERC20Interface;\r\n    event Staked(\r\n        address indexed token,\r\n        address indexed staker_,\r\n        uint256 requestedAmount_\r\n    );\r\n    event PaidOut(\r\n        address indexed token,\r\n        address indexed staker_,\r\n        uint256 amount_,\r\n        uint256 reward_\r\n    );\r\n\r\n    constructor(string memory name_, address tokenAddress_) public {\r\n        name = name_;\r\n        require(tokenAddress_ != address(0), \"Token address: 0 address\");\r\n        tokenAddress = tokenAddress_;\r\n    }\r\n\r\n    function addReward(uint256 rewardAmount)\r\n        public\r\n        returns (\r\n            //_hasAllowance(msg.sender, rewardAmount)\r\n            bool\r\n        )\r\n    {\r\n        require(rewardAmount > 0, \"Reward must be positive\");\r\n        address from = msg.sender;\r\n        if (!_payMe(from, rewardAmount)) {\r\n            return false;\r\n        }\r\n        //Rewards added to staking contract\r\n        totalReward = totalReward.add(rewardAmount);\r\n        rewardBalance = rewardBalance.add(rewardAmount);\r\n        return true;\r\n    }\r\n\r\n    function userDeposits()\r\n        public\r\n        view\r\n        _staked(msg.sender)\r\n        returns (\r\n            uint256,\r\n            uint256,\r\n            bool\r\n        )\r\n    {\r\n        address user = msg.sender;\r\n        return (\r\n            deposits[user].depositAmount,\r\n            deposits[user].depositTime,\r\n            deposits[user].paid\r\n        );\r\n    }\r\n\r\n    /**\r\n     * Requirements:\r\n     * - `amount` Amount to be staked\r\n     */\r\n    function stake(uint256 amount)\r\n        public\r\n        _positive(amount)\r\n        returns (\r\n            //_realAddress(msg.sender)\r\n            bool\r\n        )\r\n    {\r\n        address from = msg.sender;\r\n        require(hasStaked[from] == false, \"Already staked\");\r\n        return _stake(from, amount);\r\n    }\r\n\r\n    function withdraw()\r\n        public\r\n        //_realAddress(msg.sender)\r\n        _staked(msg.sender)\r\n        returns (bool)\r\n    {\r\n        address from = msg.sender;\r\n        require(\r\n            block.timestamp >= (deposits[from].depositTime).add(60), //(90 * 24 * 3600),\r\n            \"Requesting before lock time\"\r\n        );\r\n        require(deposits[from].paid == false, \"Already paid out\");\r\n\r\n        uint256 amount = deposits[from].depositAmount;\r\n        return _withdrawAfterClose(from, amount);\r\n    }\r\n\r\n    function _withdrawAfterClose(address from, uint256 amount)\r\n        private\r\n        returns (\r\n            //_realAddress(from)\r\n            bool\r\n        )\r\n    {\r\n        deposits[from].paid = true;\r\n\r\n        //uint256 noOfDecimals = 1000000000000000000;\r\n        uint256 num = amount.mul(271);\r\n        uint256 denom = 10000;\r\n        uint256 reward = num.div(denom);\r\n\r\n        // /uint256 reward = ((amount * 58) / (100 * 100));\r\n\r\n        uint256 payOut = amount.add(reward);\r\n        stakedBalance = stakedBalance.sub(amount);\r\n        rewardBalance = rewardBalance.sub(reward);\r\n        hasStaked[from] = false;\r\n        if (_payDirect(from, payOut)) {\r\n            emit PaidOut(tokenAddress, from, amount, reward);\r\n            return true;\r\n        }\r\n        return false;\r\n    }\r\n\r\n    function _stake(address staker, uint256 amount)\r\n        private\r\n        _positive(amount)\r\n        returns (\r\n            //_hasAllowance(staker, amount)\r\n            bool\r\n        )\r\n    {\r\n        if (!_payMe(staker, amount)) {\r\n            return false;\r\n        }\r\n        //set the staking status to true\r\n        hasStaked[staker] = true;\r\n        deposits[staker] = Deposits(staker, amount, block.timestamp, false);\r\n        emit Staked(tokenAddress, staker, amount);\r\n\r\n        // Transfer is completed\r\n        stakedBalance = stakedBalance.add(amount);\r\n        stakedTotal = stakedTotal.add(amount);\r\n        return true;\r\n    }\r\n\r\n    function _payMe(address payer, uint256 amount) private returns (bool) {\r\n        return _payTo(payer, address(this), amount);\r\n    }\r\n\r\n    function _payTo(\r\n        address allower,\r\n        address receiver,\r\n        uint256 amount\r\n    )\r\n        private\r\n        returns (\r\n            //_hasAllowance(allower, amount)\r\n            bool\r\n        )\r\n    {\r\n        // Request to transfer amount from the contract to receiver.\r\n        // contract does not own the funds, so the allower must have added allowance to the contract\r\n        // Allower is the original owner.\r\n        ERC20Interface = IERC20(tokenAddress);\r\n        return ERC20Interface.transferFrom(allower, receiver, amount);\r\n    }\r\n\r\n    function _payDirect(address to, uint256 amount)\r\n        private\r\n        _positive(amount)\r\n        returns (bool)\r\n    {\r\n        ERC20Interface = IERC20(tokenAddress);\r\n        return ERC20Interface.transfer(to, amount);\r\n    }\r\n\r\n    // modifier _realAddress(address addr) {\r\n    //     require(addr != address(0), \"Zero address\");\r\n    //     _;\r\n    // }\r\n\r\n    modifier _positive(uint256 amount) {\r\n        require(amount >= 0, \"Negative amount\");\r\n        _;\r\n    }\r\n\r\n    // modifier _hasAllowance(address allower, uint256 amount) {\r\n    //     // Make sure the allower has provided the right allowance.\r\n    //     ERC20Interface = IERC20(tokenAddress);\r\n    //     uint256 ourAllowance = ERC20Interface.allowance(allower, address(this));\r\n    //     require(amount <= ourAllowance, \"Make sure to add enough allowance\");\r\n    //     _;\r\n    // }\r\n\r\n    modifier _staked(address from) {\r\n        //to check the user status\r\n        require(hasStaked[from] == true, \"No stakes found for user\");\r\n        _;\r\n    }\r\n}\r\n",
  "sourcePath": "C:\\Users\\chait\\OneDrive\\Desktop\\Minddeft\\Projects\\Bonfi\\Testing\\Aragon\\Version1\\contracts\\ProfessionalFinal.sol",
  "compiler": {
    "name": "solc",
    "version": "0.5.16+commit.9c3226ce.Emscripten.clang"
  },
  "schemaVersion": "3.1.0",
  "updatedAt": "2021-01-26T06:31:38.287Z",
  "devdoc": {
    "methods": {}
  },
  "userdoc": {
    "methods": {
      "stake(uint256)": {
        "notice": "Requirements: - `amount` Amount to be staked"
      }
    }
  }
}